:020000040000FA
:1000000070110020ED03000000000000000000005F
:1000100000000000000000000000000000000000E0
:1000200000000000000000000000000000000000D0
:1000300000000000000000000000000000000000C0
:10004000F703000047040000BF0400000B04000099
:1000500000000000000000001F0400003304000046
:1000600097040000AB04000000000000D30400006F
:100070005B0400006F040000830400000000000027
:1000800000F002F800F04BF80CA030C80838241833
:100090002D18A246671EAB4654465D46AC4201D1C0
:1000A00000F03DF87E460F3E0FCCB64601263342A7
:1000B00000D0FB1AA246AB4633431847A82E0000D7
:1000C000C82E0000103A02D378C878C1FAD8520777
:1000D00001D330C830C101D504680C6070470000FE
:1000E0000023002400250026103A01D378C1FBD854
:1000F000520700D330C100D50B60704710B564299A
:1001000002D102F095FC10BD782902D102F0C6FCA4
:1001100010BD002010BD1FB51FBD10B510BD02F0F1
:1001200093FE1146FFF7F7FF00F024F802F0ABFE54
:1001300003B4FFF7F2FF03BC00F00DFA70B50546FB
:100140000C46164602E00FCC0FC5103E102EFAD218
:10015000082E02D303CC03C5083E042E07D301CCDE
:1001600001C5361F03E021782970641C6D1C761EC2
:10017000F9D270BD0EB58121684802F018FD68A063
:1001800002F012FC02F0CCFA69A002F00DFC6EA0A5
:1001900002F00AFC7448816B002001F06CF90290B7
:1001A0007148C16B0298814203D170A002F0FCFB40
:1001B00004E071A002F0F8FB00BFFEE77EA002F0B1
:1001C000F3FB00F0B8FB00F0E3F900BF00F0DDF94D
:1001D0000028FBD080A002F0E7FB00F0C5FC8EE019
:1001E000052281494D4802F085FC002784E0002566
:1001F0007DE0002677E005240A21384602F0E5FC80
:100200003030C2B22146641C444842540A21384668
:1002100002F0DBFC3031CAB22146641C3F48425434
:100220002E222146641C42540A21284602F0CDFCAD
:100230003030C2B22146641C384842540A21284654
:1002400002F0C3FC3031CAB22146641C3348425428
:100250002E222046611CCCB230490A540A21304675
:1002600002F0B3FC3030C2B22046611CCCB22B4944
:100270000A540A21304602F0A8FC3031CAB22046A6
:10028000611CCCB225490A542E222046611CCCB2F6
:1002900022490A540020019020E016211F4800F056
:1002A0002CFB32462946384602F04BF900F038FB69
:1002B00001F02BF87D2109014018009001F013F89E
:1002C000002116488030017000BF1448803000784B
:1002D0000028FAD00198401CC0B201900198032870
:1002E000DBDB701CC6B2202E85DB681CC5B2202D5E
:1002F00000DA7EE7781CC7B2202F00DA77E76FE7D5
:1003000010B5044600F04EFB012104488030017016
:1003100010BD10B500F00BFB10BD00005000002018
:10032000496E697469616C697A696E672E2E2E0058
:100330000D0A2D2D2D2D2D2D2D2D2D2D2D2D2D2D30
:100340002D2D2D2D2D0D0A0056616C696461746987
:100350006E672070726F6772616D20696E74656779
:10036000726974792E2E2E00C0FF00004352432084
:100370004F4B0D0A000000000D0A50726F6772614A
:100380006D6D696E67204572726F72202D20435229
:100390004320444F4553204E4F54204D4154434831
:1003A000202D2048616C74696E67204578656375FF
:1003B00074696F6E0D0A000043616C69627261744A
:1003C000696E67206672657175656E636965732E07
:1003D0002E2E0D0A0000000043616C20636F6D70CB
:1003E0006C6574650D0A0000A02E0000414942486A
:1003F00008604248004701B5012080F3108800F0F2
:100400003DFF002080F3108801BD01B5012080F37D
:10041000108800F007FE002080F3108801BD01B5B0
:10042000012080F3108800F0DBFC002080F31088AE
:1004300001BD01B5012080F3108800F073FF00209A
:1004400080F3108801BD01B5012080F3108800F011
:10045000AFFE002080F3108801BD01B5012080F3BC
:10046000108800F0AAFE002080F3108801BD01B5BD
:10047000012080F3108800F0A5FE002080F3108892
:1004800001BD01B5012080F3108800F0A0FE00201E
:1004900080F3108801BD01B5012080F3108800F0C1
:1004A00067FD002080F3108801BD01B5012080F3B5
:1004B000108800F014FD002080F3108801BD01B504
:1004C000012080F3108800F068F8002080F3108885
:1004D00001BD01B5012080F3108800F05FF8002015
:1004E00080F3108801BD000005480649064A074B05
:1004F0007047000000E100E0000000008100000003
:100500007005002070110020700900207009002083
:10051000512109060870704710B503460C4618466D
:10052000FFF7F6FF10BD10B55124240623781846B6
:10053000FFF7EEFF184610BD10B50446FFF7F3FFB6
:1005400010BD01460020704710B5044604492046FE
:10055000FFF7E2FF10BD03A002F026FA00BFFEE79E
:10056000000000200D0A5445535420444F4E450DC1
:100570000A00000010B52021914802F01AFB9148B2
:100580008F4988619048C86110BD8D484078704798
:100590000120C0028D49086070477047F0B593B0E4
:1005A00000F0FAFE0D9000F0FBFE0C9000F0FCFE57
:1005B000064600F0FDFE0B9000F0FEFE074600F040
:1005C000FFFE0A9000F000FF099000F001FF089084
:1005D0007F2029214906086079480078401C784925
:1005E0000870292040060568794800681290129822
:1005F0000004401910907748056877480068129009
:100600001298000440190F907448056874480068F7
:1006100012901298000444197248056872480068E4
:1006200012901298000440191190704805687048A3
:10063000006812901298000440190E9000202921A1
:10064000490608606B4808605D48007802287DDD37
:1006500069490F98884202D20D98401E0D90674953
:100660000F98884202D90D98401C0D900D990C9856
:1006700001F0DFFE0C9800F0B3FE0D9800F0ACFE28
:100680004F4880691199884204D24D48C069401E84
:100690004B49C8614A48806901461198814204D992
:1006A0004748C069401C4649C8614549C86901F0CE
:1006B0007BFF5348844201D9761C0BE051488442A9
:1006C00003D90B98401C0B9004E04E4841388442FB
:1006D00000D97F1C4C48844201D2761E0CE0494868
:1006E000A038844203D20B98401E0B9004E045488A
:1006F0005F38844200D27F1E009732461F21084691
:100700000B9B01F0C5FF304600F06EFE0B9800F029
:100710006FFE384600F070FE3C490E98884202D9C0
:100720000898401C08903A490E98884202D20898CE
:10073000401E089000220899099801F040FE09988F
:1007400000F062FE089800F063FE00E003E001F0B4
:10075000C9FE01F0C1FE1A4A0E990898D269119B90
:1007600003930492059106900B98234602970096F6
:10077000019028A00D9A0F9902F016F91048007800
:1007800019281AD10120C0021049803108600020C8
:100790000B49087001204870109848600846846032
:1007A0000E98C860119808610F98486126A002F061
:1007B000FBF8002029214906086013B0F0BD0000B5
:1007C000D400002094D10300BA02000000E100E050
:1007D0000000045200001052000014520000185291
:1007E00000001C520000285200002C520000305221
:1007F00000003452FF3F0000C8781E0038901E00F1
:10080000980F0300900D0300E80A0300786F1800AA
:100810008864180048463D25642D25642020203238
:100820004D3D25642D25642C25642C256420202035
:100830004C433D25642D256420202049463D2564F8
:100840002D25640D0A000000646F6E650D0A00001E
:1008500010B5FF219931F94802F0ABF9F849F94890
:100860004165C91F41610F21803081824020F649D6
:1008700008601F20890548610820086210BDEF4903
:1008800008607047ED4948607047EC4988607047E0
:10089000EA49C8607047102081060860704710B5AB
:1008A000044621460B398A00E6491431885801F084
:1008B0007BFE10BD10B5044621460B398A00E14984
:1008C0005431885801F070FE10BD70B505460C46D5
:1008D0000B21DC480174012C02D0022C0AD104E067
:1008E000D849087CFFF7E6FF05E0D649087CFFF70A
:1008F000D6FF00E000BF00BF70BD70B505460C46D6
:1009000022462946CD48103002F0F4F8CB4810308A
:100910000121890788600846C4600120086070BD15
:100920006820CA4908600620C9490860704702204B
:100930004107086070475820C44908600120C44935
:100940000860C048703841210906486110208106BE
:100950000860704701204003BE4908600520C002BE
:1009600008600420010708607047FFB581B00C469D
:1009700015461E460A9F01F01DFD553840B23070E5
:1009800001F015FD3870AD488030007C2070207873
:10099000A84205DC2278AB496F39019802F0AAF829
:1009A00005B0F0BD00B5FFF776FF01204003A9496F
:1009B00008600020A549086000BDF7B584B000BFFD
:1009C00000F002FD019000F003FD00909B48803094
:1009D000007C02909B488030C08A401C81B29948BC
:1009E0008030C1820025029AD1009B4B069A5A435F
:1009F000104602F0EAF80390092407E060009749E6
:100A0000095A601C4000954A1152641E002CF5DA08
:100A1000039800B291490880002407E060008F49E4
:100A2000085E8F49095D48434519641C0A2CF5DDB1
:100A30002846E917C90D09184F1282488030C18A2B
:100A4000808A814216D17D20C000874207DD009850
:100A5000421C014600920022019801F0B0FC81483E
:100A6000874207DA0098421E014600920022019850
:100A700001F0A5FC019800F0C7FC009800F0C8FC4C
:100A80000025059819286DD2092407E0A0007649B1
:100A90000958601C8000744A1150641E002CF5DA5D
:100AA000714904980860002407E0A0006E490858C6
:100AB0006B49095D48434519641C0A2CF5DD28463D
:100AC000E917C90D09184E125E488030C18A808A24
:100AD000814247D14120C00086421DD95948007C3F
:100AE0000B388100574814304058401C5549097C48
:100AF0000B398A005349143188505248007C0B3816
:100B00008100504854304058401C4E49097C0B39F4
:100B10008A004C4954318850FF20E13086421DD272
:100B20004848007C0B388100464814304058401E2D
:100B30004449097C0B398A004249143188504148A4
:100B4000007C0B3881003F4854304058401E3D49DE
:100B5000097C0B398A003B495431885000213948BF
:100B60008030C18207B0F0BD40203749086070472F
:100B7000402035498031086070473248407C7047DA
:100B800010B501F006FC10BD3848006870473848C1
:100B9000008800B27047F1B5A2B0402112A802F05F
:100BA00008F8442101A802F004F826492298486177
:100BB000002477E0A20023491431885801F0F4FCA6
:100BC00000202921490608602A480860012700E022
:100BD0007F1C7D20C0018742FAD37F20292149064E
:100BE00008601A4805682448066830044019A100C6
:100BF00012AA5050611C4900114AFE328918129AFB
:100C0000514308460E49FE3101F0D5FF611C8900B1
:100C100001AA5050002C3ADDA00012A90958A000EA
:100C200010581438814229D2A10006481430405887
:100C3000401CA20003491431885028E09C02002087
:100C4000C30200009C03002000E100E000002852E5
:100C50000000405200001052093D000084020020B4
:100C60001800002018FCFFFF240000200000545250
:100C700000006452FF3F000000002C52A100D54844
:100C800040582830611C8A00D2498850641C002CCE
:100C900008D1A100CF4840582830611C8A00CD49B6
:100CA0008850641C102C85DB002400E0641C102C90
:100CB000FCDB129823B0F0BDF0B5B3B005460E468C
:100CC0000024402121A801F074FF442110A801F064
:100CD00070FF2022C04908A8FFF730FA2022BE4941
:100CE00020316846FFF72AFABA48143845654FE0C4
:100CF000A200B8494031885801F056FC0020292153
:100D000049060860B54808600120319002E031983A
:100D1000401C31907D21C90131988842F7DB7F204A
:100D2000292149060860AE480768AE48006832903D
:100D300032980004C019A10021AA505062006B46ED
:100D4000995A620008AB9A5A7243104601F033FF79
:100D5000A10010AA5050A00021A90958A0001058C5
:100D6000401F814209D2A1009A4840304058401C9F
:100D7000A2009849403188500AE0A10095484030CF
:100D800040582830611C8A00924940318850641CC8
:100D9000102CADDB33B0F0BD70B504462046FFF734
:100DA000FAFE0546904800F0A0FBFF202B3000F033
:100DB000ABFBFF20343000F0A7FBFF20F93000F040
:100DC00094FBFF20FB3000F09FFBFF20FD3000F084
:100DD0009BFB29462046FFF76FFFFFF7E3FD70BD41
:100DE00070B5012080070469C56900F04BF900F077
:100DF0009DF90121774814384174002D08D008204E
:100E00002840002803D0002172481438417400BFE4
:100E1000012080074562E007C00F002806D00120AE
:100E200080078069012108438907886102202040EA
:100E3000002810D06D480068002805D021225206F5
:100E400050686A4A1168884701208007806902213A
:100E500008434907886104202040002810D06348D7
:100E60004068002805D02122520650685F4A516828
:100E700088470120800780690421084309078861A9
:100E800008202040002810D058488068002805D04D
:100E9000212252065068554A9168884701208007F0
:100EA000806908210843C906886110202040002875
:100EB00010D04E48C068002805D021225206506844
:100EC0004A4AD16888470120800780691021084379
:100ED0008906886100F0DDF800F02FF970BD70B56B
:100EE0004348056843480668300440194249096888
:100EF0008900424A505040480068401C3E49086002
:100F00003F480068202108433D49086008460068C2
:100F10003C4908603A480068202188433849086005
:100F20000846006837490860334800680A281ED11F
:100F3000012406E0A000314A115833A001F034FD2D
:100F4000641C0A2CF6D3FF200130314908604000B0
:100F50002F4980390860002027490860002400E0FC
:100F6000641C2C488442FBD32B482C49C86070BDBC
:100F700010B5234A126860231A43214B1A601A469F
:100F80001268204B1A601E4A126860239A431C4B59
:100F90001A601A4612681B4B1A60012252021C4B3F
:100FA000803B1A6052101A4B1A6052001C4B1A6098
:100FB0000F4A10680F4A11680A0412180E4B1B687A
:100FC0009B000E4CE2500C4A1268521C0A4B1A60ED
:100FD00010BD0000B0030020A82E0000FF3F00005D
:100FE0000000285200002C52CB0300009C0200207D
:100FF000000044520000485208000020F400002085
:101000001400002000000C5225580D0A00000000BA
:1010100080E100E0102700000400FA0500ED00E088
:1010200080E200E010B502A001F0BEFC10BD00009F
:1010300061646320696E7465727275707420747275
:10104000696767657265640D0A00000062480068A0
:10105000000C00046049086070475F480068022186
:1010600008435D49086070475B4800680221884377
:10107000594908607047584800680221484056495D
:1010800008607047544800680421084352490860CA
:10109000704751480068042188434F4908607047F1
:1010A0004D480068042148404B49086070474A4851
:1010B00000680821084348490860704746480068AE
:1010C0000821884344490860704743480068082164
:1010D00048404149086070473F4800681021084374
:1010E0003D49086070473C480068102188433A49F0
:1010F0000860704738480068102148403649086049
:10110000704735480068202108433349086070471C
:1011100031480068202188432F49086070472E48D5
:101120000068202148402C49086070472A48006820
:10113000402108432849086070472748006840213B
:10114000884325490860704723480068402148408B
:1011500021490860704720480068802108431E49E3
:10116000086070471C480068802188431A4908605D
:101170007047194800688021484017490860704747
:1011800015480068FF210131084313490860704782
:1011900011480068FF21013188430F4908607047FA
:1011A0000D480068FF21013148400B490860704735
:1011B00010B50AA001F0F8FB10BD10B511A001F0A8
:1011C000F3FB10BD10B519A001F0EEFB10BD10B57A
:1011D00020A001F0E9FB10BD0000045345787465C0
:1011E000726E616C20496E746572727570742047FE
:1011F00050494F33207472696767657265640D0AE0
:101200000000000045787465726E616C20496E7450
:10121000657272757074204750494F382074726936
:101220006767657265640D0A0000000045787465A3
:10123000726E616C20496E746572727570742047AD
:1012400050494F39207472696767657265640D0A89
:101250000000000045787465726E616C20496E7400
:10126000657272757074204750494F313020747226
:10127000696767657265640D0A00000010B502A019
:1012800001F092FB10BD000075617274207278202D
:10129000696E7465727275707420747269676765BF
:1012A0007265640D0A000000294800210160416058
:1012B0008160C160481E21214906886007200860BE
:1012C00070472349086070470120224948637047EE
:1012D00000B5FFF7F9FF03202121490608638020AC
:1012E0001D49086000BD00B50246FFF7F1FF21204F
:1012F00040064068101A1949884202D30120154956
:10130000086321204006026100BD2120400640689C
:101310007047002021214906086380200E49803152
:101320000860704710B5FFF7ADFE0A48008E84B222
:10133000E007C00F002806D005480068002802D04A
:1013400003490868804703484463FFF7A2FE10BDC5
:10135000340400204000004200E100E0FFFF0000F4
:1013600010B5CC21FE4801F024FC1121FC4880304E
:10137000C16203210163152141630F218163C163B0
:10138000F849016416214164122181641422F6494E
:101390001830FEF7D3FE10BDF1488030C06A7047A8
:1013A000EF488030006B7047ED488030406B7047ED
:1013B000EB488030806B7047E9488030C06B7047E5
:1013C000E7488030006C7047E5488030406C7047DB
:1013D000E3488030806C7047E1498031C8627047D3
:1013E000DF49803108637047DD49803148637047C9
:1013F000DB49803188637047D9498031C8637047C1
:10140000D749803108647047D549803148647047B6
:10141000D34980318864704710B50446982221462C
:10142000CF48FEF78BFE10BDD0490140490042086D
:10143000CE4B1A4011430846CD490140890082082D
:10144000CB4B1A4011430846CA4901400901020921
:10145000C84B1A40114308460106FF2212020240FF
:1014600012021143020AFF231B021A401143020E0B
:10147000114308467047F3B500256C1E16E000982E
:10148000465D3046FFF7D0FF064600270BE02046BA
:101490007040002804DA6000B7494840044600E084
:1014A000640076007F1C072FF1DD6D1C01988542DA
:1014B000E5D3E043FFF7B8FFFCBDF021014009117F
:1014C0000207120E11430846CC2101408910332235
:1014D0000240920011430846AA21014049105522BA
:1014E0000240520011430846704710B541098A0076
:1014F0009B4B9A584B01C41A0123DB07E3409A43E4
:101500008B00974CE25010BD10B541098A00944BF6
:101510009A584B01C41A0123DB07E3401A438B009E
:101520008F4CE25010BDFFB505460E46174600240D
:101530000FE028462041C007C00F002804D02046F5
:10154000F530FFF7E1FF03E02046F530FFF7CDFF70
:10155000641C032CEDDD00240FE030462041C00761
:10156000C00F002804D02046F930FFF7CDFF03E07C
:101570002046F930FFF7B9FF641C032CEDDD002491
:101580000FE038462041C007C00F002804D0204695
:10159000FD30FFF7B9FF03E02046FD30FFF7A5FF60
:1015A000641C032CEDDD00240FE003982041C007EC
:1015B000C00F002804D0E01DFA30FFF7A5FF03E0BC
:1015C000E01DFA30FFF791FF641C032CEDDDFFBD39
:1015D000FFB505460E46174600240FE02846204179
:1015E000C007C00F002804D0E01DFE30FFF78CFFBD
:1015F00003E0E01DFE30FFF778FF641C012CEDDDF9
:10160000002411E030462041C007C00F002805D05B
:101610002046FF300830FFF777FF04E02046FF3018
:101620000830FFF762FF641C012CEBDD002411E0A1
:1016300038462041C007C00F002805D02046FF30A3
:101640000A30FFF761FF04E02046FF300A30FFF761
:101650004CFF641C012CEBDD002411E003982041B9
:10166000C007C00F002805D02046FF300C30FFF720
:101670004BFF04E02046FF300C30FFF736FF641CC0
:10168000012CEBDDFFBD30B589B0054620223B497A
:1016900001A8FEF753FD002411E02846E040C007F2
:1016A000C00F002805D0610001AA505AFFF71DFFA6
:1016B00004E0610001AA505AFFF726FF641C0F2CBA
:1016C000EBD909B030BD30B589B0054620222B4991
:1016D000203101A8FEF732FD002411E02846E04049
:1016E000C007C00F002805D0610001AA505AFFF7BB
:1016F0000BFF04E0610001AA505AFFF7F6FE641CDC
:101700000F2CEBD909B030BD00B5FF20F630FFF744
:10171000ECFEFF20F730FFF7E8FEFF20F830FFF780
:10172000E4FEFF20F930FFF7E0FEFF20FA30FFF77C
:10173000EBFEFF20FB30FFF7D8FEFF20FC30FFF769
:10174000E3FEFF20FD30FFF7D0FEFF20FE30FFF765
:10175000DBFEFF20FF30FFF7D7FE094812E0000054
:1017600044040020006A1800E82E00005555555525
:10177000333333330F0F0F0FB71DC104FC2E00009E
:10178000FF010000FFF7C0FE01204002FFF7BCFE92
:10179000F848FFF7AAFEF748401CFFF7A6FEF548F9
:1017A000801CFFF7B1FE81208000FFF7ADFE002016
:1017B000F1490860F148FFF7A7FE00BDF3B581B01D
:1017C0000F4600200090019EB800019E821931460C
:1017D000EBA001F0E9F8F6A001F0E6F800240CE037
:1017E000002507E0A00030580121A9408843A1004E
:1017F00070506D1C202DF5DB641CBC42F0D300241E
:101800001DE0002518E0A00030580121A940084043
:10181000002809D0A00033582A462146EAA001F04A
:10182000C3F80098401C0090A00030580121A94046
:101830000843A10070506D1C202DE4DB641CBC42E9
:10184000DFD300241FE000251AE0A000305801215A
:10185000A94008400121A940884209D0A00033587E
:101860002A462146E4A001F09FF80098401C009011
:10187000A00030580121A9408843A10070506D1C80
:10188000202DE2DB641CBC42DDD37C1E1DE01F2545
:1018900018E0A00030580121A9400840002809D0D4
:1018A000A00033582A462146DFA001F07DF80098B9
:1018B000401C0090A00030580121A9400843A1001D
:1018C00070506D1E002DE4DA641E002CDFDA7C1EE1
:1018D0001FE01F251AE0A00030580121A940084050
:1018E0000121A940884209D0A00033582A46214648
:1018F000D9A001F059F80098401C0090A000305881
:101900000121A9408843A10070506D1E002DE2DA2C
:10191000641E002CDDDA002416E0002511E0A00092
:1019200030580121A9400840002809D0A0003358B0
:101930002A462146D4A001F037F80098401C0090B8
:101940006D1C202DEBDB641CBC42E6D3DAA00099B1
:1019500001F02AF80098FEBD30B50546002411E0DC
:1019600028462041C007C00F002805D02046FF3080
:10197000ED30FFF7C9FD04E02046FF30ED30FFF702
:10198000B4FD641C062CEBD930BD30B505460024EF
:1019900011E028462041C007C00F002805D0774934
:1019A0007539081BFFF7B0FD04E074497539081B51
:1019B000FFF79BFD641C042CEBD9052411E028469D
:1019C0002041C007C00F002805D06C497539081B9D
:1019D000FFF78BFD04E069497539081BFFF794FD9B
:1019E000641C062CEBD930BD30B50546002411E04F
:1019F00028462041C007C00F002805D05F49C91CF8
:101A00006018FFF781FD04E05C49C91C6018FFF70E
:101A10006CFD641C042CEBD9052411E02846204100
:101A2000C007C00F002805D05449C91C6018FFF733
:101A30005CFD04E05149C91C6018FFF765FD641C9A
:101A4000062CEBD930BD30B50546002411E0284600
:101A50002041C007C00F002805D048490F31081B9E
:101A6000FFF752FD04E045490F31081BFFF73DFD2C
:101A7000641C042CEBD9A806C00F002804D0E72072
:101A80008000FFF732FD03E0E7208000FFF73CFD18
:101A90006806C00F002804D036482C30FFF725FD1B
:101AA00003E034482C30FFF72FFD30BD30B505463C
:101AB00000240FE02846E040C007C00F002804D0F3
:101AC00020466B30FFF720FD03E020466B30FFF728
:101AD0000CFD641C0F2CEDDD30BD30B50546002437
:101AE0000FE02846E040C007C00F002804D0204681
:101AF0007C30FFF709FD03E020467C30FFF7F5FC62
:101B0000641C072CEDDD30BD30B5054600240FE028
:101B10002846E040C007C00F002804D02046D1303E
:101B2000FFF7F2FC03E02046D130FFF7DEFC641C37
:101B30000F2CEDDD30BD70B505460E4600240AE0E1
:101B40002046FF30D930FFF7D0FC2046FF30173059
:101B5000FFF7CBFC641C0D2CF2DB002405E0FF2119
:101B6000E531081BFFF7D0FC641CAC42F7D9002418
:101B7000BAE00000010200000000285292030000B9
:101B80000D0A0D0A5374617274696E6720535241D5
:101B90004D20746573742066726F6D2030782558FF
:101BA00020746F20307825582E2E2E0D0A0000004C
:101BB000546869732074616B657320617768696C20
:101BC000652E2E2E0D0A00000D0A4552524F52204E
:101BD000312040206164647265737320255820624F
:101BE0006974202564202D2D2056616C756520694F
:101BF00073202558000000000D0A4552524F522014
:101C0000322040206164647265737320255820621D
:101C10006974202564202D2D2056616C756520691E
:101C200073202558000000000D0A4552524F5220E3
:101C300033204020616464726573732025582062EC
:101C40006974202564202D2D2056616C75652069EE
:101C500073202558000000000D0A4552524F5220B3
:101C600034204020616464726573732025582062BB
:101C70006974202564202D2D2056616C75652069BE
:101C800073202558000000000D0A4552524F522083
:101C9000352040206164647265737320255820628A
:101CA0006974202564202D2D2056616C756520698E
:101CB00073202558000000000D0A5352414D205456
:101CC00065737420436F6D706C657465202D2D20D5
:101CD0002564204572726F72730D0A002046FF3032
:101CE0001730FFF702FC641CB442F7D970BD70B521
:101CF00005460E46002411E03046E040C007C00F04
:101D0000002805D02046FF30C530FFF7FDFB04E07A
:101D10002046FF30C530FFF7E8FB641C042CEBDDE8
:101D2000002411E02846E040C007C00F002805D07D
:101D30002046FF30CA30FFF7E7FB04E02046FF30C3
:101D4000CA30FFF7D2FB641C042CEBDD70BD70B50C
:101D500005460E46002411E03046E040C007C00FA3
:101D6000002805D0FF215931081BFFF7CDFB04E007
:101D7000FF215931081BFFF7B8FB641C042CEBDD75
:101D8000002411E02846E040C007C00F002805D01D
:101D9000FF215431081BFFF7B7FB04E0FF2154314A
:101DA000081BFFF7A2FB641C042CEBDD70BD70B5B3
:101DB00005460E46002411E02846E040C007C00F4B
:101DC000002805D02046FF30E630FFF79DFB04E0F9
:101DD0002046FF30E630FFF788FB641C042CEBDD67
:101DE000002411E03046E040C007C00F002805D0B5
:101DF000FF211631081BFFF787FB04E0FF21163196
:101E0000081BFFF772FB641C052CEBDD70BDF8B5F9
:101E1000F94C650DF948006A2040F8490862084607
:101E2000C06B2840C8630846006AF549A1430843CF
:101E3000F2490862F3484862F3488862F348C8628E
:101E4000F3480863F3484863F34888630846C06B67
:101E5000F249A9430843E949C863FF20A930FFF7C5
:101E600044FBFF20AA30FFF74FFB3F210846FFF756
:101E70009EFF07210846FFF75EFE00210846FFF798
:101E800036FF00210846FFF762FF0020FFF72DFB19
:101E90000120FFF72AFB6020FFF727FBFF2010300F
:101EA000FFF723FBFF20EC30FFF71FFB6420FFF759
:101EB0001CFB6520FFF719FB6620FFF716FB61206E
:101EC000FFF722FB0020D6490860D648D6490860B3
:101ED0006720FFF719FB0B260227F002F9010843E0
:101EE000D249086005200090D14900980860FF2081
:101EF0000E30FFF7FAFAFF200F30FFF7F6FA002056
:101F0000FFF72AFDF020FFF7FFFA5D20C000FFF782
:101F1000FBFAC848FFF7F8FAC648401CFFF7F4FA86
:101F20000120C5490860F8BD70B5C44C650DB348C3
:101F3000006A2040B14908620846C06B2840C86367
:101F40000846006ABE49A1430843AC490862AD484F
:101F50004862AD4840308862BA48C862BA480863EF
:101F6000BA484863BA4888630846C06BB949A94370
:101F70000843A249C8630020FFF7C6FA0120FFF713
:101F8000C3FA0D20FFF792FD2620FFF7A6FD502093
:101F9000FFF7BAFDEE20FFF7B7FAEF20FFF7B4FA2C
:101FA000FF200E30FFF7A1FAFF200F30FFF79DFA58
:101FB0008420FFF7A9FA05269D4806600A21002023
:101FC000FFF795FE0020FFF7C7FCF020FFF79CFA13
:101FD00001204003A0490860F002086070BD10B500
:101FE0000A467F2383435901844B9B6F9B4C2340BC
:101FF000824CA36723469B6F0B43A36710BD7F22D0
:10200000824351037D4A926F7F235B039A437B4B4C
:102010009A671A46926F0A439A67704710B5F02381
:10202000034019090207754B9B6F1B091B01734C79
:10203000A36723469B6F0B43A3672346DB6F1B01FC
:102040001B09E3672346DB6F1343E36710BD00B54D
:102050007D20C000FFF758FA8148FFF755FA804805
:10206000401CFFF751FA7E48801CFFF74DFA802094
:102070007C4908607F20FFF7D1FF3F20FFF7BFFFBB
:1020800000217F20FFF7ABFF00BD70B503460024A1
:1020900000200325AD021D402C010F252D031D40FE
:1020A0002D0B28433F252D011D4028439502284331
:1020B000CD0228431D072D0C2843E5436A4E3560A9
:1020C000C5436A4E356070BD002824D14B49C96FA5
:1020D00004221143494AD1671146C96F0222914334
:1020E000464AD1671146803109680122D20711435F
:1020F000424A803211604149C96F49084900803A1B
:10210000D1671146803109680722120711433B4A03
:1021100080321160F6E0012822D13849C96F0222CD
:102120001143364AD1671146C96F04229143334A9D
:10213000D167114680310968C20711432F4A8032A6
:1021400011602E49C96F8143803AD16711468031B1
:102150000968072212071143284A80321160D1E032
:10216000022823D12549C96F04221143234AD1678C
:102170001146C96F02229143204AD167114680312E
:1021800009684A0052081D4980310A608039C96FC8
:1021900001221143194AD16711468031096807228B
:1021A00012071143154A80321160ABE003285FD15A
:1021B0001249C96F04221143104AD1671146C96FF1
:1021C000022291430D4AD167114680310968C20746
:1021D00011430A4A803211600849C96F4908490011
:1021E000803AD167114680310968012292079143F4
:1021F000024A8032116085E00000FCFF44040020A8
:10220000E0FF5040882142003100048881403B11AA
:1022100002817E024448ED0300000160032EE0FFCE
:10222000000038520FA0000000003C5200000C5289
:1022300000002452E9020000000040520000FEFFAE
:10224000F0FF000081400C100281180044C87F019B
:10225000010001700008E0FF0000105217F0FFFFBE
:10226000E903000000002C52000014520000185234
:10227000042822D1F849C96F04221143F64AD167D4
:102280001146C96F02229143F34AD167114680314A
:10229000096842071143F04A80321160EE49C96F64
:1022A00049084900803AD167114680310968C20661
:1022B0009143E94A8032116024E0052822D1E649A1
:1022C000C96F04221143E44AD1671146C96F022243
:1022D0009143E14AD167114680310968C207114331
:1022E000DD4A80321160DC49C96F49084900803AF3
:1022F000D167114680310968032252079143D64ABB
:1023000080321160704710B50A467F23834359011C
:10231000D14B9B6F7F246403A343CF4CA367234619
:102320009B6F0B43A36710BD10B5044600213F20EF
:10233000FFF7E9FF0420FFF7C7FE01221146FF2047
:10234000E130FFF7A2FEFD208000FFF7DDF810BDB1
:1023500070B503460C467F25292676063560BF4DAD
:102360002868BF4D29680D042D181D60BD4D2868D3
:10237000BD4D29680D042D182560BC4D2868BC4D45
:1023800029680D042D18156000253560B94D35609C
:1023900070BDB9480068012189020840002804D0B6
:1023A000B54800888005800D70470020FCE7B348E1
:1023B00000787047B24800780007000F7047F0B50A
:1023C00005460E461746002411E028462041C00766
:1023D000C00F002805D0FF21B031081BFFF794F88B
:1023E00004E0FF21B031081BFFF77FF8641C042CC8
:1023F000EBD9002411E030462041C007C00F00286F
:1024000005D0FF21B631081BFFF77EF804E0FF215D
:10241000B631081BFFF769F8641C042CEBD9012FB7
:1024200003D19848FFF770F802E09648FFF75DF88F
:10243000F0BD70B505460E46002411E03046E04080
:10244000C007C00F002805D08E4990316018FFF7F3
:102450005BF804E08B4990316018FFF746F8641C84
:10246000032CEBDDF006C00F002804D08548943023
:10247000FFF73BF803E083489430FFF745F800246A
:1024800011E02846E040C007C00F002805D0D72142
:1024900089006018FFF738F804E0D7218900601838
:1024A000FFF723F8641C012CEBDD022411E0284621
:1024B000E040C007C00F002805D072499331601872
:1024C000FFF713F804E06F4993316018FFF71CF829
:1024D000641C042CEBDD70BD28206B4908602020B3
:1024E0000860704710B500210022252126E0002257
:1024F00021E08B00584CE358012494402340002BEA
:1025000001D1212000E020205F4B18600224034607
:10251000A34318465C4B1860042318435A4B1860B9
:1025200004240346A3431846574B1860022318435C
:10253000554B1860521C202ADBDB491E0029D6DAD5
:1025400010BDF7B584B00546E806C00E03900598A7
:10255000C006C00E02900698C006C00E01900398F7
:10256000FEF7ABFF00900298FEF7A7FF0646019822
:10257000FEF7A3FF04460023002700BF00BF00981A
:1025800000907820204040020343F000034300986D
:10259000C008034380202040C0090743304803603F
:1025A0003A48076007B0F0BDF0B585B00546002693
:1025B0000027172003908C2002902846029900F0F3
:1025C00004FB1330C0B200902846029900F0FDFAD7
:1025D0000D462846039900F0F8FA41004018C0194A
:1025E000C0B201902846039900F0EFFA022800DB00
:1025F00000BF2846039900F0E8FA8819C4B20F2CEE
:1026000000DD641C224601990098FFF79AFF05B08F
:10261000F0BD01460020CA07120E104302220A40F4
:102620005201104304220A40D200104308220A40FB
:102630005200104310220A405208104320220A4040
:10264000D208104340220A405209104380220A4017
:10265000D2091043704700004404002000001852C3
:1026600000001C520000285200002C520000305282
:1026700000003452FF3F000000004052000054525E
:1026800000003C52D60200000000585200002052C8
:10269000F0B585B006460C4615461F46B54886611E
:1026A000183044608560C760B24918310A980861E3
:1026B000B0488068B049084003463046FFF7A9FF9C
:1026C0000006C00E04902046FFF7A3FF0006C00ED0
:1026D00003902846FFF79DFF0006C00E0290384683
:1026E000FFF797FF0006C00E01900A98FFF791FFD1
:1026F0000006C00E0090049880060343039840052E
:1027000003430298000403430198C0020343009866
:1027100080010343202003439648836005B0F0BD49
:1027200038B5FEF71DFEFDF725FFFEF791F8FEF721
:10273000BBFDFEF7E9FF00231A4619461846FEF7CF
:1027400047FF0023062211461046FEF7ECFE00204C
:10275000FEF7B9FF8948FEF796FF8948FEF7D4FED9
:10276000844AD16A106BFFF764FE8548001DFEF7AE
:10277000CBFE8448FEF7C8FE3120FEF7C5FE3020B0
:10278000FEF7C2FE2F20FEF7B0FE2E20FEF7BCFEA5
:102790002D20FEF7AAFE2C20FEF7B6FE2B20FEF71A
:1027A000B3FE2A20FEF7B0FE75480930FEF7ACFEF6
:1027B00074484630FEF7A8FE2920FEF7A5FE022445
:1027C00003E02046FEF7A0FE641C092CF9DBFFF7AE
:1027D0001EFBFFF73CFC674A916C506C0022FFF730
:1027E000EEFD6448C06B00906248836B1F21426B12
:1027F0000846FFF74DFF62482138FEF785FE614825
:102800009130FFF7D1FE7D200001FFF78DFDFFF72E
:1028100069FEFFF761FE38BDF8B5002029214906A1
:10282000086059480860012700E07F1C574887422C
:10283000FBDB7F202921490608605548046855487C
:1028400005682804061908460468534805682804E2
:10285000001900907003009900F0ADF9F8BD18B5AB
:10286000444818300069434C18340090E368A2686B
:102870006168183CA069FFF70BFF18BD70B50346EF
:102880000C467F25292676063560414D2868414D46
:1028900029680D042D181D60404D2868404D296899
:1028A0000D042D182560354628683B4D29680D0418
:1028B0002D18156000253560334D356070BD10B59D
:1028C00000210BE003689B0F0468E40E6340DA0705
:1028D000D20F03685B0013430360491C0829F1DB36
:1028E00010BD24488038806F0121090588432149A3
:1028F0008039886770471F488038806F012109053B
:1029000008431C498039886770471A488038006C32
:102910000921C9068843174980390864704715485A
:102920008038006C0921C9060843124980390864BF
:102930007047104800680121C90408430D49086028
:1029400070470C4800680121C904884309490860A0
:102950007047084800680321490488430549086016
:10296000704704480068032149040843014908608E
:1029700070470000C40400201F000080FFFF00001B
:102980007B04000029020000FF3F000050C300004C
:102990000000185200001C52000004520000205297
:1029A00000002452704700000FB4054910B503AA77
:1029B000029800F009FA10BC08BC04B018470000E7
:1029C00000000020F8B50E46044600202062204694
:1029D000E1688847002829D0252802D06268A168CC
:1029E00020E0E16820460027884705001ED02846E1
:1029F0004138192802D80127FF02203532462046E7
:102A000027602946FDF77AFB002808D0012804D06A
:102A1000F61DF608F6000836D9E7361DD7E76268D6
:102A20002846A1689047206A401CCFE7206AF8BD7D
:102A3000F7B5002575291068009914A611D0C04675
:102A4000C046002802DA404211A608E00099096851
:102A50008A0701D50FA602E0490704D50EA6012575
:102A600001E0C046C046009F0024243704E000F087
:102A7000BFF930313955641C0028F8D12B46324655
:102A80002146009800F048F9FEBD0000000000005B
:102A90002D0000002B0000002000000070B504464F
:102AA0000D4621461068C046C0462188090502D55A
:102AB0000F4A7A4402E00E4A7A440E32234600213D
:102AC000243305E006070009360F965D5E54491C65
:102AD0000028F7D120780023000705D5702D03D0FA
:102AE000002901D002231132204600F015F970BDF3
:102AF00086040000F8B5042A2CD3830712D00B7883
:102B0000491C0370401C521E83070BD00B78491CD4
:102B10000370401C521E830704D00B78491C0370BD
:102B2000401C521E8B079B0F05D0C91ADF002023C3
:102B3000DE1B08C90AE0FDF701FBF8BD1D4608C908
:102B4000FD401C46B4402C4310C0121F042AF5D28D
:102B5000F308C91A521EF0D40B78491C0370401CAC
:102B6000521EEAD40B78491C0370401C012AE4D49D
:102B700009780170F8BD01E004C0091F0429FBD2E7
:102B80008B0701D50280801CC90700D002707047F6
:102B900000290BD0C30702D00270401C491E022935
:102BA00004D3830702D50280801C891EE3E700223C
:102BB000EEE70022DFE7002203098B422CD3030A51
:102BC0008B4211D300239C464EE003460B433CD47A
:102BD000002243088B4231D303098B421CD3030AE2
:102BE0008B4201D394463FE0C3098B4201D3CB0112
:102BF000C01A524183098B4201D38B01C01A524142
:102C000043098B4201D34B01C01A524103098B4245
:102C100001D30B01C01A5241C3088B4201D3CB0030
:102C2000C01A524183088B4201D38B00C01A524113
:102C300043088B4201D34B00C01A5241411A00D2C3
:102C400001465241104670475DE0CA0F00D049422C
:102C5000031000D34042534000229C4603098B429C
:102C60002DD3030A8B4212D3FC22890112BA030A24
:102C70008B420CD3890192118B4208D389019211A6
:102C80008B4204D389013AD0921100E08909C3092B
:102C90008B4201D3CB01C01A524183098B4201D32D
:102CA0008B01C01A524143098B4201D34B01C01A18
:102CB000524103098B4201D30B01C01A5241C30890
:102CC0008B4201D3CB00C01A524183088B4201D3FF
:102CD0008B00C01A5241D9D243088B4201D34B001A
:102CE000C01A5241411A00D20146634652415B105C
:102CF000104601D34042002B00D54942704763463D
:102D00005B1000D3404201B50020C046C04602BD62
:102D10007047704770477047FFB504460D4681B055
:102D2000243000902168880604D51022E069914380
:102D3000216000E00120A84201DD471B00E00027E0
:102D40000498A1697A191018081AA0612078C006A1
:102D500002D42046C046C046002608E003986268B8
:102D6000A168805D9047206A401C761C2062049810
:102D70008642F3DB2078C0060AD52046C046C0460E
:102D800006E06268A16830209047206A401C2062FB
:102D900038467F1E0028F4DC07E000986268A168CE
:102DA000405D9047206A401C206228466D1E002826
:102DB000F3DC2046C046C0462078000602D502203B
:102DC00005B0F0BD0120FBE7084B70B50D467B4414
:102DD00000F027F804462846FDF7B3FB002802D090
:102DE0000020C04370BD204670BD000047D7FFFFE4
:102DF00001468008081A02091018020A1018020C6D
:102E00001018C008820012185200891A01E0401CF4
:102E10000A390A29FBD2704701694A1C0261087805
:102E2000704700B58FB002910021059105490193CB
:102E300079440391114604906846FFF7C3FD0FB033
:102E400000BD0000E5FFFFFF754600F025F8AE4627
:102E5000050069465346C008C000854618B020B535
:102E6000FDF742FB60BC00274908B6460026C0C5F6
:102E7000C0C5C0C5C0C5C0C5C0C5C0C5C0C5403D32
:102E800049008D46704710B50446C046C0462046EE
:102E9000FDF74EF910BD00000048704710050020F6
:102EA000746573742E00000022038803A1030D01D2
:102EB000B503B20171014202C701CA038B002901A7
:102EC0004B026D0075019F00210385039C030B01DC
:102ED000AC03AD016C013902BF01B70388002201C8
:102EE0003C026A006A019A001F0000001F000000F7
:102EF0001D00000002000000020000006B046D04D1
:102F00006F0471047404760478047A045B045D042D
:102F10005F0461046404660468046A046C046E045B
:102F20007004720473047504770479045C045E040D
:102F30006004620463046504670469043031323359
:102F400034353637383941424344454640305800DD
:102F5000303132333435363738396162636465660F
:102F600040307800842F0000000000205000000056
:102F7000C4000000D42F00005000002020110000E9
:102F8000E0000000000000510000005100000000BF
:102F900000000000000000000000000004102540B8
:102FA0005760574025100400F4010000F4010000B0
:102FB000F4010000F4010000F4010000F40100003D
:102FC000F4010000F4010000F4010000F40100002D
:042FD00000000000FD
:0400000500000000F7
:00000001FF
