:020000040000FA
:1000000090110020490400000000000000000000E2
:1000100000000000000000000000000000000000E0
:1000200000000000000000000000000000000000D0
:1000300000000000000000000000000000000000C0
:1000400053040000A30400001B0500006704000027
:1000500000000000000000007B0400008F0400008E
:10006000F304000007050000000000002F05000059
:10007000B7040000CB040000DF0400000000000013
:1000800000F002F800F050F80CA030C8083824182E
:100090002D18A246671EAB4654465D46AC4201D1C0
:1000A00000F042F87E460F3E0FCCB64601263342A2
:1000B00000D0FB1AA246AB4633431847D42F0000AA
:1000C000F42F0000103A02D378C878C1FAD852074A
:1000D00001D330C830C101D504680C6070470000FE
:1000E0000023002400250026103A01D378C1FBD854
:1000F000520700D330C100D50B60704710B564299A
:1001000002D102F0B7FC10BD752902D102F0B2FC99
:1001100010BD782902D102F0E3FC10BD002010BD13
:100120001FB51FBD10B510BD02F0B0FE1146FFF7A0
:10013000F7FF00F06FF802F0C8FE03B4FFF7F2FF1C
:1001400003BC00F036FA000070B505460C461646B2
:1001500002E00FCC0FC5103E102EFAD2082E02D3AB
:1001600003CC03C5083E042E07D301CC01C5361FBE
:1001700003E021782970641C6D1C761EF9D270BDD5
:1001800001217148C17070471FB504466E48401C7C
:10019000431E7F22811E0090813800F02EFC00F06B
:1001A00042FC69482038C07F162827D100F028FD7E
:1001B000002823D000F027FD6349886000F027FD68
:1001C0006149C8600846807D497D5F4A127D5E4B6B
:1001D000803BDB7800930192029103905A4880386B
:1001E000837842780178594802F000FC0021564893
:1001F0002038C1777F21603802F0FDFC00F0DBFB86
:1002000000F0F0FB0021504801711FBD01224E4952
:100210000A71704798214C48803802F0ECFC4CA0E1
:1002200002F0E4FB02F08CFA4D4800F06EFB4D4802
:1002300000F06EFB4C4800F0B4FF00F0DCFC00F076
:10024000C7FF4AA002F0D2FB4EA002F0CFFB5548F8
:10025000816B002001F03EFA05465248C06BA8426F
:1002600003D151A002F0C2FB04E052A002F0BEFB99
:1002700000BFFEE75FA002F0B9FB00F09CFB00F0BE
:10028000B5F900BF00F0AFF90028FBD061A002F083
:10029000ADFB00F0A7FC56E015212B4801754EE0A0
:1002A00000212948417540E000212748817532E04E
:1002B0002548837D427D017D5AA002F097FB0024F2
:1002C00021E000BF204800790128FBD000F0ABFB03
:1002D0001D4B9A7D597D187D02F0CAF900F06BFB29
:1002E00000F080FB00F070FF56494618304600F0E1
:1002F00063FF00211448C17000BF1348C078002874
:10030000FBD0601CC4B2012CDBDB0F48807D401C9D
:10031000C1B20D4881750C48807D2028C8DB0A4891
:10032000407D401CC1B2084841750748407D2028E7
:10033000BADB0548007D401CC1B203480175024884
:10034000007D1728ACDBA7E7D0000020A02F00001D
:10035000496E697469616C697A696E672E2E2E0028
:100360000D02000089010000810100000D0A2D2D01
:100370002D2D2D2D2D2D2D2D2D2D2D2D2D2D2D2DAD
:100380002D0D0A0056616C69646174696E67207096
:10039000726F6772616D20696E74656772697479D6
:1003A0002E2E2E00C0FF0000435243204F4B0D0A5B
:1003B000000000000D0A50726F6772616D6D696E0A
:1003C00067204572726F72202D2043524320444FA4
:1003D0004553204E4F54204D41544348202D204832
:1003E000616C74696E6720457865637574696F6EBA
:1003F0000D0A000043616C6962726174696E672066
:100400006672657175656E636965732E2E2E0D0AB1
:100410000000000043616C20636F6D706C65746553
:100420000D0A0000636F617273653D25642C206DB9
:100430006964646C653D25642C2066696E653D25A4
:10044000640D0A004C1D00004149424808604248C2
:10045000004701B5012080F3108800F07FFE0020E6
:1004600080F3108801BD01B5012080F3108800F0F1
:10047000FDFD002080F3108801BD01B5012080F34F
:10048000108800F0FEFC002080F3108801BD01B54B
:10049000012080F3108800F0A4FE002080F3108873
:1004A00001BD01B5012080F3108800F0F3FD0020AC
:1004B00080F3108801BD01B5012080F3108800F0A1
:1004C000EEFD002080F3108801BD01B5012080F30E
:1004D000108800F0E9FD002080F3108801BD01B50F
:1004E000012080F3108800F0E4FD002080F31088E4
:1004F00001BD01B5012080F3108800F05EFD0020F1
:1005000080F3108801BD01B5012080F3108800F050
:100510000BFD002080F3108801BD01B5012080F3A0
:10052000108800F068F8002080F3108801BD01B544
:10053000012080F3108800F05FF8002080F310881D
:1005400001BD000005480649064A074B70470000F8
:1005500000E100E0000000008100000090050020A4
:1005600090110020900900209009002051210906D7
:100570000870704710B503460C461846FFF7F6FFA3
:1005800010BD10B55124240623781846FFF7EEFF5E
:10059000184610BD10B50446FFF7F3FF10BD014625
:1005A0000020704710B5044604492046FFF7E2FFDB
:1005B00010BD03A002F01AFA00BFFEE70000002001
:1005C0000D0A5445535420444F4E450D0A00000077
:1005D00010B52021994802F00EFB9948974988618F
:1005E0009848C86110BD9548407870470120C00206
:1005F0009549086070477047F0B593B000F0BAFFB6
:100600000C9000F0BBFF0B9000F0BCFF0A9000F0D4
:10061000BDFF054600F0BEFF064600F0BFFF099093
:1006200000F0C0FF089000F0C1FF07467F2029219D
:100630004906086081480078401C804908702920DC
:1006400040060068129081480068119011980104DA
:10065000129808180F907E48006812907D48006834
:10066000119011980104129808180E907A480068A9
:1006700012907A48006811901198010412980C1891
:10068000774800681290774800681190119801042B
:100690001298081810907448006812907348006807
:1006A000119011980104129808180D90002029212A
:1006B000490608606E4808606048007802287CDDC2
:1006C0006C490E98884202D20C98401E0C906A49E0
:1006D0000E98884202D90C98401C0C900C990B98EB
:1006E00001F075FF0B9800F0F4FE0C9800F0EDFEA1
:1006F000524880691099884204D25048C069401E0F
:100700004E49C8614D48806901461098814204D91C
:100710004A48C069401C4949C8614849C86901F054
:10072000DAFF5648844203D90A98401C0A9009E02F
:100730005348844201D96D1C04E051484138844239
:1007400000D9761C4F48844203D20A98401E0A9072
:100750000AE04B48A038844201D26D1E04E04848AC
:100760005F38844200D2761E2B4600961F21084631
:100770000A9A00F05FFE0A9800F036FE284600F064
:100780002FFE304600F028FE3F490D98884200D9E0
:100790007F1C3E490D98884200D27F1E00223946B8
:1007A000089800F0DFFD089800F0D8FD384600F00A
:1007B000D1FD00F033FD00F02BFD20490D98C969F3
:1007C000109A06970392049105900A982346694669
:1007D00061C12FA00C9A0E9902F008F91748007811
:1007E000192828D1089804970296019503900A9831
:1007F00000901248C36933480C9A0B9902F0F6F83E
:100800000120C00210498031086000200B490870A7
:10081000012048700F984860084684600D98C860B1
:10082000109808610E98486127A002F0DFF80020B8
:1008300029214906086013B0F0BD0000E80000203F
:1008400094D10300BA02000000E100E0000004526D
:1008500000001052000014520000185200001C52F8
:100860000000285200002C52000030520000345288
:10087000FF3F0000C8781E0038901E00980F03004C
:10088000900D0300E80A0300786F180088641800D0
:1008900048463D25642D2564202020324D3D2564A9
:1008A0002D25642C25642C25642020204C433D25D7
:1008B000642D256420202049463D25642D25640DA6
:1008C0000A000000EC2F0000646F6E650D0A000046
:1008D00010B5FF219931FB4802F08DF9FA49FB4828
:1008E0004165C91F41610F21803081824020F84954
:1008F00008601F20890548610820086210BDF14981
:1009000008607047EF4948607047EE49886070475B
:10091000EC49C8607047102081060860704710B528
:10092000044621460B398A00E8491431885801F001
:10093000D2FE10BD10B5044621460B398A00E349AA
:100940005431885801F0C7FE10BD70B505460C46FD
:100950000B21DE480174012C02D0022C0AD104E0E4
:10096000DA49087CFFF7E6FF05E0D849087CFFF785
:10097000D6FF00E000BF00BF70BD70B505460C4655
:1009800022462946CF48103002F0D6F8CD48103024
:100990000121890788600846C4600120086070BD95
:1009A0000620CC4908602820CB4908607047022007
:1009B0004107086070471820C74908600120C549F1
:1009C0000860C2487038412109064861102081063C
:1009D0000860704710B5C1A002F008F80020BE49B9
:1009E000086010BD01204003C24908600520C00214
:1009F00008600420010708607047F8B507460C46F8
:100A000015461E463120C0433070AE488030007C11
:100A100020702078A84205DC2278AC496F3938462E
:100A200002F08AF8F8BD01204003B24908600020B6
:100A3000A94908607047F7B584B000BF00F0B2FD67
:100A4000019000F0B3FD00909E488030007C029041
:100A50009E488030C08A401C81B29C488030C18250
:100A60000025029AD100A44B069A5A43104602F080
:100A7000CEF80390092407E06000A049095A601CE1
:100A800040009E4A1152641E002CF5DA039800B211
:100A90009A490880002407E060009849085E984958
:100AA000095D48434519641C0A2CF5DD2846E91701
:100AB000C90D09184F1285488030C18A808A814249
:100AC00016D17D20C000874207DD0098421C0146F8
:100AD00000920022019800F045FC8A48874207DA1C
:100AE0000098421E014600920022019800F03AFC54
:100AF000019800F033FC009800F02CFC00250598CC
:100B000019286DD2092407E0A0007F490958601C0C
:100B100080007D4A1150641E002CF5DA7A49049851
:100B20000860002407E0A000774908587449095D6F
:100B300048434519641C0A2CF5DD2846E917C90D00
:100B400009184E1261488030C18A808A814247D19B
:100B50004120C00086421DD95C48007C0B388100D2
:100B60005A4814304058401C5849097C0B398A00B7
:100B70005649143188505548007C0B388100534841
:100B800054304058401C5149097C0B398A004F4968
:100B900054318850FF20E13086421DD24B48007C02
:100BA0000B388100494814304058401E4749097CA1
:100BB0000B398A004549143188504448007C0B3871
:100BC0008100424854304058401E4049097C0B394E
:100BD0008A003E495431885000213C488030C1820F
:100BE00007B0F0BD40203A4908601C2089054861E3
:100BF00008200862704740203549803108607047FE
:100C00003248407C704710B501F0CBFC10BD3F4826
:100C1000006870473E48008800B27047F1B5A2B046
:100C2000402112A801F0E7FF442101A801F0E3FFF1
:100C3000264922984861002484E0A2002349143107
:100C4000885801F048FD00202921490608603148F4
:100C50000860012700E07F1C7D20C0018742FAD395
:100C60007F202921490608601B4805682A48066834
:100C700030044019A10012AA5050611C4900124AC8
:100C8000FE328918129A514308460F49FE3101F08D
:100C9000B4FF611C890001AA5050002C47DDA00060
:100CA00012A90958A00010581438814236D2A10068
:100CB000064814304058401CA200044914318850A2
:100CC00035E00000B0020020C3020000B0030020A5
:100CD00000E100E000004052000028524F707469AB
:100CE00063616C20726164696F20656E61626C651E
:100CF000210D0A0000001052093D0000980200205A
:100D00001800002018FCFFFF2400002000005452AF
:100D100000006452FF3F000000002C52A100BF48B9
:100D200040582830611C8A00BC498850641C002C43
:100D300008D1A100B94840582830611C8A00B74941
:100D40008850641C102C00DA77E7002400E0641C53
:100D5000102CFCDB129823B0F0BDF0B5B3B0054603
:100D60000E460024402121A801F045FF442110A88F
:100D700001F041FF2022AA4908A8FFF7E5F9202247
:100D8000A74920316846FFF7DFF9A44814384565C4
:100D90004FE0A200A1494031885801F09CFC00209E
:100DA0002921490608609F4808600120319002E02F
:100DB0003198401C31907D21C90131988842F7DB80
:100DC0007F202921490608609748076897480068EE
:100DD000329032980004C019A10021AA505062003C
:100DE0006B46995A620008AB9A5A7243104601F05A
:100DF00004FFA10010AA5050A00021A90958A0008A
:100E00001058401F814209D2A10084484030405808
:100E1000401CA2008149403188500AE0A1007F486F
:100E2000403040582830611C8A007C49403188504D
:100E3000641C102CADDB33B0F0BD70B50446204609
:100E4000FFF7ECFE05467A4800F02CFAFF202B3025
:100E500000F019FAFF20343000F015FAFF20F930C5
:100E600000F020FAFF20FB3000F00DFAFF20FD30EB
:100E700000F009FA29462046FFF76FFFFFF7D3FD80
:100E800070BD70B5012080070469C5690121634800
:100E900014384174002D08D008202840002803D0C1
:100EA00000215E481438417400BF0120800745626C
:100EB00002202040002809D05E480068002805D0A4
:100EC0002122520650685B4A11688847042020405E
:100ED000002809D057484068002805D02122520632
:100EE0005068544A5168884708202040002809D09B
:100EF00050488068002805D02122520650684D4A8B
:100F00009168884710202040002809D04948C068CF
:100F1000002805D0212252065068464AD1688847E9
:100F200001208007846170BD70B54348056843485F
:100F3000066830044019424909688900414A505006
:100F40003F480068401C3E4908603F480068202137
:100F500008433D490860084600683C4908603A4833
:100F600000682021884338490860084600683749EE
:100F70000860334800680A281ED1012406E0A0005A
:100F8000304A115832A001F031FD641C0A2CF6D30E
:100F9000FF2001303049086040002F498039086047
:100FA000002027490860002400E0641C2B4884428C
:100FB000FBD32B482B49C86070BD10B5224A12687C
:100FC00060231A43204B1A601A4612681F4B1A609E
:100FD0001D4A126860239A431B4B1A601A46126816
:100FE0001A4B1A60012252021B4B803B1A605210AE
:100FF000194B1A6052001C4B1A600F4A10680F4AB6
:1010000011680A0412180E4B1B689B000D4CE2502D
:101010000B4A1268521C0A4B1A6010BDC403002010
:10102000E42E0000FF3F00000000285200002C5278
:10103000CB030000B00200200000445200004852E0
:1010400008000020080100201400002000000C52BD
:1010500025580D0A0000000080E100E01027000084
:101060000400FA0500ED00E080E200E010B502A007
:1010700001F0BCFC10BD000061646320696E746502
:101080007272757074207472696767657265640D39
:101090000A00000010B509A001F0A8FC10BD10B5B1
:1010A00010A001F0A3FC10BD10B518A001F09EFC2B
:1010B00010BD10B51FA001F099FC10BD45787465F6
:1010C000726E616C20496E7465727275707420471F
:1010D00050494F33207472696767657265640D0A01
:1010E0000000000045787465726E616C20496E7472
:1010F000657272757074204750494F382074726958
:101100006767657265640D0A0000000045787465C4
:10111000726E616C20496E746572727570742047CE
:1011200050494F39207472696767657265640D0AAA
:101130000000000045787465726E616C20496E7421
:10114000657272757074204750494F313020747247
:10115000696767657265640D0A00000010B502A03A
:1011600001F044FC10BD000075617274207278209B
:10117000696E7465727275707420747269676765E0
:101180007265640D0A0000001E4800210160416084
:101190008160C160481E21214906886007200860DF
:1011A00070471849086070470320212149060863E9
:1011B000802015490860704700B50246FFF7F4FF2C
:1011C00021204006026100BD212040064068704792
:1011D000002021214906086380200B4980310860E6
:1011E000704710B50948046BE007C00F002806D00F
:1011F00004480068002802D0024908688047034874
:10120000446310BD4804002000E100E040000042BB
:101210002820FE49086020200860704710B5002192
:101220000022252126E0002221E08B00F84CE35823
:10123000012494402340002B01D1212000E02020F4
:10124000F24B186002240346A3431846EF4B186084
:1012500004231843ED4B186004240346A3431846A7
:10126000EA4B186002231843E84B1860521C202AEE
:10127000DBDB491E0029D6DA10BD00B5FFF7CEFF33
:10128000FFF7C6FF00BD10B541098A00E04B9A5830
:101290004B01C41A0123DB07E3401A438B00DC4CEB
:1012A000E25010BD10B541098A00D94B9A584B0144
:1012B000C41A0123DB07E3409A438B00D44CE2506D
:1012C00010BD00B53220FFF7DEFF3320FFF7DBFF54
:1012D0003420FFF7E7FF3520FFF7D5FF3620FFF773
:1012E000D2FF3720FFF7CFFF3820FFF7CCFF3920A0
:1012F000FFF7C9FFFFF7C1FF00BD00B53220FFF7C0
:10130000D1FF3320FFF7CEFF3420FFF7CBFF35208E
:10131000FFF7C8FF3620FFF7C5FF3720FFF7C2FFF2
:101320003820FFF7BFFF3920FFF7BCFFFFF7A5FF0D
:1013300000BD10B5B7A001F059FBFFF73CFBFFF76C
:1013400055F900BFFFF74FF90028FBD0B9A001F015
:101350004DFB10BDAE49803188647047AC49803187
:1013600048647047F0B505460E461746002411E064
:1013700028462041C007C00F002805D0FF21B0310A
:10138000081BFFF780FF04E0FF21B031081BFFF7C7
:1013900089FF641C042CEBD9002411E03046204165
:1013A000C007C00F002805D0FF21B631081BFFF78A
:1013B0006AFF04E0FF21B631081BFFF773FF641CCE
:1013C000042CEBD9012F03D1A248FFF75CFF02E008
:1013D000A048FFF767FFF0BD8D498031C8637047B3
:1013E0008B498031886370478949803148637047F1
:1013F00001460020CA07120E104302220A40520181
:10140000104304220A40D200104308220A4052002E
:10141000104310220A405208104320220A40D208EA
:10142000104340220A405209104380220A40D20948
:1014300010437047F0B585B006460C4615461F466A
:10144000734880308661183044608560C760704999
:1014500098310A9808610846183880687E49084023
:1014600003463046FFF7C4FF0006C00E0490204636
:10147000FFF7BEFF0006C00E03902846FFF7B8FF37
:101480000006C00E02903846FFF7B2FF0006C00EFD
:1014900001900A98FFF7ACFF0006C00E0090049878
:1014A0008006034303984005034302980004034366
:1014B0000198C002034300988001034320200343A6
:1014C00053488030836005B0F0BD51498031C86217
:1014D00070474F49803108637047FFB581B00D46B2
:1014E0001C460B9F0A9E5DA001F080FA0198FFF751
:1014F000F0FF2846FFF7E9FF334622461F21084642
:101500000097FFF797FF2046FFF76EFF3046FFF783
:1015100067FF3846FFF760FF00220D990C98FFF730
:1015200021FF0C98FFF71AFF0D98FFF713FFFFF745
:10153000A4FE57A001F05AFA05B0F0BD10B5CC21B9
:10154000334801F058FB112131488030C16203213A
:101550000163152141630F218163C1635449016413
:101560001621416412218164142252491830FEF779
:10157000EBFD10BD26488030C06A7047244880309B
:10158000006B704722488030406B704720488030A5
:10159000806B70471E488030C06B70471C4880309D
:1015A000006C70471A488030406C70471848803093
:1015B000806C7047164980310864704710B5044646
:1015C000982221461248FEF7BFFD10BD3A4901405E
:1015D00049004208384B1A40114308463749014038
:1015E00089008208354B1A401143084634490140AE
:1015F00009010209324B1A40114308460106FF2235
:101600001202024012021143020A5BE0000058522B
:101610005804002043616C6962726174696E6720CE
:101620006672657175656E636965732E2E2E0D0A7F
:10163000000000004F70746963616C2063616C6925
:1016400062726174696F6E20636F6D706C65746532
:101650000D0A0000D60200001F0000807573696E3D
:1016600067206D616E75616C6C7920736574206F95
:1016700070746963616C2063616C69627261746922
:101680006F6E2073657474696E67730A00000000E2
:101690004D616E75616C2063616C69627261746921
:1016A0006F6E20636F6D706C6574650D0A000000CD
:1016B000006A1800242F0000555555553333333335
:1016C0000F0F0F0FFF231B021A401143020E11438D
:1016D00008467047F3B500256C1E16E00098465D7D
:1016E0003046FFF773FF064600270BE020467040A8
:1016F000002804DA6000F7494840044600E064002E
:1017000076007F1C072FF1DD6D1C01988542E5D323
:10171000E043FFF75BFFFCBDF02101400911020728
:10172000120E11430846CC21014089103322024099
:10173000920011430846AA21014049105522024057
:101740005200114308467047FFB505460E4617463E
:1017500000240FE028462041C007C00F002804D015
:101760002046F530FFF78FFD03E02046F530FFF708
:1017700099FD641C032CEDDD00240FE03046204170
:10178000C007C00F002804D02046F930FFF77BFDCA
:1017900003E02046F930FFF785FD641C032CEDDDE6
:1017A00000240FE038462041C007C00F002804D0B5
:1017B0002046FD30FFF767FD03E02046FD30FFF7D0
:1017C00071FD641C032CEDDD00240FE00398204123
:1017D000C007C00F002804D0E01DFA30FFF753FD0A
:1017E00003E0E01DFA30FFF75DFD641C032CEDDD26
:1017F000FFBDFFB505460E46174600240FE02846FC
:101800002041C007C00F002804D0E01DFE30FFF7C4
:101810003AFD03E0E01DFE30FFF744FD641C012C9F
:10182000EDDD002411E030462041C007C00F002844
:1018300005D02046FF300830FFF725FD04E02046A4
:10184000FF300830FFF72EFD641C012CEBDD002477
:1018500011E038462041C007C00F002805D02046BF
:10186000FF300A30FFF70FFD04E02046FF300A305A
:10187000FFF718FD641C012CEBDD002411E0039838
:101880002041C007C00F002805D02046FF300C3093
:10189000FFF7F9FC04E02046FF300C30FFF702FDB3
:1018A000641C012CEBDDFFBD30B589B0054620225C
:1018B000894901A8FEF748FC002411E02846E040D1
:1018C000C007C00F002805D0610001AA505AFFF7D9
:1018D000E9FC04E0610001AA505AFFF7D4FC641C43
:1018E0000F2CEBD909B030BD30B589B005462022A8
:1018F0007949203101A8FEF727FC002411E0284691
:10190000E040C007C00F002805D0610001AA505A6E
:10191000FFF7B9FC04E0610001AA505AFFF7C2FCCE
:10192000641C0F2CEBD909B030BD00B5FF20F63098
:10193000FFF7B8FCFF20F730FFF7B4FCFF20F830CA
:10194000FFF7B0FCFF20F930FFF7ACFCFF20FA30C6
:10195000FFF799FCFF20FB30FFF7A4FCFF20FC30D1
:10196000FFF791FCFF20FD30FFF79CFCFF20FE30CD
:10197000FFF789FCFF20FF30FFF785FC5748FFF792
:1019800082FC01204002FFF77EFC5448801CFFF7D8
:1019900089FC5248C01CFFF785FC5048001DFFF72A
:1019A00072FC81208000FFF76EFC00204C4908602B
:1019B0004C48FFF768FC00BDF3B581B00F4600202E
:1019C0000090019EB800019E8219314646A001F0A8
:1019D0000DF851A001F00AF800240CE0002507E002
:1019E000A00030580121A9408843A10070506D1C0F
:1019F000202DF5DB641CBC42F0D300241DE0002543
:101A000018E0A00030580121A9400840002809D062
:101A1000A00033582A46214645A000F0E7FF009871
:101A2000401C0090A00030580121A9400843A100AB
:101A300070506D1C202DE4DB641CBC42DFD30024FD
:101A40001FE000251AE0A00030580121A9400840FD
:101A50000121A940884209D0A00033582A462146D6
:101A60003FA000F0C3FF0098401C0090A000305839
:101A70000121A9408843A10070506D1C202DE2DB9C
:101A8000641CBC42DDD37C1E1DE01F2518E0A000B5
:101A900030580121A9400840002809D0A00033583F
:101AA0002A4621463AA000F0A1FF0098401C009071
:101AB000A00030580121A9400843A10070506D1EBC
:101AC000002DE4DA641E002CDFDA7C1E96E01F2570
:101AD00091E00000B71DC104382F0000FF01000095
:101AE00000002852920300000D0A0D0A537461721F
:101AF00074696E67205352414D207465737420667B
:101B0000726F6D203078255820746F2030782558FA
:101B10002E2E2E0D0A000000546869732074616B2C
:101B2000657320617768696C652E2E2E0D0A0000A2
:101B30000D0A4552524F5220312040206164647298
:101B400065737320255820626974202564202D2D2B
:101B50002056616C756520697320255800000000CF
:101B60000D0A4552524F5220322040206164647267
:101B700065737320255820626974202564202D2DFB
:101B80002056616C7565206973202558000000009F
:101B90000D0A4552524F5220332040206164647236
:101BA00065737320255820626974202564202D2DCB
:101BB0002056616C7565206973202558000000006F
:101BC000A00030580121A94008400121A9408842C5
:101BD00009D0A00033582A462146FEA000F006FF97
:101BE0000098401C0090A00030580121A940884373
:101BF000A10070506D1E002DE2DA641E002C00DB87
:101C000065E7002416E0002511E0A000305801210E
:101C1000A9400840002809D0A00033582A46214690
:101C2000F8A000F0E3FE0098401C00906D1C202DF1
:101C3000EBDB641CBC42E6D3FEA0009900F0D6FEAC
:101C40000098FEBD30B50546002411E0284620412D
:101C5000C007C00F002805D02046FF30ED30FFF749
:101C600012FB04E02046FF30ED30FFF71BFB641C45
:101C7000062CEBD930BD30B5054600240FE02846D0
:101C80002041C007C00F002804D0F349081BFFF70C
:101C9000FAFA03E0F049081BFFF704FB641C042C6C
:101CA000EDD905240FE028462041C007C00F0028C9
:101CB00004D0E949081BFFF7F5FA03E0E649081BE1
:101CC000FFF7E1FA641C062CEDD930BD30B50546AE
:101CD000002411E028462041C007C00F002805D08D
:101CE000DD4978316018FFF7CEFA04E0DA4978313F
:101CF0006018FFF7D7FA641C042CEBD9052411E017
:101D000028462041C007C00F002805D0D2497831AD
:101D10006018FFF7C7FA04E0CF4978316018FFF781
:101D2000B2FA641C062CEBD930BD30B50546002450
:101D300011E028462041C007C00F002805D0C64941
:101D40008431081BFFF79FFA04E0C3498431081B64
:101D5000FFF7A8FA641C042CEBD9A806C00F0028D2
:101D600004D0E7208000FFF79DFA03E0E720800021
:101D7000FFF789FA6806C00F002804D0B648F0388B
:101D8000FFF790FA03E0B448F038FFF77CFA30BD73
:101D900030B5054600240FE02846E040C007C00FDC
:101DA000002804D020466B30FFF76DFA03E0204690
:101DB0006B30FFF777FA641C0F2CEDDD30BD30B5CA
:101DC000054600240FE02846E040C007C00F002869
:101DD00004D020467C30FFF756FA03E020467C30E2
:101DE000FFF760FA641C072CEDDD30BD30B5054609
:101DF00000240FE02846E040C007C00F002804D0B0
:101E00002046D130FFF73FFA03E02046D130FFF7FC
:101E100049FA641C0F2CEDDD30BD70B505460E4649
:101E200000240AE02046FF30D930FFF73BFA204675
:101E3000FF301730FFF736FA641C0D2CF2DB00245C
:101E400005E0FF21E531081BFFF71DFA641CAC42D9
:101E5000F7D9002405E02046FF301730FFF722FABB
:101E6000641CB442F7D970BD70B505460E46002417
:101E700011E03046E040C007C00F002805D02046E2
:101E8000FF30C530FFF7FFF904E02046FF30C530D2
:101E9000FFF708FA641C042CEBDD002411E028464F
:101EA000E040C007C00F002805D02046FF30CA30F0
:101EB000FFF7E9F904E02046FF30CA30FFF7F2F9F6
:101EC000641C042CEBDD70BD70B505460E46002485
:101ED00011E03046E040C007C00F002805D0FF21C8
:101EE0005931081BFFF7CFF904E0FF215931081BD6
:101EF000FFF7D8F9641C042CEBDD002411E0284620
:101F0000E040C007C00F002805D0FF215431081B56
:101F1000FFF7B9F904E0FF215431081BFFF7C2F9BC
:101F2000641C042CEBDD70BD70B505460E46002424
:101F300011E02846E040C007C00F002805D0204629
:101F4000FF30E630FFF79FF904E02046FF30E6302F
:101F5000FFF7A8F9641C042CEBDD002411E03046E7
:101F6000E040C007C00F002805D0FF211631081B34
:101F7000FFF789F904E0FF211631081BFFF792F9FA
:101F8000641C052CEBDD70BDF8B5344C650D344890
:101F9000006A2040324908620846C06B2840C86386
:101FA0000846006A2F49A14308432D4908622E487C
:101FB00048622E4888622E48C8622E4808632E4820
:101FC00048632E4888630846C06B2D49A9430843DF
:101FD000234957E00D0A4552524F522034204020E9
:101FE00061646472657373202558206269742025CA
:101FF00064202D2D2056616C75652069732025584D
:10200000000000000D0A4552524F5220352040205A
:102010006164647265737320255820626974202599
:1020200064202D2D2056616C75652069732025581C
:10203000000000000D0A5352414D20546573742076
:10204000436F6D706C657465202D2D2025642045CF
:1020500072726F72730D0A001D0300000000FCFF16
:1020600058040020E0FF50408821420031000488DD
:1020700081403B1102817E024448ED030000016073
:10208000032EE0FFC863FF20A930FFF70BF9FF2004
:10209000AA30FFF7F8F83F210846FFF745FF072170
:1020A0000846FFF7BAFE00210846FFF7DDFE0021D3
:1020B0000846FFF709FF0020FFF7F4F80120FFF7BB
:1020C000F1F86020FFF7EEF8FF201030FFF7EAF894
:1020D000FF20EC30FFF7E6F86420FFF7E3F8652017
:1020E000FFF7E0F86620FFF7DDF86120FFF7CBF897
:1020F0000020FA490860FA48FA4908606720FFF7AB
:10210000C2F80B260227F002F9010843F6490860DD
:1021100005200090F54900980860FF200E30FFF779
:10212000C1F8FF200F30FFF7BDF80020FFF78AFD50
:10213000F020FFF7A8F85D20C000FFF7A4F8EC48F6
:10214000FFF7A1F8EA48401CFFF79DF80120E94994
:102150000860F8BD70B5E84C650DE848006A20409D
:10216000E64908620846C06B2840C8630846006A12
:10217000E349A1430843E1490862E2484862E24872
:102180008862E248C862E2480863E2484863E2487D
:1021900088630846C06BE149A9430843D749C8632F
:1021A0000020FFF770F80120FFF76DF80D20FFF712
:1021B000EFFD2620FFF703FE5020FFF717FEEE206D
:1021C000FFF761F8EF20FFF75EF8FF200E30FFF712
:1021D00069F8FF200F30FFF765F88420FFF753F808
:1021E0000526C24806600A210020FFF73DFE0020B8
:1021F000FFF728FDF020FFF746F801204003C8490B
:102200000860F002086070BD10B50A467F23834362
:102210005901BA4B9B6FC34C2340B84CA36723466C
:102220009B6F0B43A36710BD7F2282435103B34AC8
:10223000926F7F235B039A43B04B9A671A46926F63
:102240000A439A67704710B5F02303401909020743
:10225000AA4B9B6F1B091B01A84CA36723469B6FCE
:102260000B43A3672346DB6F1B011B09E367234670
:10227000DB6F1343E36710BD00B57D20C000FFF79F
:1022800002F8A948FEF7FFFFA748401CFEF7FBFF36
:10229000A548801CFEF7F7FF8020A44908607F2036
:1022A000FFF7D1FF3F20FFF7BFFF00217F20FFF79F
:1022B000ABFF00BD70B50346002400200325AD022E
:1022C0001D402C010F252D031D402D0B28433F25BC
:1022D0002D011D40284395022843CD0228431D07A8
:1022E0002D0C2843E543924E3560C543914E356031
:1022F00070BD002824D18149C96F042211437F4A4F
:10230000D1671146C96F022291437C4AD1671146B9
:10231000803109680122D2071143784A8032116066
:102320007649C96F49084900803AD1671146803122
:102330000968072212071143704A80321160BAE01F
:10234000012822D16D49C96F022211436B4AD1671E
:102350001146C96F04229143684AD1671146803102
:102360000968C2071143654A803211606349C96F29
:102370008143803AD16711468031096807221207EC
:1023800011435E4A8032116095E0022823D15B49F7
:10239000C96F04221143594AD1671146C96F0222FD
:1023A0009143564AD1671146803109684A00520864
:1023B000524980310A608039C96F012211434F4A66
:1023C000D1671146803109680722120711434B4A31
:1023D000803211606FE0032823D14849C96F04227D
:1023E0001143464AD1671146C96F02229143434ABD
:1023F000D167114680310968C20711433F4A8032D4
:1024000011603E49C96F49084900803AD1671146B9
:1024100080310968012292079143384A8032116065
:1024200049E0042822D13549C96F04221143334AB7
:10243000D1671146C96F02229143304AD1671146D4
:1024400080310968420711432C4A803211602B49C0
:10245000C96F49084900803AD1671146803109683F
:10246000C2069143254A8032116024E0052822D11A
:102470002249C96F04221143204AD1671146C96F0E
:10248000022291431D4AD167114680310968C20773
:1024900011431A4A803211601849C96F490849002E
:1024A000803AD1671146803109680322520791436F
:1024B000124A80321160704710B50A467F23834369
:1024C00059010E4B9B6F7F246403A3430B4CA367FE
:1024D00023469B6F0B43A36710BD000000003852DA
:1024E0000FA0000000003C5200000C5200002452DB
:1024F000E9020000000040520000FEFF58040020E6
:10250000F0FF0000882142007100048881400C1017
:102510000281180044C87F01010001700008E0FF3B
:102520000000105217F0FFFFE903000000002C52DA
:10253000000014520000185210B504460021282053
:10254000FFF7BAFF0420FFF7D4FE01221146FF2057
:10255000E130FFF7AFFEFD208000FEF794FE10BDD6
:1025600070B503460C467F25292676063560FA4D60
:102570002868FA4D29680D042D181D60F84D28684B
:10258000F84D29680D042D182560F74D2868F74D82
:1025900029680D042D18156000253560F44D35604F
:1025A00070BDF4480068012189020840002804D069
:1025B000F04800888005800D70470020FCE7EE4859
:1025C00000787047ED4800780007000F704770B53D
:1025D00005460E4600240FE03046E040C007C00F1D
:1025E000002804D0E6496018FEF74DFE03E0E449F8
:1025F0006018FEF757FE641C032CEDDDF006C00FDB
:10260000002804D0DE48001DFEF74CFE03E0DC4845
:10261000001DFEF738FE002411E02846E040C00708
:10262000C00F002805D0D72189006018FEF72BFEC7
:1026300004E0D72189006018FEF734FE641C012CE9
:10264000EBDD022411E02846E040C007C00F00285F
:1026500005D0CB49C91C6018FEF724FE04E0C84928
:10266000C91C6018FEF70FFE641C042CEBDD70BD66
:10267000F7B584B00546E806C00E03900598C0067D
:10268000C00E02900698C006C00E01900398FFF796
:1026900043F800900298FFF73FF806460198FFF7CD
:1026A0003BF804460023002700BF00BF00980090BD
:1026B0007820204040020343F00003430098C00804
:1026C000034380202040C0090743A4480360AD486D
:1026D000076007B0F0BDF0B585B0054600260027BD
:1026E000172003908C2002902846029900F08FFA60
:1026F0001330C0B200902846029900F088FA0D46C7
:102700002846039900F083FA41004018C019C0B26E
:1027100001902846039900F07AFA022800DB00BFF6
:102720002846039900F073FA8819C4B20F2C00DD13
:10273000641C224601990098FFF79AFF05B0F0BD8E
:1027400038B5FEF7FBFEFDF743FFFEF7C1F8FEF7D5
:102750001BFDFFF7EAF84120FFF78DFA00231A4628
:1027600019461846FFF745F80A231A46194618462F
:10277000FEF7EAFF0020FFF7B7F88348FFF794F869
:102780008248FEF780FD824AD16A106BFFF71FFF77
:102790007E48001DFEF777FD7E48FEF774FD312070
:1027A000FEF771FD3020FEF76EFD2F20FEF77AFD5B
:1027B0002E20FEF768FD2D20FEF774FD2C20FEF77D
:1027C00062FD2B20FEF75FFD2A20FEF75CFD6F48BF
:1027D0000930FEF758FD6F484630FEF754FD2920BA
:1027E000FEF751FD022403E02046FEF74CFD641C79
:1027F000092CF9DBFFF7C8FBFFF73EFD644A916C3B
:10280000506C0022FEF7AEFD6148C06B009060483E
:10281000836B1F21426B0846FEF70CFE5B48213894
:10282000FEF731FD5B489130FFF755FF7D20000139
:10283000FFF782FEFEF7F2FCFEF7EAFC38BDF8B5C2
:10284000002029214906086049480860012700E066
:102850007F1C51488742FBDB7F2029214906086005
:102860003D4804683D480568280406190846046880
:102870004A4805682804001900907003009900F088
:10288000BCF9F8BD18B5424818300069404C1834FE
:102890000090E368A2686168183CA069FEF7CAFD71
:1028A00018BD70B503460C467F252926760635608F
:1028B000294D2868294D29680D042D181D60314DBA
:1028C0002868374D29680D042D182560354628687D
:1028D000324D29680D042D18156000253560244DF2
:1028E000356070BD10B500210BE003689B0F0468D4
:1028F000E40E6340DA07D20F03685B001343036002
:10290000491C0829F1DB10BD21488038806F012166
:10291000090588431E498039886770471C488038FC
:10292000806F01210905084319498039886770477C
:1029300017488038006C0921C9068843144980393A
:102940000864704712488038006C0921C9060843A2
:102950000F498039086470470000185200001C526B
:102960000000285200002C52000030520000345267
:10297000FF3F0000000040520000545200003C5253
:102980006603000000002052FFFF00007B040000EF
:10299000D80400202902000050C3000000000452A7
:1029A000000024520F4800680121C90408430D4962
:1029B000086070470B4800680121C9048843094931
:1029C00008607047074800680321490488430549A7
:1029D000086070470348006803214904084301491F
:1029E00008607047D8040020704700000FB4054904
:1029F00010B503AA029800F009FA10BC08BC04B094
:102A00001847000000000020F8B50E4604460020DC
:102A100020622046E1688847002829D0252802D076
:102A20006268A16820E0E168204600278847050029
:102A30001ED028464138192802D80127FF02203528
:102A40003246204627602946FDF758FB002808D06B
:102A5000012804D0F61DF608F6000836D9E7361D21
:102A6000D7E762682846A1689047206A401CCFE7F4
:102A7000206AF8BDF7B5002575291068009914A6DD
:102A800011D0C046C046002802DA404211A608E034
:102A9000009909688A0701D50FA602E0490704D505
:102AA0000EA6012501E0C046C046009F0024243741
:102AB00004E000F0BFF930313955641C0028F8D12A
:102AC0002B4632462146009800F048F9FEBD000032
:102AD000000000002D0000002B000000200000007E
:102AE00070B504460D4621461068C046C046218890
:102AF000090502D50F4A7A4402E00E4A7A440E32A2
:102B000023460021243305E006070009360F965DB1
:102B10005E54491C0028F7D120780023000705D512
:102B2000702D03D0002901D002231132204600F07D
:102B300015F970BD7E040000F8B5042A2CD3830774
:102B400012D00B78491C0370401C521E83070BD017
:102B50000B78491C0370401C521E830704D00B786D
:102B6000491C0370401C521E8B079B0F05D0C91ACD
:102B7000DF002023DE1B08C90AE0FDF7E5FAF8BDF7
:102B80001D4608C9FD401C46B4402C4310C0121F0E
:102B9000042AF5D2F308C91A521EF0D40B78491C46
:102BA0000370401C521EEAD40B78491C0370401C71
:102BB000012AE4D409780170F8BD01E004C0091FBE
:102BC0000429FBD28B0701D50280801CC90700D0E5
:102BD0000270704700290BD0C30702D00270401C5E
:102BE000491E022904D3830702D50280801C891E56
:102BF000E3E70022EEE70022DFE7002203098B4231
:102C00002CD3030A8B4211D300239C464EE003468B
:102C10000B433CD4002243088B4231D303098B423F
:102C20001CD3030A8B4201D394463FE0C3098B4275
:102C300001D3CB01C01A524183098B4201D38B01CE
:102C4000C01A524143098B4201D34B01C01A524171
:102C500003098B4201D30B01C01A5241C3088B42B6
:102C600001D3CB00C01A524183088B4201D38B00A1
:102C7000C01A524143088B4201D34B00C01A524143
:102C8000411A00D201465241104670475DE0CA0F1A
:102C900000D04942031000D34042534000229C46DA
:102CA00003098B422DD3030A8B4212D3FC228901E4
:102CB00012BA030A8B420CD3890192118B4208D3BA
:102CC000890192118B4204D389013AD0921100E01C
:102CD0008909C3098B4201D3CB01C01A5241830930
:102CE0008B4201D38B01C01A524143098B4201D35D
:102CF0004B01C01A524103098B4201D30B01C01A88
:102D00005241C3088B4201D3CB00C01A5241830801
:102D10008B4201D38B00C01A5241D9D243088B4257
:102D200001D34B00C01A5241411A00D201466346FA
:102D300052415B10104601D34042002B00D549425E
:102D4000704763465B1000D3404201B50020C04687
:102D5000C04602BD7047704770477047FFB50446D4
:102D60000D4681B0243000902168880604D51022D9
:102D7000E0699143216000E00120A84201DD471B8A
:102D800000E000270498A1697A191018081AA061B8
:102D90002078C00602D42046C046C046002608E07F
:102DA00003986268A168805D9047206A401C761C89
:102DB000206204988642F3DB2078C0060AD52046BC
:102DC000C046C04606E06268A16830209047206A8D
:102DD000401C206238467F1E0028F4DC07E0009883
:102DE0006268A168405D9047206A401C20622846C6
:102DF0006D1E0028F3DC2046C046C0462078000641
:102E000002D5022005B0F0BD0120FBE7084B70B5EC
:102E10000D467B4400F027F804462846FDF7BFFB2B
:102E2000002802D00020C04370BD204670BD0000C5
:102E30005FD7FFFF01468008081A02091018020A2E
:102E40001018020C1018C008820012185200891ABB
:102E500001E0401C0A390A29FBD2704701694A1C6B
:102E600002610878704700B58FB00291002105918A
:102E70000549019379440391114604906846FFF790
:102E8000C3FD0FB000BD0000E5FFFFFF754600F079
:102E900025F8AE46050069465346C008C000854681
:102EA00018B020B5FDF74EFB60BC00274908B646B8
:102EB0000026C0C5C0C5C0C5C0C5C0C5C0C5C0C549
:102EC000C0C5403D49008D46704710B50446C04618
:102ED000C0462046FDF731F910BD0000004870479C
:102EE0002405002022038803A1030D01B503B201CC
:102EF00071014202C701CA038B0029014B026D0018
:102F000075019F00210385039C030B01AC03AD01F8
:102F10006C013902BF01B703880022013C026A003C
:102F20006A019A001F0000001F0000001D00000041
:102F300002000000020000006B046D046F047104C5
:102F40007404760478047A045B045D045F0461040D
:102F50006404660468046A046C046E0470047204F9
:102F600073047504770479045C045E0460046204ED
:102F7000630465046704690430313233343536370D
:102F800038394142434445464030580030313233AD
:102F900034353637383961626364656640307800AD
:102FA0005061636B6574206E756D2025642E205012
:102FB00061636B657420636F6E74656E747320312A
:102FC0002D333A20256420256420256420636F6119
:102FD0007273653A202564096D69643A2025640995
:102FE00066696E653A2025640A000000696E7420E7
:102FF00048465F636F61727365203D2025753B0A0B
:10300000696E742048465F66696E65203D202575AF
:103010003B0A696E74204C435F636F6465203D20FA
:1030200025753B0A696E74205243324D5F636F61B0
:10303000727365203D2025753B0A696E74205243EA
:10304000324D5F66696E65203D2025753B0A696ECD
:1030500074205243324D5F737570657266696E6598
:10306000203D2025753B0A696E742049465F636FD9
:1030700061727365203D2025753B0A696E74204995
:10308000465F66696E65203D2025753B0A0000009D
:10309000B03000000000002050000000C40000001C
:1030A000003100005000002040110000E00000004E
:1030B000000000510000005100000000000000006E
:1030C0000000000000000000041025405760574039
:1030D00025100400F4010000F4010000F4010000D8
:1030E000F4010000F4010000F4010000F40100000C
:1030F000F4010000F4010000F401000000000000F1
:0400000500000000F7
:00000001FF
