:020000040000FA
:1000000070110020650300000000000000000000E7
:1000100000000000000000000000000000000000E0
:1000200000000000000000000000000000000000D0
:1000300000000000000000000000000000000000C0
:100040006F030000BF0300003704000083030000BB
:10005000000000000000000097030000AB03000058
:100060000F04000023040000000000004B04000007
:10007000D3030000E7030000FB03000000000000C2
:1000800000F002F800F050F80CA030C8083824182E
:100090002D18A246671EAB4654465D46AC4201D1C0
:1000A00000F042F87E460F3E0FCCB64601263342A2
:1000B00000D0FB1AA246AB46334318475C3B000016
:1000C0007C3B0000103A02D378C878C1FAD85207B6
:1000D00001D330C830C101D504680C6070470000FE
:1000E0000023002400250026103A01D378C1FBD854
:1000F000520700D330C100D50B60704710B564299A
:1001000002D102F0EBFF10BD752902D102F0E6FF2B
:1001100010BD782902D103F017F810BD002010BDE2
:100120001FB51FBD10B510BD03F0ECFC1146FFF765
:10013000F7FF00F044F803F004FD03B4FFF7F2FF0B
:1001400003BC00F0C4F9000070B505460C46164625
:1001500002E00FCC0FC5103E102EFAD2082E02D3AB
:1001600003CC03C5083E042E07D301CC01C5361FBE
:1001700003E021782970641C6D1C761EF9D270BDD5
:1001800070B501203A49C870002415E0384A51780A
:100190001078224602F05DF935484278017823460E
:1001A00034A002F057FF002500E06D1C384885425E
:1001B000FBDB02F02DFF641C202CE7DB70BD04216B
:1001C0002B4803F04AF833A002F044FF02F0FFF995
:1001D00002F06BFE334801F014F800F048FD01F026
:1001E00027F831A002F036FF35A002F033FF3C487B
:1001F000816B002001F0C7F804463948C06BA0426B
:1002000003D138A002F026FF04E039A002F022FF5B
:1002100000BFFEE746A002F01DFF00F0A6F900BFF8
:1002200000F08BF90028FBD049A002F013FF002258
:100230001146FF20E13001F0B0FE17200C49087094
:100240000C2048700F20887002F04CFD0EE000F08A
:10025000EBFF43494518284600F0DEFF0020044923
:10026000C87000BF0248C0780028FBD0EFE700004C
:10027000000000205472616E736D697474696E675A
:10028000206F6E2025752025752025750A00000039
:1002900088130000496E697469616C697A696E67D8
:1002A0002E2E2E00810100000D0A2D2D2D2D2D2D1D
:1002B0002D2D2D2D2D2D2D2D2D2D2D2D2D0D0A00DE
:1002C00056616C69646174696E672070726F6772E1
:1002D000616D20696E746567726974792E2E2E00C7
:1002E000C0FF0000435243204F4B0D0A00000000A6
:1002F0000D0A50726F6772616D6D696E672045728D
:10030000726F72202D2043524320444F4553204E9C
:100310004F54204D41544348202D2048616C74694E
:100320006E6720457865637574696F6E0D0A00000D
:1003300043616C6962726174696E6720667265718F
:1003400075656E636965732E2E2E0D0A0000000020
:1003500043616C20636F6D706C6574650D0A0000FD
:1003600050C300004149424808604248004701B577
:10037000012080F3108800F021FF002080F3108816
:1003800001BD01B5012080F3108800F09FFE002020
:1003900080F3108801BD01B5012080F3108800F0C2
:1003A0009FFD002080F3108801BD01B5012080F37E
:1003B000108800F046FF002080F3108801BD01B5D1
:1003C000012080F3108800F095FE002080F3108853
:1003D00001BD01B5012080F3108800F090FE0020DF
:1003E00080F3108801BD01B5012080F3108800F072
:1003F0008BFE002080F3108801BD01B5012080F341
:10040000108800F086FE002080F3108801BD01B541
:10041000012080F3108800F0FFFD002080F3108899
:1004200001BD01B5012080F3108800F0ACFD002073
:1004300080F3108801BD01B5012080F3108800F021
:1004400099F8002080F3108801BD01B5012080F3E8
:10045000108800F090F8002080F3108801BD0000A3
:1004600005480649064A074B7047000000E100E0D6
:1004700000000000810000007005002070110020C5
:10048000700900207009002051210906087070478A
:1004900010B503460C461846FFF7F6FF10BD10B521
:1004A0005124240623781846FFF7EEFF184610BDA6
:1004B00010B50446FFF7F3FF10BD0146002070475A
:1004C00010B5044604492046FFF7E2FF10BD03A023
:1004D00002F0C0FD00BFFEE7040000200D0A5445F5
:1004E000535420444F4E450D0A00000010B52821FA
:1004F000E44802F0B4FEE448E24908621721E1480A
:10050000203001710C2141710F21817110BD10B596
:100510000120DC4988700020C87017200871002075
:1005200048710F2088710020C04388600B469A797B
:100530005979187901F08DFF10BDD2484078704785
:10054000D04908627047CF4820300079C006C00EFD
:100550007047CC4820304079C006C00E7047C9486B
:1005600020308079C006C00E70470120C002C74904
:10057000086070477047F0B591B000F095FE0C90A0
:1005800000F096FE0B9000F097FE0A9000F098FEA7
:10059000099000F099FE074600F09AFE089000F0DE
:1005A0009BFE079000F09CFE06907F2029214906C3
:1005B0000860B4480078401CB24908702920400601
:1005C0000668B348006810901098000480190F90D6
:1005D000B0480668B0480068109010980004801970
:1005E0000E90AE480668AE4800681090109800045F
:1005F0008519AC480668AC48006810901098000453
:100600008419AA480668AA48006810901098000447
:1006100080190D900020292149060860A54808602E
:100620009848007802287DDDA3490E98884202D2BE
:100630000C98401E0C90A1490E98884202D90C9843
:10064000401C0C900C990B9801F07BFE0B9800F06D
:100650004FFE0C9800F048FE8A48807800287CD035
:100660008848C078002878D18648006AA04218D30C
:100670008448006A001B83498968884211D28148F6
:10068000006A001B7F4988600846017920300171AB
:1006900020384179203041712038817920308171B2
:1006A0001BE07848006AA04217D27648006A201AF8
:1006B00074498968884210D27248006A201A7149C8
:1006C0008860084601792030017120384179203056
:1006D000417120388179203081716A4883682146D0
:1006E000026A77A002F0B6FC66488079401C654932
:1006F0008871084680790F2825DD0F20887108460B
:100700004079401C4871084640791F281BDD0020B5
:10071000487108460079401C08710846007919287C
:1007200011DD00E075E00120C87000221146FF20B5
:10073000E13001F032FC534820308379427901796D
:100740006AA002F087FC4F48C078002806D14D4BC4
:100750009A795979187901F07CFE06E0494B2033EB
:100760009A795979187901F074FE6848854203D95D
:100770000A98401C0A900BE06548854203D9099805
:10078000401C099004E062484138854200D97F1C32
:100790006048854203D20A98401E0A900CE05C48EB
:1007A000A038854203D20998401E099004E05848B9
:1007B0005F38854200D27F1E00971F210846099BA3
:1007C0000A9A01F09BFE0A9800F096FD099800F045
:1007D00097FD384600F098FD4F490D98884202D9A0
:1007E0000698401C06904D490D98884202D2069802
:1007F000401E069000220699079801F068FD0798B0
:1008000000F08AFD069800F08BFD01F0F3FD01F089
:10081000EBFD06990D9802970394059104900999B0
:100820000A982B46019100903DA00C9A0E9902F077
:1008300011FC14480078192822DB1248807800281F
:1008400003D01048C07800281AD00120C0020F49F8
:100850008031086000200B490870012048700F9813
:10086000C860084605610D984861084684610E9885
:10087000C86137A002F0EEFB00202921490608607C
:1008800011B0F0BD5400002094D1030000E100E05D
:1008900000000452000010520000145200001852D0
:1008A00000001C520000285200002C520000305260
:1008B00000003452FF3F0000C8781E0038901E0030
:1008C000636F756E745F4C433A2025752C204C4342
:1008D0005F7461726765743A2025752C204C435F04
:1008E000646966663A2025750A000000636F6172CC
:1008F00073653A2025752C206D69643A2025752C86
:100900002066696E653A2025750A0000980F03007D
:10091000900D0300E80A0300786F1800886418003F
:1009200048463D25642D2564202020324D3D256418
:100930002D25642C25642C25642020204C433D2546
:100940006420202049463D25642D25640D0A0000C1
:10095000646F6E650D0A000010B5FF219931F748EC
:1009600002F07DFCF649F7484165C91F41610F213E
:10097000803081824020F44908601F208905486149
:100980000820086210BDED4908607047EB494860D7
:100990007047EA4988607047E849C860704710208E
:1009A00081060860704710B5044621460B398A005D
:1009B000E4491431885801F0FDFE10BD10B504461D
:1009C00021460B398A00DF495431885801F0F2FE84
:1009D00010BD70B505460C460B21DA480174012C98
:1009E00002D0022C0AD104E0D649087CFFF7E6FFCA
:1009F00005E0D449087CFFF7D6FF00E000BF00BF48
:100A000070BD70B505460C4622462946CB481030CD
:100A100002F0C6FBC94810300121890788600846EA
:100A2000C4600120086070BD2820C8490860062005
:100A3000C7490860704702204107086070471820C6
:100A4000C24908600120C2490860BE48703841218F
:100A500009064861102081060860704701204003A4
:100A6000BC4908600520C002086004200107086036
:100A70007047F8B507460C4615461E463120C04360
:100A80003070AE488030007C20702078A84205DCB1
:100A90002278AC496F39384602F082FBF8BD01205C
:100AA0004003AC4908600020A84908607047F7B5CA
:100AB00084B000BF00F010FC019000F011FC009029
:100AC0009E488030007C02909E488030C08A401C46
:100AD00081B29C488030C1820025029AD1009E4B91
:100AE000069A5A43104602F0C6FB0390092407E019
:100AF00060009A49095A601C4000984A1152641ECD
:100B0000002CF5DA039800B294490880002407E02D
:100B100060009249085E9249095D48434519641C8A
:100B20000A2CF5DD2846E917C90D09184F1285482A
:100B30008030C18A808A814216D17D20C0008742E0
:100B400007DD0098421C014600920022019801F046
:100B5000BEFB8448874207DA0098421E0146009295
:100B60000022019801F0B3FB019800F0D5FB00983A
:100B700000F0D6FB0025059819286DD2092407E05E
:100B8000A00079490958601C8000774A1150641E02
:100B9000002CF5DA744904980860002407E0A000EE
:100BA000714908586E49095D48434519641C0A2C6F
:100BB000F5DD2846E917C90D09184E126148803045
:100BC000C18A808A814247D14120C00086421DD916
:100BD0005C48007C0B3881005A4814304058401C57
:100BE0005849097C0B398A005649143188505548B8
:100BF000007C0B388100534854304058401C514908
:100C0000097C0B398A004F4954318850FF20E1306C
:100C100086421DD24B48007C0B3881004948143075
:100C20004058401E4749097C0B398A004549143118
:100C300088504448007C0B3881004248543040586A
:100C4000401E4049097C0B398A003E495431885086
:100C500000213C488030C18207B0F0BD40203A49B5
:100C600008601C2089054861082008627047402000
:100C700035498031086070473248407C704710B574
:100C800001F00FFB10BD39480068704738480088F4
:100C900000B27047F1B5A2B0402112A802F0DFFA0D
:100CA000442101A802F0DBFA264922984861002479
:100CB00078E0A20023491431885801F07BFD002020
:100CC0002921490608602B480860012700E07F1CA5
:100CD0007D20C0018742FAD37F2029214906086080
:100CE0001A4805682448066830044019A10012AA71
:100CF0005050611C4900124AFE328918129A514321
:100D000008460F49FE3102F0ACFA611C890001AAC5
:100D10005050002C3BDDA00012A90958A00010582B
:100D2000143881422AD2A100064814304058401C91
:100D3000A20004491431885029E000002402002058
:100D4000C30200002403002000E100E0000028525C
:100D50000000405200001052093D00000C0200202B
:100D60001C00002018FCFFFF280000200000545247
:100D700000006452FF3F000000002C52A100BF4859
:100D800040582830611C8A00BC498850641C002CE3
:100D900008D1A100B94840582830611C8A00B749E1
:100DA0008850641C102C84DB002400E0641C102C90
:100DB000FCDB129823B0F0BDF0B5B3B005460E468B
:100DC0000024402121A802F04AFA442110A802F090
:100DD00046FA2022AA4908A8FFF7B6F92022A84916
:100DE00020316846FFF7B0F9A448143845654FE054
:100DF000A200A2494031885801F0DCFC00202921E2
:100E0000490608609F4808600120319002E031984F
:100E1000401C31907D21C90131988842F7DB7F2049
:100E20002921490608609848076898480068329068
:100E300032980004C019A10021AA505062006B46EC
:100E4000995A620008AB9A5A7243104602F009FAA6
:100E5000A10010AA5050A00021A90958A0001058C4
:100E6000401F814209D2A100844840304058401CB4
:100E7000A2008249403188500AE0A1007F484030FA
:100E800040582830611C8A007C4940318850641CDD
:100E9000102CADDB33B0F0BD70B504462046FFF733
:100EA000F9FE05467A4800F0A8FAFF202B3000F042
:100EB000B3FAFF20343000F0AFFAFF20F93000F031
:100EC0009CFAFF20FB3000F0A7FAFF20FD3000F075
:100ED000A3FA29462046FFF76FFFFFF7E0FD70BD3C
:100EE00070B5012080070469C56901216348143881
:100EF0004174002D08D008202840002803D000218C
:100F00005E481438417400BF01208007456202200A
:100F10002040002809D05F480068002805D0212221
:100F2000520650685B4A1168884704202040002818
:100F300009D058484068002805D021225206506840
:100F4000544A5168884708202040002809D0514859
:100F50008068002805D02122520650684D4A9168C9
:100F6000884710202040002809D04A48C06800283F
:100F700005D0212252065068464AD1688847012090
:100F80008007846170BD70B54348056843480668B2
:100F900030044019424909688900424A505040488B
:100FA0000068401C3E4908603F4800682021084313
:100FB0003D490860084600683C4908603A480068B6
:100FC000202188433849086008460068374908608E
:100FD000334800680A281ED1012406E0A000314AE7
:100FE000115833A002F036F8641C0A2CF6D3FF2007
:100FF00001303149086040002F49803908600020E5
:1010000027490860002400E0641C2C488442FBD37C
:101010002B482C49C86070BD10B5234A1268602364
:101020001A43214B1A601A461268204B1A601E4A56
:10103000126860239A431C4B1A601A4612681B4BB5
:101040001A60012252021C4B803B1A6052101A4B4C
:101050001A6052001C4B1A600F4A10680F4A116840
:101060000A0412180E4B1B689B000E4CE2500C4AEF
:101070001268521C0A4B1A6010BD00003803002091
:101080005C3B0000FF3F00000000285200002C5293
:10109000CB0300002402002000004452000048520C
:1010A0000C0000207C0000201800002000000C52E2
:1010B00025580D0A0000000080E100E01027000024
:1010C0000400FA0500ED00E080E200E010B502A0A7
:1010D00001F0C0FF10BD000061646320696E74659B
:1010E0007272757074207472696767657265640DD9
:1010F0000A00000010B509A001F0ACFF10BD10B54A
:1011000010A001F0A7FF10BD10B518A001F0A2FFBC
:1011100010BD10B51FA001F09DFF10BD457874658E
:10112000726E616C20496E746572727570742047BE
:1011300050494F33207472696767657265640D0AA0
:101140000000000045787465726E616C20496E7411
:10115000657272757074204750494F3820747269F7
:101160006767657265640D0A000000004578746564
:10117000726E616C20496E7465727275707420476E
:1011800050494F39207472696767657265640D0A4A
:101190000000000045787465726E616C20496E74C1
:1011A000657272757074204750494F3130207472E7
:1011B000696767657265640D0A00000010B502A0DA
:1011C00001F048FF10BD0000756172742072782034
:1011D000696E746572727570742074726967676580
:1011E0007265640D0A0000001E4800210160416024
:1011F0008160C160481E212149068860072008607F
:101200007047184908607047032021214906086388
:10121000802015490860704700B50246FFF7F4FFCB
:1012200021204006026100BD212040064068704731
:10123000002021214906086380200B498031086085
:10124000704710B50948046BE007C00F002806D0AE
:1012500004480068002802D0024908688047034813
:10126000446310BDBC03002000E100E040000042E8
:1012700010B5CC21FE4801F0F2FF1121FC4880306E
:10128000C16203210163152141630F218163C163A1
:10129000F849016416214164122181641422F6493F
:1012A0001830FEF751FF10BDF1488030C06A70471A
:1012B000EF488030006B7047ED488030406B7047DE
:1012C000EB488030806B7047E9488030C06B7047D6
:1012D000E7488030006C7047E5488030406C7047CC
:1012E000E3488030806C7047E1498031C8627047C4
:1012F000DF49803108637047DD49803148637047BA
:10130000DB49803188637047D9498031C8637047B1
:10131000D749803108647047D549803148647047A7
:10132000D34980318864704710B50446982221461D
:10133000CF48FEF709FF10BDD049014049004208DF
:10134000CE4B1A4011430846CD490140890082081E
:10135000CB4B1A4011430846CA4901400901020912
:10136000C84B1A40114308460106FF2212020240F0
:1013700012021143020AFF231B021A401143020EFC
:10138000114308467047F3B500256C1E16E000981F
:10139000465D3046FFF7D0FF064600270BE02046AB
:1013A0007040002804DA6000B7494840044600E075
:1013B000640076007F1C072FF1DD6D1C01988542CB
:1013C000E5D3E043FFF7B8FFFCBDF0210140091170
:1013D0000207120E11430846CC2101408910332226
:1013E0000240920011430846AA21014049105522AB
:1013F0000240520011430846704710B541098A0067
:101400009B4B9A584B01C41A0123DB07E3409A43D4
:101410008B00974CE25010BD10B541098A00944BE7
:101420009A584B01C41A0123DB07E3401A438B008F
:101430008F4CE25010BDFFB505460E4617460024FE
:101440000FE028462041C007C00F002804D02046E6
:10145000F530FFF7E1FF03E02046F530FFF7CDFF61
:10146000641C032CEDDD00240FE030462041C00752
:10147000C00F002804D02046F930FFF7CDFF03E06D
:101480002046F930FFF7B9FF641C032CEDDD002482
:101490000FE038462041C007C00F002804D0204686
:1014A000FD30FFF7B9FF03E02046FD30FFF7A5FF51
:1014B000641C032CEDDD00240FE003982041C007DD
:1014C000C00F002804D0E01DFA30FFF7A5FF03E0AD
:1014D000E01DFA30FFF791FF641C032CEDDDFFBD2A
:1014E000FFB505460E46174600240FE0284620416A
:1014F000C007C00F002804D0E01DFE30FFF78CFFAE
:1015000003E0E01DFE30FFF778FF641C012CEDDDE9
:10151000002411E030462041C007C00F002805D04C
:101520002046FF300830FFF777FF04E02046FF3009
:101530000830FFF762FF641C012CEBDD002411E092
:1015400038462041C007C00F002805D02046FF3094
:101550000A30FFF761FF04E02046FF300A30FFF752
:101560004CFF641C012CEBDD002411E003982041AA
:10157000C007C00F002805D02046FF300C30FFF711
:101580004BFF04E02046FF300C30FFF736FF641CB1
:10159000012CEBDDFFBD30B589B0054620223B496B
:1015A00001A8FEF7D1FD002411E02846E040C00765
:1015B000C00F002805D0610001AA505AFFF71DFF97
:1015C00004E0610001AA505AFFF726FF641C0F2CAB
:1015D000EBD909B030BD30B589B0054620222B4982
:1015E000203101A8FEF7B0FD002411E02846E040BC
:1015F000C007C00F002805D0610001AA505AFFF7AC
:101600000BFF04E0610001AA505AFFF7F6FE641CCC
:101610000F2CEBD909B030BD00B5FF20F630FFF735
:10162000ECFEFF20F730FFF7E8FEFF20F830FFF771
:10163000E4FEFF20F930FFF7E0FEFF20FA30FFF76D
:10164000EBFEFF20FB30FFF7D8FEFF20FC30FFF75A
:10165000E3FEFF20FD30FFF7D0FEFF20FE30FFF756
:10166000DBFEFF20FF30FFF7D7FE094812E0000045
:10167000CC030020006A18009C3B000055555555CE
:10168000333333330F0F0F0FB71DC104B03B0000CE
:10169000FF010000FFF7C0FE01204002FFF7BCFE83
:1016A000F848FFF7AAFEF748401CFFF7A6FEF548EA
:1016B000801CFFF7B1FE81208000FFF7ADFE002007
:1016C000F1490860F148FFF7A7FE00BDF3B581B00E
:1016D0000F4600200090019EB800019E82193146FD
:1016E000EBA001F0B7FCF6A001F0B4FC00240CE084
:1016F000002507E0A00030580121A9408843A1003F
:1017000070506D1C202DF5DB641CBC42F0D300240E
:101710001DE0002518E0A00030580121A940084034
:10172000002809D0A00033582A462146EAA001F03B
:1017300091FC0098401C0090A00030580121A94065
:101740000843A10070506D1C202DE4DB641CBC42DA
:10175000DFD300241FE000251AE0A000305801214B
:10176000A94008400121A940884209D0A00033586F
:101770002A462146E4A001F06DFC0098401C009030
:10178000A00030580121A9408843A10070506D1C71
:10179000202DE2DB641CBC42DDD37C1E1DE01F2536
:1017A00018E0A00030580121A9400840002809D0C5
:1017B000A00033582A462146DFA001F04BFC0098D8
:1017C000401C0090A00030580121A9400843A1000E
:1017D00070506D1E002DE4DA641E002CDFDA7C1ED2
:1017E0001FE01F251AE0A00030580121A940084041
:1017F0000121A940884209D0A00033582A46214639
:10180000D9A001F027FC0098401C0090A00030589F
:101810000121A9408843A10070506D1E002DE2DA1D
:10182000641E002CDDDA002416E0002511E0A00083
:1018300030580121A9400840002809D0A0003358A1
:101840002A462146D4A001F005FC0098401C0090D7
:101850006D1C202DEBDB641CBC42E6D3DAA00099A2
:1018600001F0F8FB0098FEBD30B50546002411E0FC
:1018700028462041C007C00F002805D02046FF3071
:10188000ED30FFF7C9FD04E02046FF30ED30FFF7F3
:10189000B4FD641C062CEBD930BD30B505460024E0
:1018A00011E028462041C007C00F002805D0774925
:1018B0007539081BFFF7B0FD04E074497539081B42
:1018C000FFF79BFD641C042CEBD9052411E028468E
:1018D0002041C007C00F002805D06C497539081B8E
:1018E000FFF78BFD04E069497539081BFFF794FD8C
:1018F000641C062CEBD930BD30B50546002411E040
:1019000028462041C007C00F002805D05F49C91CE8
:101910006018FFF781FD04E05C49C91C6018FFF7FF
:101920006CFD641C042CEBD9052411E028462041F1
:10193000C007C00F002805D05449C91C6018FFF724
:101940005CFD04E05149C91C6018FFF765FD641C8B
:10195000062CEBD930BD30B50546002411E02846F1
:101960002041C007C00F002805D048490F31081B8F
:10197000FFF752FD04E045490F31081BFFF73DFD1D
:10198000641C042CEBD9A806C00F002804D0E72063
:101990008000FFF732FD03E0E7208000FFF73CFD09
:1019A0006806C00F002804D036482C30FFF725FD0C
:1019B00003E034482C30FFF72FFD30BD30B505462D
:1019C00000240FE02846E040C007C00F002804D0E4
:1019D00020466B30FFF720FD03E020466B30FFF719
:1019E0000CFD641C0F2CEDDD30BD30B50546002428
:1019F0000FE02846E040C007C00F002804D0204672
:101A00007C30FFF709FD03E020467C30FFF7F5FC52
:101A1000641C072CEDDD30BD30B5054600240FE019
:101A20002846E040C007C00F002804D02046D1302F
:101A3000FFF7F2FC03E02046D130FFF7DEFC641C28
:101A40000F2CEDDD30BD70B505460E4600240AE0D2
:101A50002046FF30D930FFF7D0FC2046FF3017304A
:101A6000FFF7CBFC641C0D2CF2DB002405E0FF210A
:101A7000E531081BFFF7D0FC641CAC42F7D9002409
:101A8000BAE00000010200000000285292030000AA
:101A90000D0A0D0A5374617274696E6720535241C6
:101AA0004D20746573742066726F6D2030782558F0
:101AB00020746F20307825582E2E2E0D0A0000003D
:101AC000546869732074616B657320617768696C11
:101AD000652E2E2E0D0A00000D0A4552524F52203F
:101AE0003120402061646472657373202558206240
:101AF0006974202564202D2D2056616C7565206940
:101B000073202558000000000D0A4552524F522004
:101B1000322040206164647265737320255820620E
:101B20006974202564202D2D2056616C756520690F
:101B300073202558000000000D0A4552524F5220D4
:101B400033204020616464726573732025582062DD
:101B50006974202564202D2D2056616C75652069DF
:101B600073202558000000000D0A4552524F5220A4
:101B700034204020616464726573732025582062AC
:101B80006974202564202D2D2056616C75652069AF
:101B900073202558000000000D0A4552524F522074
:101BA000352040206164647265737320255820627B
:101BB0006974202564202D2D2056616C756520697F
:101BC00073202558000000000D0A5352414D205447
:101BD00065737420436F6D706C657465202D2D20C6
:101BE0002564204572726F72730D0A002046FF3023
:101BF0001730FFF702FC641CB442F7D970BD70B512
:101C000005460E46002411E03046E040C007C00FF4
:101C1000002805D02046FF30C530FFF7FDFB04E06B
:101C20002046FF30C530FFF7E8FB641C042CEBDDD9
:101C3000002411E02846E040C007C00F002805D06E
:101C40002046FF30CA30FFF7E7FB04E02046FF30B4
:101C5000CA30FFF7D2FB641C042CEBDD70BD70B5FD
:101C600005460E46002411E03046E040C007C00F94
:101C7000002805D0FF215931081BFFF7CDFB04E0F8
:101C8000FF215931081BFFF7B8FB641C042CEBDD66
:101C9000002411E02846E040C007C00F002805D00E
:101CA000FF215431081BFFF7B7FB04E0FF2154313B
:101CB000081BFFF7A2FB641C042CEBDD70BD70B5A4
:101CC00005460E46002411E02846E040C007C00F3C
:101CD000002805D02046FF30E630FFF79DFB04E0EA
:101CE0002046FF30E630FFF788FB641C042CEBDD58
:101CF000002411E03046E040C007C00F002805D0A6
:101D0000FF211631081BFFF787FB04E0FF21163186
:101D1000081BFFF772FB641C052CEBDD70BDF8B5EA
:101D2000F94C650DF948006A2040F84908620846F8
:101D3000C06B2840C8630846006AF549A1430843C0
:101D4000F2490862F3484862F3488862F348C8627F
:101D5000F3480863F3484863F34888630846C06B58
:101D6000F249A9430843E949C863FF20A930FFF7B6
:101D700044FBFF20AA30FFF74FFB3F210846FFF747
:101D80009EFF07210846FFF75EFE00210846FFF789
:101D900036FF00210846FFF762FF0020FFF72DFB0A
:101DA0000120FFF72AFB6020FFF727FBFF20103000
:101DB000FFF723FBFF20EC30FFF71FFB6420FFF74A
:101DC0001CFB6520FFF719FB6620FFF716FB61205F
:101DD000FFF722FB0020D6490860D648D6490860A4
:101DE0006720FFF719FB0B260227F002F9010843D1
:101DF000D249086005200090D14900980860FF2072
:101E00000E30FFF7FAFAFF200F30FFF7F6FA002046
:101E1000FFF72AFDF020FFF7FFFA5D20C000FFF773
:101E2000FBFAC848FFF7F8FAC648401CFFF7F4FA77
:101E30000120C5490860F8BD70B5C44C650DB348B4
:101E4000006A2040B14908620846C06B2840C86358
:101E50000846006ABE49A1430843AC490862AD4840
:101E60004862AD4840308862BA48C862BA480863E0
:101E7000BA484863BA4888630846C06BB949A94361
:101E80000843A249C8630020FFF7C6FA0120FFF704
:101E9000C3FA0D20FFF792FD2620FFF7A6FD502084
:101EA000FFF7BAFDEE20FFF7B7FAEF20FFF7B4FA1D
:101EB000FF200E30FFF7A1FAFF200F30FFF79DFA49
:101EC0008420FFF7A9FA05269D4806600A21002014
:101ED000FFF795FE0020FFF7C7FCF020FFF79CFA04
:101EE00001204003A0490860F002086070BD10B5F1
:101EF0000A467F2383435901844B9B6F9B4C2340AD
:101F0000824CA36723469B6F0B43A36710BD7F22C0
:101F1000824351037D4A926F7F235B039A437B4B3D
:101F20009A671A46926F0A439A67704710B5F02372
:101F3000034019090207754B9B6F1B091B01734C6A
:101F4000A36723469B6F0B43A3672346DB6F1B01ED
:101F50001B09E3672346DB6F1343E36710BD00B53E
:101F60007D20C000FFF758FA8148FFF755FA8048F6
:101F7000401CFFF751FA7E48801CFFF74DFA802085
:101F80007C4908607F20FFF7D1FF3F20FFF7BFFFAC
:101F900000217F20FFF7ABFF00BD70B50346002492
:101FA00000200325AD021D402C010F252D031D40EF
:101FB0002D0B28433F252D011D4028439502284322
:101FC000CD0228431D072D0C2843E5436A4E35609A
:101FD000C5436A4E356070BD002824D14B49C96F96
:101FE00004221143494AD1671146C96F0222914325
:101FF000464AD1671146803109680122D207114350
:10200000424A803211604149C96F49084900803A0B
:10201000D1671146803109680722120711433B4AF4
:1020200080321160F6E0012822D13849C96F0222BE
:102030001143364AD1671146C96F04229143334A8E
:10204000D167114680310968C20711432F4A803297
:1020500011602E49C96F8143803AD16711468031A2
:102060000968072212071143284A80321160D1E023
:10207000022823D12549C96F04221143234AD1677D
:102080001146C96F02229143204AD167114680311F
:1020900009684A0052081D4980310A608039C96FB9
:1020A00001221143194AD16711468031096807227C
:1020B00012071143154A80321160ABE003285FD14B
:1020C0001249C96F04221143104AD1671146C96FE2
:1020D000022291430D4AD167114680310968C20737
:1020E00011430A4A803211600849C96F4908490002
:1020F000803AD167114680310968012292079143E5
:10210000024A8032116085E00000FCFFCC03002011
:10211000E0FF5040882142003100048881403B119B
:1021200002817E024448ED0300000160032EE0FFBF
:10213000000038520FA0000000003C5200000C527A
:1021400000002452E9020000000040520000FEFF9F
:10215000F0FF000081400C100281180044C87F018C
:10216000010001700008E0FF0000105217F0FFFFAF
:10217000E903000000002C52000014520000185225
:10218000042822D1FE49C96F04221143FC4AD167B9
:102190001146C96F02229143F94AD1671146803135
:1021A000096842071143F64A80321160F449C96F49
:1021B00049084900803AD167114680310968C20652
:1021C0009143EF4A8032116024E0052822D1EC4986
:1021D000C96F04221143EA4AD1671146C96F02222E
:1021E0009143E74AD167114680310968C20711431C
:1021F000E34A80321160E249C96F49084900803AD8
:10220000D167114680310968032252079143DC4AA5
:1022100080321160704710B50A467F23834359010D
:10222000D74B9B6F7F246403A343D54CA3672346FE
:102230009B6F0B43A36710BD10B5044600213F20E0
:10224000FFF7E9FF0420FFF7C7FE01221146FF2038
:10225000E130FFF7A2FEFD208000FFF7DDF810BDA2
:1022600070B503460C467F25292676063560C54D98
:102270002868C54D29680D042D181D60C34D2868B8
:10228000C34D29680D042D182560C24D2868C24D24
:1022900029680D042D18156000253560BF4D356087
:1022A00070BDBF480068012189020840002804D0A1
:1022B000BB4800888005800D70470020FCE7B948C6
:1022C00000787047B84800780007000F7047F0B5F5
:1022D00005460E461746002411E028462041C00757
:1022E000C00F002805D0FF21B031081BFFF794F87C
:1022F00004E0FF21B031081BFFF77FF8641C042CB9
:10230000EBD9002411E030462041C007C00F00285F
:1023100005D0FF21B631081BFFF77EF804E0FF214E
:10232000B631081BFFF769F8641C042CEBD9012FA8
:1023300003D19E48FFF770F802E09C48FFF75DF874
:10234000F0BD70B505460E46002411E03046E04071
:10235000C007C00F002805D0944990316018FFF7DE
:102360005BF804E0914990316018FFF746F8641C6F
:10237000032CEBDDF006C00F002804D08B4894300E
:10238000FFF73BF803E089489430FFF745F8002455
:1023900011E02846E040C007C00F002805D0D72133
:1023A00089006018FFF738F804E0D7218900601829
:1023B000FFF723F8641C012CEBDD022411E0284612
:1023C000E040C007C00F002805D07849933160185D
:1023D000FFF713F804E0754993316018FFF71CF814
:1023E000641C042CEBDD70BD28207149086020209E
:1023F0000860704710B500210022252126E0002248
:1024000021E08B005E4CE358012494402340002BD4
:1024100001D1212000E02020654B186002240346F2
:10242000A3431846624B186004231843604B18609E
:1024300004240346A34318465D4B18600223184347
:102440005B4B1860521C202ADBDB491E0029D6DAC0
:1024500010BDF7B584B00546E806C00E0390059898
:10246000C006C00E02900698C006C00E01900398E8
:10247000FEF7ABFF00900298FEF7A7FF0646019813
:10248000FEF7A3FF04460023002700BF00BF00980B
:1024900000907820204040020343F000034300985E
:1024A000C008034380202040C0090743364803602A
:1024B0004048076007B0F0BD01460020CA07120E71
:1024C000104302220A405201104304220A40D20063
:1024D000104308220A405200104310220A405208BA
:1024E000104320220A40D208104340220A405209D9
:1024F000104380220A40D20910437047F0B585B0DE
:1025000006460C4615461F461D4880308661183029
:1025100044608560C7601A4998310A980861084686
:10252000183880682449084003463046FFF7C4FF46
:102530000006C00E04902046FFF7BEFF0006C00E46
:1025400003902846FFF7B8FF0006C00E02903846F9
:10255000FFF7B2FF0006C00E01900A98FFF7ACFF2C
:102560000006C00E009004988006034303984005BF
:1025700003430298000403430198C00203431DE093
:10258000CC0300200000185200001C52000028520A
:1025900000002C520000305200003452FF3F000077
:1025A000000040520000545200003C52D60200008D
:1025B00000005852000020521F0000800098800147
:1025C000034320200343BA48836005B0F0BD38B50B
:1025D000FEF74EFEFDF78AFFFEF7BEF9FEF704FE9A
:1025E00000F084F9FFF718F800231A461946184638
:1025F000FEF776FF0023062211461046FEF71BFF6A
:102600000020FEF7E8FFAB48FEF7C5FFAA48FEF73B
:1026100003FFA74AD16A106BFFF793FEA648001D7F
:10262000FEF7FAFEA548FEF7F7FE3120FEF7F4FEAE
:102630003020FEF7F1FE2F20FEF7DFFE2E20FEF702
:10264000EBFE2D20FEF7D9FE2C20FEF7E5FE2B2019
:10265000FEF7E2FE2A20FEF7DFFE97480930FEF77C
:10266000DBFE96484630FEF7D7FE2920FEF7D4FE63
:10267000022403E02046FEF7CFFE641C092CF9DBA0
:10268000FFF74DFBFFF76BFC894A916C506C002201
:10269000FFF71DFE8648C06B00908548836B1F21A5
:1026A000426B0846FFF72AFF83482138FEF7B4FE45
:1026B0000F220C211720FFF7CCFE7D200001FFF731
:1026C000BBFDFFF797FEFFF78FFE38BDF8B5002082
:1026D0002921490608607A480860012700E07F1C2C
:1026E00078488742FBDB7F2029214906086076482D
:1026F0000468764805682804061908460468744882
:1027000005682804001900907003009900F0A9FDE5
:10271000F8BD18B5664818300069654C183400904B
:10272000E368A2686168183CA069FFF7E7FE18BD7E
:1027300070B503460C467F25292676063560624D26
:102740002868624D29680D042D181D60614D2868A8
:10275000614D29680D042D182560354628685C4DAB
:1027600029680D042D18156000253560544D35601D
:1027700070BD10B500210BE003689B0F0468E40EE8
:102780006340DA07D20F03685B0013430360491C00
:102790000829F1DB10BD10B5002408E0A000444971
:1027A00080390A5821464DA000F054FC641C262CA8
:1027B000F4D310BDF0B585B00546002600271720DC
:1027C00003908C2002902846029900F054FD1330AB
:1027D000C0B200902846029900F04DFD0D462846F3
:1027E000039900F048FD41004018C019C0B20190A3
:1027F0002846039900F03FFD022800DB00BF284671
:10280000039900F038FD8819C4B20F2C00DD641C58
:10281000224601990098FFF71CFE05B0F0BD244840
:102820008038806F012109058843214980398867F4
:1028300070471F488038806F0121090508431C49F3
:102840008039886770471A488038006C0921C906AA
:102850008843174980390864704715488038006CF0
:102860000921C90608431249803908647047104895
:1028700000680121C90408430D49086070470C48ED
:1028800000680121C9048843094908607047084865
:1028900000680321490488430549086070470448DB
:1028A000006803214904084301490860704700009B
:1028B0004C040020FFFF00007B0400002902000000
:1028C000FF3F000050C300000000185200001C52DF
:1028D0000000045200002052000024524153435B88
:1028E00025755D203D20307825780A0010B57021CF
:1028F000F74800F0B4FC0021F54840300170022197
:102900004170722181703221C17080210171C62114
:102910004171252181710121C1715321017343212D
:102920000C304170552181704D21C17033210171EE
:1029300010BDF0B597B000270024AA20169015907E
:102940001490E348403080798006800E4030089033
:102950004021DF4800F083FC2C2109A800F07FFC17
:10296000552239467F1CDA4842546B2239467F1C77
:1029700042547D2239467F1C4254912239467F1CA5
:102980004254712239467F1C425440222146641C25
:1029900009A84254A4222146641C425405250AE099
:1029A000CB494031485DFEF710FD2146621CD4B290
:1029B00009AA50546D1E002DF2DAC5484030C07986
:1029C00000281AD060222046611CCCB209A90A5402
:1029D00010222046611CCCB209A90A5400250AE045
:1029E000BB494C31485DFEF7F0FC2146621CD4B275
:1029F00009AA50546D1C052DF2DBB5484030007A11
:102A0000002820D0C0222046611CCCB209A90A545B
:102A100003222146601CC4B209A84254AC4940318B
:102A2000498A0812FEF7D1FC2146621CD4B209AAD9
:102A30005054A7494031887CFEF7C7FC2146621CF0
:102A4000D4B209AA5054A2484030407A00285FD03E
:102A500090222046611CCCB209A90A544322204688
:102A6000611CCCB209A90A549949496D080EFEF7B8
:102A7000ACFC2146621CD4B209AA50549449496D59
:102A80000902080EFEF7A1FC2146621CD4B209AA75
:102A900050548F49496D0904080EFEF796FC2146F3
:102AA000621CD4B209AA50548949496DC8B2FEF7D4
:102AB0008CFC2146621CD4B209AA50548449896D09
:102AC000080EFEF782FC2146621CD4B209AA5054BB
:102AD0007F49896D0902080EFEF777FC2146621CCA
:102AE000D4B209AA50547A49896D0904080EFEF738
:102AF0006CFC2146621CD4B209AA50547449896DF9
:102B0000C8B2FEF762FC2146621CD4B209AA505436
:102B10006F484030807A00282FD06D48416E006E9B
:102B20006C4A6D4B0391029000F0C8FD079106902E
:102B300000206A49079B069A00F026FE0022684B97
:102B40000191009000F0BAFD0391029000F0E6FDC3
:102B5000059005990904080EFEF737FC2146621C12
:102B6000D4B209AA50540599C8B2FEF72EFC2146EA
:102B7000621CD4B209AA505400BF55484030C07AF4
:102B800000281AD0A0222046611CCCB209A90A5400
:102B900083222046611CCCB209A90A5400250AE010
:102BA0004B496831485DFEF710FC2146621CD4B2E7
:102BB00009AA50546D1C042DF2DB002431E00725D6
:102BC0002BE009A8005D0121A94008402841149983
:102BD000C907C90F06464E40149840101599C907F9
:102BE000090E08431490159840101699C90108431E
:102BF000B101484071014840C0B21590169840108C
:102C0000F1010843B101484031014840F10048401A
:102C100071004840C0B216906D1E002DD1DA601CC4
:102C2000C4B2272CCBDB1498FEF7CFFB1490159879
:102C3000FEF7CBFB15901698FEF7C7FB16902146C2
:102C4000621CD4B209AA149850542146621CD4B212
:102C500009AA159850542146621CD4B209AA1698A4
:102C60005054002423E007251DE009A8005D012140
:102C7000A940884309A9095D0122AA401140089A88
:102C8000D207D20FAA405140084309A90855089815
:102C900040100899C907490E08430899C907490F08
:102CA000484008906D1E002DDFDA601CC4B22A2C4B
:102CB000D9DB002408E009A8025D3846791CCFB2B0
:102CC00003490A54601CC4B22A2CF4DB17B0F0BDCF
:102CD00098040020666666666612714000005940DE
:102CE0000000F03F10B500244021D34800F0B7FAAF
:102CF0001D222146641CD048425455222146641CA2
:102D00004254AD222146641C4254F6222146641CE2
:102D1000425445222146641C4254C7222146641C69
:102D20004254C5222146641C42540E222046611C96
:102D3000CCB2C1490A5426222046611CCCB2BE49FD
:102D40000A5413222046611CCCB2BB490A54C22249
:102D50002046611CCCB2B8490A54AC222046611C02
:102D6000CCB2B5490A5498222046611CCCB2B24973
:102D70000A5437222046611CCCB2AF490A54B8220B
:102D80002046611CCCB2AC490A5430222046611C5A
:102D9000CCB2A9490A54A1222046611CCCB2A64952
:102DA0000A54C9222046611CCCB2A3490A54E42229
:102DB0002046611CCCB2A0490A5493222046611CD3
:102DC000CCB29D490A5475222046611CCCB29A4966
:102DD0000A54B7222046611CCCB297490A544122BA
:102DE0002046611CCCB294490A546C222046611CD6
:102DF000CCB291490A54D1222046611CCCB28E49F2
:102E00000A542D222046611CCCB28B490A54B822A8
:102E10002046611CCCB288490A5410BD027886490C
:102E200040310A7042784A7082788A70C278CA70DB
:102E300002790A7142794A7170477F49403188713D
:102E400070477D494031C871704710B5044605226E
:102E5000214679484C3000F0A3F910BD7649403145
:102E60000872704774494031488270477249403156
:102E7000487270477049486570476F498865704768
:102E80006D494031887270476B4A516610667047D1
:102E900069494031C872704710B504460422214682
:102EA0006548683000F07CF910BD10B5F92080004D
:102EB000FEF7B2FA6148FEF7A0FA6048401CFEF740
:102EC0009CFA5E48801CFEF798FA7D20C000FEF751
:102ED00094FA5A48001DFEF790FA5848401DFEF734
:102EE0008CFA5648801DFEF788FA54481030FEF7D9
:102EF00093FA52482C30FEF78FFA50482D30FEF7E7
:102F00008BFAF1208000FEF778FA4C485430FEF737
:102F100074FA00204A4908607F20FFF707F8FFF79E
:102F200069FAFFF761FA10BD10B5FEF785FFFF20C3
:102F3000A930FEF762FAFF20AA30FEF76DFAFF20F3
:102F4000A730FEF769FA3F210846FEF7B8FE0721D1
:102F50000846FEF778FD4C20FEF747FD7B20FEF784
:102F60004CFA5D20C000FEF757FA3448FC38FEF7F3
:102F700053FA3248FB38FEF74FFA01203149086016
:102F8000FFF738FAFFF730FA10BD00201021084390
:102F900040084000042108432021084328490860D4
:102FA000704770B500200125284304260546B54327
:102FB000284620260546B5432846214D2860002195
:102FC00023E01D4D6C5C07221CE025461541EB07F4
:102FD000DB0F002B05D102260546B5432846184DC8
:102FE0002860012B03D102252843154D28600825B0
:102FF0002843134D286008260546B5432846104D42
:103000002860521E002AE0DA491C4029D9DB70BD35
:1030100010B5FFF7C6FFFDF707FD68200A490860F5
:10302000FFF7B3FF002400E0641C08488442FBDB88
:10303000FDF735FD10BD000098040020E5030000F9
:1030400000002C520000405200002852204E000088
:10305000704700000FB4054910B503AA029800F0AC
:1030600011FD10BC08BC04B018470000040000208B
:10307000F8B50E460446002020622046E1688847E5
:10308000002829D0252802D06268A16820E0E168E4
:1030900020460027884705001ED0284641381928B9
:1030A00002D80127FF0220353246204627602946F4
:1030B000FDF724F8002808D0012804D0F61DF608F2
:1030C000F6000836D9E7361DD7E762682846A168BA
:1030D0009047206A401CCFE7206AF8BDF7B500256D
:1030E00075291068009914A611D0C046C046002862
:1030F00002DA404211A608E0009909688A0701D562
:103100000FA602E0490704D50EA6012501E0C0463E
:10311000C046009F0024243704E000F0C7FC303193
:103120003955641C0028F8D12B46324621460098B8
:1031300000F04FFCFEBD0000000000002D0000006C
:103140002B0000002000000070B504460D4621460B
:103150001068C046C0462188090502D50F4A7A4446
:1031600002E00E4A7A440E3223460021243305E061
:1031700006070009360F965D5E54491C0028F7D1FA
:1031800020780023000705D5702D03D0002901D039
:1031900002231132204600F01CFC70BD8E0A000094
:1031A000F8B5042A2CD3830712D00B78491C03707E
:1031B000401C521E83070BD00B78491C0370401C27
:1031C000521E830704D00B78491C0370401C521E0A
:1031D0008B079B0F05D0C91ADF002023DE1B08C90F
:1031E0000AE0FCF7B1FFF8BD1D4608C9FD401C46CA
:1031F000B4402C4310C0121F042AF5D2F308C91A98
:10320000521EF0D40B78491C0370401C521EEAD4A5
:103210000B78491C0370401C012AE4D40978017022
:10322000F8BD01E004C0091F0429FBD28B0701D5BA
:103230000280801CC90700D00270704700290BD0A3
:10324000C30702D00270401C491E022904D3830721
:1032500002D50280801C891EE3E70022EEE70022EF
:10326000DFE7002203098B422CD3030A8B4211D3E0
:1032700000239C464EE003460B433CD40022430807
:103280008B4231D303098B421CD3030A8B4201D3F7
:1032900094463FE0C3098B4201D3CB01C01A52418F
:1032A00083098B4201D38B01C01A524143098B42DF
:1032B00001D34B01C01A524103098B4201D30B01C8
:1032C000C01A5241C3088B4201D3CB00C01A5241ED
:1032D00083088B4201D38B00C01A524143088B42B2
:1032E00001D34B00C01A5241411A00D2014652414B
:1032F000104670475DE0CA0F00D04942031000D36A
:103300004042534000229C4603098B422DD3030ABE
:103310008B4212D3FC22890112BA030A8B420CD3CE
:10332000890192118B4208D3890192118B4204D3F7
:1033300089013AD0921100E08909C3098B4201D377
:10334000CB01C01A524183098B4201D38B01C01AB1
:10335000524143098B4201D34B01C01A5241030928
:103360008B4201D30B01C01A5241C3088B4201D3D7
:10337000CB00C01A524183088B4201D38B00C01A84
:103380005241D9D243088B4201D34B00C01A52415B
:10339000411A00D20146634652415B10104601D3E8
:1033A0004042002B00D54942704763465B1000D372
:1033B000404201B50020C046C04602BD704770477C
:1033C00070470000F0B50C46871A9C410D46861ADE
:1033D0009D4103D2C01BA141D21963410D0D1F0DA8
:1033E000C94EEC1BAE435CD07F057F0D0026002F3D
:1033F00051D02D05AC46A943DD020123ED0A1B0582
:103400001D4320231B1B24D41746E7403818714165
:103410002F46E740CC199D402818314661410C0DDC
:1034200027D161449A4013D50023401C59415200D2
:103430000ED14008400001224B005205D34207D371
:1034400005204007C14201D5B04900E0B0493046EF
:10345000F0BD6B00002A00D001229A181F23203CE7
:103460001B1B01D5002302E0E540281871410C0D1B
:10347000D7D0012424050919C407CD0740084908FD
:10348000E40F28436144002CD5D00024401C614146
:103490009A40D0D1CDE76A05520DD9D1C90FC907DD
:1034A000D5E79C4D4E00002801D0012400E0002407
:1034B00034195F00002A01D0012600E00026BE1961
:1034C000954FAC420CD8AE420AD8B44206D0012582
:1034D0006D05EC42BCD010461946F0BD9942FCD0B7
:1034E00000203946F0BDF0B51FB40C460F46811AD6
:1034F0009F412546861A9D4106D20125ED076F4062
:10350000401ABC4152187B41210D1E0D8D1BAC464B
:103510007D4D8D437ED075056D0D7CD00D05AE467D
:10352000AC431B031B0B794D52429D412023664641
:103530009B1B14D31746F74038180026009074419F
:1035400060462F460741E41900989D4028186641BF
:1035500016D4714671189A4025D5012320E093189E
:103560002A466A415200002B00D0521C1E23203EE6
:103570009B1B002B61DD3541EE1728186641E8D50D
:10358000001876415B1C9A4000D3401C4B05F31891
:103590001524E34010D3002B52D071467118D30F7D
:1035A000C01802D3491C05B0F0BD0123DB079A42C5
:1035B000F9D140084000F6E701225205B21801D1C6
:1035C000002853D00123CC0ADB029943891E002A2C
:1035D00008D1020C03D0020C0004103902E00246AC
:1035E000002020390023550B05D112020823550B6A
:1035F00001D152010D23550C01D112011B1DD50C17
:1036000001D192009B1C150D01D152005B1C20259D
:10361000EE1A01E02CE022E00546F5401543984003
:10362000CA1AE10769181305C918002ABBDA032072
:1036300040070818C10FC9070FE071466118B2E7CB
:10364000F10740080843711071444A000CD001236F
:103650005B059A42A7D2C90FC9070020A3E7490515
:10366000490D26D1002001E00028F4D100219AE77D
:10367000284D6600002801D0012100E000217118CA
:103680005F00002A01D0012600E00026BE19224F6B
:10369000A94210D8AE420ED8B14208D001256D051E
:1036A000E94206D01946A802414010467BE79C42F9
:1036B00001D0214677E70020394674E710B50C4663
:1036C0005C4005D50124E4076340FFF70CFF10BD03
:1036D000FFF778FE10BD30B40C465C4004D50124E1
:1036E000E407634030BC6DE630BCFCE670B50124F5
:1036F000E40761400D465D4002D4FFF763FE70BDF4
:103700006340FFF7F0FE70BDFF0700000000F0FF10
:103710000000F07F0000E0FF0000F87F30B50346B6
:10372000CA02400D1043164D164C0A1502D0204314
:10373000002A06DBAA1A002A12DDD040FF2A0BDC81
:1037400030BD5205520D01D140004008AA1A07D4DD
:10375000D0404042FF2A01DD002030BD0028FCDDC2
:103760004A00002B01D0012000E0002010180122A7
:103770005205D042F0D8C817C043604030BD0000A9
:103780001E04000000000080F0B58B4C0F09254698
:1037900089B0BD437BD01D092646AE43FAD00E4604
:1037A0005E402740F60F3E43254071D02401214260
:1037B000FBD0FF24AD19A4042D1B039501252D0575
:1037C000DB02DB0AC9022B43C90A29431E01090196
:1037D000040F130F050121431701880B8203914346
:1037E0002D098C46A90B1E438A039543B30B9A03FC
:1037F00096433F09BA0B9403A74302962E467E4395
:103800000497B6464E19D7190C46019654430597AE
:103810007E43371B7646BF1B3601B646BE0B3619B4
:1038200000967646BC043719009C01D3641C0094B2
:103830006400002F01D001263443029E049F75438B
:1038400066467E430496760034196E00341900945F
:10385000029C019E1C196643751BAE460694654684
:103860004519059C05956C43594375460891691A9D
:103870000191049E01465143A41B0491611A009CCE
:103880000791E10605D061090122114302E072E0CF
:103890006EE06109089D00272C0A2D066918049D19
:1038A0007C412A0A2D066918019D6241AC0DAD02CA
:1038B0006D185441079A910D920255196141029A6F
:1038C000644658435443069B059A5A43121A131BE5
:1038D0009A0E9B015B187A41010B0005C3185141F8
:1038E000220A200644195A419A4200D2491C01205A
:1038F0004002814203D315230226F64302E014233B
:103900000326F6432020C51AA9401746AF40DA40E7
:103910000A4320460399D840091473181905511811
:10392000039A3843D2075140AC4009D00122944059
:1039300006D30022401C5141002C01D14008400018
:103940001E4A934212D3012203989206904207DB4B
:103950000520400709181A480143C012414004E0FD
:10396000032040070818C10FC907002009B0F0BDA7
:103970000020F107FAE705180C464C4111486D424A
:10398000A04115D394181A465A410E4864429041FA
:103990000ED301204A004005824209D35A008242D8
:1039A00006D35940C90F084AC90700201143DDE773
:1039B00000200649DAE700000000FF07FE070000CC
:1039C000FFFFFF7F0000E0FF0000F07F0000F87FB6
:1039D0007047FFB504460D4681B024300090216841
:1039E000880604D51022E0699143216000E001209F
:1039F000A84201DD471B00E000270498A1697A195D
:103A00001018081AA0612078C00602D42046C046CB
:103A1000C046002608E003986268A168805D904770
:103A2000206A401C761C206204988642F3DB2078D2
:103A3000C0060AD52046C046C04606E06268A168B6
:103A400030209047206A401C206238467F1E0028A4
:103A5000F4DC07E000986268A168405D9047206A46
:103A6000401C206228466D1E0028F3DC2046C0461C
:103A7000C0462078000602D5022005B0F0BD012026
:103A8000FBE70000084B70B50D467B4400F027F8BB
:103A900004462846FCF711FD002802D00020C04350
:103AA00070BD204670BD000003CAFFFF01468008BC
:103AB000081A02091018020A1018020C1018C0087F
:103AC000820012185200891A01E0401C0A390A29A2
:103AD000FBD2704701694A1C02610878704700B543
:103AE0008FB002910021059105490193794403911A
:103AF000114604906846FFF7BBFA0FB000BD000006
:103B0000E5FFFFFF754600F025F8AE460500694663
:103B10005346C008C000854618B020B5FCF7A0FC8D
:103B200060BC00274908B6460026C0C5C0C5C0C550
:103B3000C0C5C0C5C0C5C0C5C0C5403D49008D4653
:103B4000704710B50446C046C0462046FCF7F5FA5B
:103B500010BD0000004870470805002022038803BC
:103B6000A1030D01B503B20171014202C701CA03ED
:103B70008B0029014B026D0075019F002103850315
:103B80009C030B01AC03AD016C013902BF01B7030B
:103B9000880022013C026A006A019A001F000000AE
:103BA0001F0000001D0000000200000002000000D5
:103BB0006B046D046F0471047404760478047A0451
:103BC0005B045D045F0461046404660468046A04C1
:103BD0006C046E0470047204730475047704790431
:103BE0005C045E04600462046304650467046904A1
:103BF0003031323334353637383941424344454623
:103C0000403058003031323334353637383961621C
:103C10006364656640307800383C00000000002096
:103C200054000000C40000008C3C00005400002040
:103C30001C110000E0000000000000000000005126
:103C40000000005100000000000000000000000023
:103C50000000000004102540576057402510040064
:103C6000F4010000F4010000F4010000F401000080
:103C7000F4010000F4010000F4010000F401000070
:0C3C8000F4010000F4010000000000004E
:0400000500000000F7
:00000001FF
