:020000040000FA
:1000000060110020690B00000000000000000000EB
:1000100000000000000000000000000000000000E0
:1000200000000000000000000000000000000000D0
:1000300000000000000000000000000000000000C0
:10004000730B0000C30B00003B0C0000870B00008B
:1000500000000000000000009B0B0000AF0B000040
:10006000130C0000270C0000000000004F0C0000E3
:10007000D70B0000EB0B0000FF0B0000000000009E
:1000800000F002F800F055F80CA030C80838241829
:100090002D18A246671EAB4654465D46AC4201D1C0
:1000A00000F047F87E460F3E0FCCB646012633429D
:1000B00000D0FB1AA246AB4633431847044A00005F
:1000C000244A0000103A02D378C878C1FAD85207FF
:1000D00001D330C830C101D504680C6070470000FE
:1000E0000023002400250026103A01D378C1FBD854
:1000F000520700D330C100D50B60704710B564299A
:1001000002D103F00DFD10BD752902D103F008FDE9
:1001100010BD782902D103F039FD10BD732902D139
:1001200004F06EFB10BD002010BD1FB51FBD10B543
:1001300010BD04F091FB1146FFF7F7FF00F00CFA39
:1001400004F0A9FB03B4FFF7F2FF03BC00F0C1FD0C
:1001500070B505460C46164602E00FCC0FC5103EA2
:10016000102EFAD2082E02D303CC03C5083E042E6B
:1001700007D301CC01C5361F03E021782970641C28
:100180006D1C761EF9D270BD01468802704701468B
:100190000A46C817800D8018801270477FB5044644
:1001A000A005800D04F0F3F805460022F74B04F09B
:1001B000F9F8039102902046FFF7E9FF054604F0A5
:1001C000E6F801910090039B029A04F035F804B020
:1001D00070BD0246501870470246501A7047F8B575
:1001E00004460F462046394604F062FB05460122CC
:1001F0009202002303F0E9FBF8BDF8B507460C4670
:1002000038460121890204F053FB05462246E317D4
:1002100003F0DBFBF8BD7047F7B59AB000200D90F6
:100220001A98012802D1DAA00C9001E0DBA00C9012
:100230001B98002827D11A98012808D1D948077897
:10024000D94800781990D9480078189007E0D84824
:100250000778D84800781990D74800781890781C0B
:10026000C0B217901998401CC0B216901898401C44
:10027000C0B21590189800903A46D0A0199B0C99DE
:1002800003F0DCFB0EE016271820179000201990D1
:1002900020201690002018901F201590CEA00C99B9
:1002A00003F0CCFB19E1D0A003F0C8FB3D4610E100
:1002B000199E08E1189C00E1FFF7ADFF1B9800288C
:1002C00005D0234632462946CAA003F0B7FB0020DA
:1002D0000B90ECE01A9800282BD122463146284694
:1002E00000F05EFFCB480078002821D000200A9063
:1002F00018E0FFF790FF05220A99491CC6A003F0F9
:100300009DFB0A982B46009601940290A74802781C
:10031000A5480178A348007800F06EFF0A98401CB9
:10032000C0B20A900A980528E3DB0020B94908709A
:10033000B1E0C0490D980870BF480078030004F090
:10034000CFFA089F05067A0E426C829F9CE03346E6
:100350002A46BAA1B748009403F07EFB94E001F06E
:1003600068FEC0B2139001F060FEC0B2149001F0BC
:1003700064FEC0B2129001F064FEC0B2119001F0B0
:1003800064FEC0B2109001F068FEC0B20F9001F0A0
:1003900068FEC0B20E900020A6494870139888707D
:1003A0001498C87012980871119848711098887143
:1003B0000F98C8710E98087200204872084685721E
:1003C000C672047360E0A04903C903F09BFFC0B28A
:1003D000019003F0E4FF039102909B480CC802983F
:1003E00003F042FF0022994B0591049003F0DAFFDD
:1003F0000791069003F086FFC0B29349099003C9A4
:1004000003F080FFC0B2089009980090224690A1A6
:100410008848089B03F020FB36E09148006891492A
:10042000096833462A460094019102908EA18148C2
:1004300003F012FB28E033462A4693A17D4800943E
:1004400003F00AFB20E0642001F081FC01F00DFEC6
:100450008449086001F00DFE814908600846026881
:10046000804801688CA003F0E9FA7D48006800909C
:100470007C4822468DA103686E4803F0EDFA03E044
:100480008CA003F0DBFA00BF00BF6A4B2246314666
:10049000284600F043FE0D98401C0D901C990D98C5
:1004A000884201D11DB0F0BD0B98401C0B900B98F9
:1004B000012800DA0EE7601CC4B21598844200DA05
:1004C000FAE6701CC6B21698864200DAF2E6681C9C
:1004D000C5B21798854200DAEAE6E4E610B57FA0D7
:1004E00003F0ACFA8149824801F0E3FA10BDFEB591
:1004F0005B480068FFF748FE05465A480068FFF76A
:1005000043FE06462946FFF778FE0446FFF746FEFF
:100510000191009077487849019B009A03F042FFCF
:100520000446764A764B03F087FE064603F0EAFE61
:100530001E490870FEBD70B504460D46714800683E
:10054000401C70490860084601686FA003F076FA05
:1005500001203049087070BDFEB573A003F06EFA3B
:1005600075A003F06BFA7AA003F068FA8048816BFB
:10057000002001F0C1FD07467D48C06BB84203D1A1
:100580007CA003F05BFA00E1FAE000000000503FBD
:100590007472616E736D697400000000726563654A
:1005A00069766500090000200A0000200B00002089
:1005B0000C0000200D0000200E0000204669786528
:1005C0006420257320617420633A2575206D3A25D7
:1005D0007520663A25750A005377656570696E6700
:1005E0002025730A000000006C6F6F70696E672E23
:1005F0002E2E0000636F617273653D25642C206DA3
:100600006964646C653D25642C2066696E653D25D2
:10061000640D0A000800002073656E64696E67202F
:1006200061636B202564206F7574206F66202564DC
:100630000A00000080000020000000202564202522
:1006400064202564000000001000002000005940D4
:10065000253032642025642E2530326400000000ED
:100660001C00002018000020433A2564204D3A2544
:100670006420463A256420324D487A3A2564203376
:10068000326B487A3A256400433A2564204D3A2576
:100690006420463A25640000324D3A2025752C200E
:1006A00033326B487A3A2025750A000025326425DA
:1006B000642564004552524F523A20756E7365743A
:1006C000207478207061636B657420636F6E74654D
:1006D0006E7420736F7572636500000064656C61F1
:1006E00079206F766572210A00000000B80B0000C7
:1006F000DD040000FCA9F1D24D2225C03F355EBAD1
:10070000493386400400002072656365697665643C
:10071000206120746F74616C206F662025642070E6
:1007200061636B6574730A00496E697469616C6911
:100730007A696E672E2E2E000D0A2D2D2D2D2D2D52
:100740002D2D2D2D2D2D2D2D2D2D2D2D2D0D0A0049
:1007500056616C69646174696E672070726F67724C
:10076000616D20696E746567726974792E2E2E0032
:10077000C0FF0000435243204F4B0D0A0000000011
:10078000A9A003F05BF900BFFEE702F01DFDB6482B
:1007900000F093FC01F0E7FA0620030004F0A0F853
:1007A0000F0912193347494D667D8191ADC1DBF3C5
:1007B000F1000220AD490870C21E01210846FFF772
:1007C0002BFD2DE10022D24301210020FFF724FD63
:1007D00026E10220A5490870A5A003F02FF9002406
:1007E0000AE0012211461046FFF716FD01221146CC
:1007F0000020FFF711FD641C642CF2DBA3A003F0C2
:100800001DF900BFFEE70220984908700122114639
:100810001046FFF701FD002400E0641C9D4884425F
:10082000FBDB012211460020FFF7F6FCF8E000BFD9
:10083000FEE701F0D8F900BFFEE701F0D4F914E0BB
:100840003C21954802F0FAFD002400E0641C642C71
:10085000FCDBFF202D3002F0C9FF002400E0641C07
:10086000642CFCDB8DA003F0E9F8E9E714E08E4985
:100870008E488F4A8F4B00910190642003F073F8EB
:100880008D4A03C2FFF733FE052078490870012224
:1008900000211046FFF7C0FCE9E7FFF71FFE00BF8D
:1008A000FEE7864B864A87A18B4803F0D5F80220E5
:1008B0006E490870C21E01210846FFF7ADFC00BF5B
:1008C000FEE719E0642001F042FA01F0CEFB834913
:1008D000086001F0CEFB82490860084602687F4844
:1008E0000168804803F0AAF80720604908702022B8
:1008F00001210846FFF790FCE4E711E0642001F0D5
:1009000026FA01F0B2FB7549086001F0B2FB7449A8
:1009100008600846026871480168724803F08EF862
:10092000ECE717E060496148614A624B0091019031
:10093000642003F018F8604A03C25F4903C903F05A
:10094000ABFC03460190664802686448016866A0F3
:1009500003F074F8E6E713E06BA003F06FF858209B
:100960006C4908607D20000101F0BAF866A003F030
:1009700065F81820674908607D20000101F0B0F893
:10098000EAE749E0FFE764A003F058F8654801F0A2
:100990009DFC644801F0BAFC00231A46194618462B
:1009A00001F039FC06231A461946184601F0DEFB11
:1009B00001F0C6F801F0BEF85A485B490860002013
:1009C00001F084FC01F0BCF801F0B4F857A003F08A
:1009D00035F800251FE053200006006856490843FB
:1009E000C043C943884201D1012000E000200646EF
:1009F00053200006016851A003F020F8002E02D019
:100A0000681C05B200E00025282D04DD3246294689
:100A10004BA003F013F8DEE74FA003F00FF800BF80
:100A200000BF0020FEBD00000D0A50726F677261AA
:100A30006D6D696E67204572726F72202D20435272
:100A40004320444F4553204E4F54204D415443487A
:100A5000202D2048616C74696E6720457865637548
:100A600074696F6E0D0A0000370500000000002059
:100A7000676F696E6720696E746F2073776974633E
:100A800068696E67206D6F6465210A00646F6E652A
:100A9000210A0000A0860100DC050000746F676772
:100AA0006C65210A00000000A8C64B3789489440B5
:100AB0005EBA490C024B33C01000002050C3000046
:100AC000C0450400324D487A3A2025642033326B09
:100AD000487A3A2025640000800000201800002099
:100AE0001C00002098060000324D3A2025752C206D
:100AF00033326B487A3A2025752C2054656D703A54
:100B00002025640A00000000737769746368696EC9
:100B1000670A0000000028524750494F204F4E0AF4
:100B200000000000FFFF0000000004534750494F41
:100B3000204F46460A000000FFFD000025780A000D
:100B40004772697070657220436C6F73656420250D
:100B500064202564200A0000496E76616C69642077
:100B60006D6F64650A0000004149424808604248D0
:100B7000004701B5012080F3108800F057FF0020E6
:100B800080F3108801BD01B5012080F3108800F0CA
:100B9000D5FE002080F3108801BD01B5012080F34F
:100BA000108800F0C1FD002080F3108801BD01B560
:100BB000012080F3108800F0A2FF002080F310884D
:100BC00001BD01B5012080F3108800F0CBFE0020AC
:100BD00080F3108801BD01B5012080F3108800F07A
:100BE000C6FE002080F3108801BD01B5012080F30E
:100BF000108800F0C1FE002080F3108801BD01B50F
:100C0000012080F3108800F0BCFE002080F31088E3
:100C100001BD01B5012080F3108800F044FE0020E2
:100C200080F3108801BD01B5012080F3108800F029
:100C3000CEFD002080F3108801BD01B5012080F3B6
:100C4000108800F069F8002080F3108801BD01B51C
:100C5000012080F3108800F060F8002080F31088F5
:100C600001BD000005480649064A074B70470000D1
:100C700000E100E0000000008100000060050020AD
:100C80006011002060090020600900205121090640
:100C90000870704710B503460C461846FFF7F6FF7C
:100CA00010BD10B55124240623781846FFF7EEFF37
:100CB000184610BD10B50446FFF7F3FF10BD0146FE
:100CC0000020704710B5044604492046FFF7E2FFB4
:100CD00010BD03A002F0B2FE00BFFEE7240000201A
:100CE0000D0A5445535420444F4E450D0A00000050
:100CF00010B520218C4803F070F88C488A4988612F
:100D00004B20C000C86110BD874840787047012063
:100D1000C0028749086070477047F0B591B001F094
:100D200084F90C9001F085F90B9001F086F90A9096
:100D300001F087F9054601F088F9064601F089F9C6
:100D4000099001F08AF9089001F08BF9074600F04C
:100D5000C2FF01F08EF90F9001F08FF90E9001F0B3
:100D600084F9044601F08DF9109001F08EF90D9090
:100D70006D480078401C6C49087000F0E3FF00F0FB
:100D8000DCFF6948007802286FDD67480078192881
:100D90006BDC68490E98884202D20C98401E0C9079
:100DA00065490E98884202D90C98401C0C900C9909
:100DB0000B9802F050F90B9801F0A7F80C9801F08D
:100DC000A0F8594880691099884204D25648C069F1
:100DD000401E5549C86154488069014610988142B7
:100DE00004D95148C069401C4F49C8614E49C8697F
:100DF00002F0B5F95148844203D90A98401C0A9080
:100E000009E04F48844201D96D1C04E04C48413848
:100E1000844200D9761C4B48844203D20A98401E73
:100E20000A900AE04648A038844201D26D1E04E0D0
:100E300043485F38844200D2761E2B4600961F211D
:100E400008460A9A01F012F80A9800F0E9FF2846CD
:100E500000F0E2FF304600F0DBFF3B490D9888428E
:100E600004D90898401C089013E034E037490D98E5
:100E7000884203D20898401E08900AE034490D9831
:100E8000884201D97F1C04E032490D98884200D283
:100E90007F1E00223946089800F080FF089800F075
:100EA00079FF384600F072FF00F04AFE00F042FE83
:100EB0001D4A0D990898D2690797049205910690EA
:100EC0000A99109823466A4662C2039022A00C9A9F
:100ED0000E9902F0B3FD14480078192821D1089822
:100EE000039701960095029029480A9B0C9A0B994A
:100EF00002F0A4FD0C490F984860084684600D98E4
:100F0000C860109808610E984861002029214906A0
:100F100008600120C00206498031086001200249B2
:100F2000487000BF11B0F0BD90000020BAD003009F
:100F300000E100E0C8781E0038901E00980F030002
:100F4000900D0300E80A0300D49A18002C39180009
:100F5000786F18008864180048463D25642D256484
:100F6000202020324D3D25642D25642C25642C2520
:100F7000642020204C433D25642D256420202049F9
:100F8000463D25642D25642C25640D0A00000000D3
:100F9000DC49000001204003FE4908600020FE49B2
:100FA00008607047022041070860704700B5FB48A1
:100FB0000078002802D1FFF7F5FF04E00120F8498E
:100FC0008872FFF7E7FF00BDF6480068704710B56C
:100FD00002F02BF810BDF8B507460C4615461E4624
:100FE0003120C0433070F048007C20702078A84247
:100FF00005DC2278EC491131384602F08FFEF8BD4D
:101000001FB50446E6480830431E0622811E0090A4
:101010000838FFF7E0FFFFF7BDFFE14880790628B9
:1010200025D1FFF7D4FFDE49C860FFF7CDFFDC49CB
:1010300008610846807E497ED94A127ED84BDB780B
:101040000093019202910390D54883784278017809
:10105000D64802F0F3FCD2488179D54A126890470D
:101060000020CF4988710621CD4802F0B6FE00204D
:10107000CB49C8721FBDCC498039C8607047012177
:10108000C74AD1727047C84980398860704700B537
:101090000246FFF77FFF0120C649487000BDC249E4
:1010A00080394860704710B50446C3A002F0C6FC02
:1010B00010BDBD4980390860704710B50446C3486B
:1010C000FFF7F7FFC248FFF7EAFFC248FFF7DBFF71
:1010D000C148FFF7D0FFC14800F0CBFCB448046022
:1010E00010BD0620BE4908602820AB490860704743
:1010F00070B505460C461020810608602246294638
:10110000A948703802F00AFEA74870380121890703
:1011100088600846C4600120086070BDFFB581B0DA
:1011200005460E461C4600209C490870AB4800F05E
:10113000A0FC0E212046FFF7DBFF31462846039A2C
:1011400001F0DAFFFFF7CDFF00F0A6FC7D210901D9
:101150004718384600F098FC00209649487000BFB8
:10116000944840780028FBD005B0F0BD0120400332
:10117000884908600520C002086004200107086053
:101180007047182084490860012095490860864806
:10119000103041210906486110208106086070471F
:1011A000F8B504460D4616468C4800F062FC012056
:1011B0007A4908707A480476457686760020784920
:1011C000C8720B469A7E597E187E01F095FFFFF794
:1011D000D8FFFFF7CBFF00F05FFC7D210901471826
:1011E000384600F051FC00206D49887200BF6C4801
:1011F000807A0028FBD0F8BDFFB585B005460E46C5
:101200001C460E9F694610980871684644718771A4
:101210000F99C17101AB31462846079AFFF77EFF4F
:1012200009B0F0BD40206F4908601C208905486165
:1012300008200862704710B5FF2199315A4880385C
:1012400002F0CBFD5B4800210180674956488030A1
:101250004165C91F41610F21803081824020614971
:1012600008601F208905486108200862FFF7DAFF3F
:1012700010BD102081060860704710B50446214655
:101280000B398A0048499431885801F068FF10BD35
:1012900010B5044621460B398A004349D431885899
:1012A00001F05DFF10BD70B505460C460B213E48B0
:1012B00080300174012C02D0022C0CD105E03A4997
:1012C0008031087CFFF7E4FF06E037498031087C75
:1012D000FFF7D3FF00E000BF00BF70BDF7B584B0DB
:1012E00000BF00F0BAFE019000F0BBFE00902E4857
:1012F000007C02903D48C08A401C81B23B48C182BC
:101300000025029AD1003A4B069A5A43104602F041
:1013100070FD0390092407E060003649095A601CFB
:101320004000344A1152641E002CF5DA039800B2D2
:1013300030490880002407E060002E49085E2E49ED
:10134000095D48434519641C0A2CF5DD2846E91758
:10135000C90D09184F122548C18A808A814216D1C9
:101360007D20C000874207DD0098421C01460092A4
:101370000022019800F012FD2048874207DA009809
:10138000421E014600920022019800F007FD0198DC
:1013900036E00000000010520000285276000020C5
:1013A000F003002000005452D8020020744A0000CC
:1013B00078000020740000207374617274696E6795
:1013C000207478206672616D650A0000A710000025
:1013D0008F1000007F10000001100000AD0F000012
:1013E0000000405200E100E0C3020000D8030020EA
:1013F000093D0000400200203C00002018FCFFFFD7
:1014000000F0C8FC009800F0C1FC002505981928E0
:1014100073D2092407E0A000FE490958601C80002F
:10142000FC4A1150641E002CF5DAFA490498086051
:10143000002407E0A000F7490858F749095D484330
:101440004519641C0A2CF5DD2846E917C90D091851
:101450004E12F248C18A808A81424ED14120C0009A
:10146000864221D9ED488038007C0B388100EB485A
:101470006C384058401CE9498039097C0B398A0096
:10148000E6496C39885008461438007C0B388100D6
:10149000E2482C384058401CE0498039097C0B391F
:1014A0008A00DE492C398850FF20E130864221D263
:1014B000DA488038007C0B388100D8486C384058B6
:1014C000401ED6498039097C0B398A00D3496C39D2
:1014D000885008461438007C0B388100CF482C38DF
:1014E0004058401ECD498039097C0B398A00CB49D0
:1014F0002C3988500021C948C18207B0F0BD402076
:10150000C74908607047C5488038407C7047C54867
:10151000008800B27047F1B5A2B0402112A802F0D5
:101520005CFC442101A802F058FCBC498039229897
:101530004861002459E0A200B8496C39885801F08C
:101540000EFE0020292149060860B74808600127DF
:1015500000E07F1C7D20C0018742FAD37F20292133
:1015600049060860B1480568B1480668300440196A
:10157000A10012AA5050611C4900AE4A8918129A63
:1015800051430846AB4902F02AFC611C890001AABC
:101590005050002C1CDDA00012A90958A0001058C2
:1015A0001438814209D2A1009C486C384058401C34
:1015B000A2009A496C3988500AE0A10097486C381B
:1015C00040582830611C8A0094496C398850641C4A
:1015D000002C0AD1A10091486C3840582830611C79
:1015E0008A008E496C398850641C102CA3DB0024BF
:1015F00000E0641C102CFCDB129823B0F0BDF0B5A9
:10160000B3B005460E460024402121A802F0E5FBB8
:10161000442110A802F0E1FB2022874908A8FEF728
:1016200097FD2022844920316846FEF791FD7B48D2
:10163000803845654FE0A20078492C39885801F080
:101640008EFD0020292149060860774808600120A6
:10165000319002E03198401C31907D21C9013198D0
:101660008842F7DB7F202921490608606F48076818
:101670006F480068329032980004C019A10021AA76
:10168000505062006B46995A620008AB9A5A7243F6
:10169000104602F0A4FBA10010AA5050A00021A9FE
:1016A0000958A0001058401F814209D2A1005B4890
:1016B0002C384058401CA20058492C3988500AE068
:1016C000A10056482C3840582830611C8A005349E4
:1016D0002C398850641C102CADDB33B0F0BD70B5D4
:1016E00004462046FFF717FF054652480A3000F02F
:1016F0006BFAFF202B3000F058FAFF20343000F056
:1017000054FAFF20F93000F05FFAFF20FB3000F0C0
:101710004CFAFF20FD3000F048FA29462046FFF73A
:101720006EFFFFF737FC70BD70B5012080070469BC
:10173000C5690121394880384174002D08D008203E
:101740002840002803D0002134488038417400BF6D
:1017500001208007456202202040002809D0374838
:101760000068002805D0212252065068334A1168CB
:10177000884704202040002809D0304840680028CD
:1017800005D02122520650682C4A5168884708200B
:101790002040002809D029488068002805D021224F
:1017A00052065068254A916888471020204000283A
:1017B00009D02248C068002805D02122520650686E
:1017C0001E4AD168884701208007846170BD70B5CA
:1017D0001B4805681B480668300440191A49096807
:1017E00089001A4A505018480068401C1649086081
:1017F000174800682021084315490860084600681A
:101800001449086012480068202188431049086084
:10181000084621E0480000203C000020D8030020BA
:1018200080E100E000006452FF3F00000000285209
:1018300000002C52C10300000C4900005802002097
:1018400000004452000048522C000020B00000204C
:101850003800002000000C5200682B4908602B481B
:1018600000680A281ED1012406E0A000284A115869
:1018700028A002F0E3F8641C0A2CF6D3FF20013004
:1018800026490860400025498039086000201F492A
:101890000860002400E0641C21488442FBD32148F6
:1018A0002149C86070BD10B5204A126860231A43F0
:1018B0001E4B1A601A461268134B1A601B4A1268B4
:1018C00060239A43194B1A601A4612680E4B1A602D
:1018D00001225202114B803B1A6052100F4B1A60CA
:1018E0005200134B1A60134A1068134A11680A0415
:1018F0001218064B1B689B00054CE250034A126805
:10190000521C024B1A6010BD00000C522C0000202B
:10191000B000002025580D0A0000000080E100E022
:10192000102700000400FA0500ED00E03800002058
:1019300080E200E0000044520000485210B502A0CE
:1019400002F07CF810BD000061646320696E74656C
:101950007272757074207472696767657265640D60
:101960000A00000010B509A002F068F810BD10B51B
:1019700010A002F063F810BD10B518A002F05EF8D8
:1019800010BD10B51FA002F059F810BD4578746560
:10199000726E616C20496E74657272757074204746
:1019A00050494F33207472696767657265640D0A28
:1019B0000000000045787465726E616C20496E7499
:1019C000657272757074204750494F38207472697F
:1019D0006767657265640D0A0000000045787465EC
:1019E000726E616C20496E746572727570742047F6
:1019F00050494F39207472696767657265640D0AD2
:101A00000000000045787465726E616C20496E7448
:101A1000657272757074204750494F31302074726E
:101A2000696767657265640D0A00000010B502A061
:101A300002F004F810BD0000756172742072782005
:101A4000696E746572727570742074726967676507
:101A50007265640D0A000000314800210160416098
:101A60008160C160481E2121490688600720086006
:101A700070472B49086070470320212149060863FD
:101A8000802028490860704700B50246FFF7F4FF40
:101A900021204006026100BD2120400640687047B9
:101AA000002021214906086380201E4980310860FA
:101AB000704770B504460B46FF20F5305843054685
:101AC0002046FFF7D6FFFFF7D7FFFFF7E5FF4619E0
:101AD0003046FFF7D9FF70BD0120134908707047E9
:101AE00010B5044600201049087021460F48FFF742
:101AF000E0FF00BF0C4800780028FBD010BD10B5F7
:101B00000B48046B80200749803108600848446313
:101B100003480068002802D001490868804710BDCA
:101B20000C04002000E100E07C000020D91A000035
:101B3000400000422820F7490860202008607047D4
:101B400010B500210022252126E0002221E08B0093
:101B5000F14CE358012494402340002B01D1212073
:101B600000E02020EB4B186002240346A3431846F4
:101B7000E84B186004231843E64B1860042403461E
:101B8000A3431846E34B186002231843E14B186047
:101B9000521C202ADBDB491E0029D6DA10BD00B515
:101BA000FFF7CEFFFFF7C6FF00BD10B541098A0061
:101BB000D94B9A584B01C41A0123DB07E3401A435F
:101BC0008B00D54CE25010BD10B541098A00D24BB4
:101BD0009A584B01C41A0123DB07E3409A438B0058
:101BE000CD4CE25010BD00B53220FFF7DEFF3320B0
:101BF000FFF7DBFF3420FFF7E7FF3520FFF7D5FFC6
:101C00003620FFF7D2FF3720FFF7CFFF3820FFF74E
:101C1000CCFF3920FFF7C9FFFFF7C1FF00BD00B5BA
:101C20003220FFF7D1FF3320FFF7CEFF3420FFF73C
:101C3000CBFF3520FFF7C8FF3620FFF7C5FF372061
:101C4000FFF7C2FF3820FFF7BFFF3920FFF7BCFFC7
:101C5000B248FFF7B9FFB148401EFFF7B5FFAF48E4
:101C6000801EFFF7B1FFAD48C01EFFF79EFFFFF7D4
:101C700096FF00BD00B5A948FFF7A6FFA748401E84
:101C8000FFF7A2FFA548801EFFF78FFFA348C01EE5
:101C9000FFF78BFF2520FFF788FFFFF780FF00BDD0
:101CA00000B52520FFF790FF9C48FFF78DFF9B486C
:101CB000401EFFF789FF9948801EFFF785FF974870
:101CC000C01EFFF772FFFFF76AFF00BD7F202921CA
:101CD00049060860704700B5FFF7F8FF90480268B2
:101CE00090480368180481188B488030C16429200B
:101CF000400602688C4803681804811886488030C2
:101D000001658A4802688A48036818048118824875
:101D10008030416587480268874803681804811845
:101D20007D488030816585480268854803681804CD
:101D3000811879488030C16500BD82482921490653
:101D4000086070470020292149060860704710B5D7
:101D50000446FFF7F7FFFFF7F0FF2046FFF7C0FE4E
:101D6000FFF7B9FF10BD10B577A001F067FEFFF7D0
:101D700008FAFEF7CCFF00BFFEF7C6FF0028FBD035
:101D8000FFF708F978A001F059FE10BD62498031D3
:101D9000886470476049803148647047F0B50546F3
:101DA0000E461746002411E028462041C007C00F08
:101DB000002805D0FF21B031081BFFF7F6FE04E034
:101DC000FF21B031081BFFF7FFFE641C042CEBD988
:101DD000002411E030462041C007C00F002805D084
:101DE000FF21B631081BFFF7E0FE04E0FF21B6310A
:101DF000081BFFF7E9FE641C042CEBD9012F03D16B
:101E00006148FFF7D2FE02E05F48FFF7DDFEF0BD5C
:101E100041498031C86370473F49803188637047CA
:101E20003D4980314863704701460020CA07120EC1
:101E3000104302220A405201104304220A40D200F9
:101E4000104308220A405200104310220A40520850
:101E5000104320220A40D208104340220A4052096F
:101E6000104380220A40D20910437047F0B585B074
:101E700006460C4615461F462748803086611830B6
:101E800044608560C760244998310A980861084613
:101E9000183880683D49084003463046FFF7C4FFC4
:101EA0000006C00E04902046FFF7BEFF0006C00EDD
:101EB00003902846FFF7B8FF0006C00E0290384690
:101EC000FFF7B2FF0006C00E01900A98FFF7ACFFC3
:101ED0000006C00E00900498800603430398400556
:101EE00003430298000403430198C002034300988F
:101EF000800103432020034307488030836005B0FE
:101F0000F0BD05498031C8627047034980310863DC
:101F100070470000000058521C0400207E0400009E
:101F20000000185200001C52000004520000105221
:101F3000000014520000285200002C5200003052C1
:101F400000003452FF3F000043616C6962726174AB
:101F5000696E67206672657175656E636965732E5B
:101F60002E2E0D0A000000004F70746963616C2012
:101F700063616C6962726174696F6E20636F6D700A
:101F80006C6574650D0A0000D60200001F00008019
:101F9000FFB581B00C4615461E460A9FFEA001F013
:101FA0004DFD0198FFF7B1FF2046FFF7AAFF33462A
:101FB0002A461F2108460097FFF758FF2846FFF7DB
:101FC0002FFF3046FFF728FF3846FFF721FF00229A
:101FD0000C990B98FFF7E2FE0B98FFF7DBFE0C98CD
:101FE000FFF7D4FEFFF7DBFDF8A001F027FD05B0F9
:101FF000F0BD10B5E021FD4801F0EFFE1121FB48D6
:102000008030C16203210163152141630F21816387
:10201000C163F749016416214164122181641422CD
:10202000F4491830FEF794F810BDF0488030C06ACB
:102030007047EE488030006B7047EC488030406B52
:102040007047EA488030806B7047E8488030C06B4A
:102050007047E6488030006C7047E4488030406C40
:102060007047E2488030806C7047E0488030C06C38
:102070007047DE488030006D7047DC488030406D2E
:102080007047DA488030806D7047D8488030C06D26
:102090007047D64980310864704710B504469822CD
:1020A0002146D248FEF754F810BDD34901404900FB
:1020B0004208D14B1A4011430846D04901408900DB
:1020C0008208CE4B1A4011430846CD490140090110
:1020D0000209CB4B1A40114308460106FF221202A7
:1020E000024012021143020AFF231B021A4011434D
:1020F000020E114308467047F3B500256C1E16E02A
:102100000098465D3046FFF7D0FF064600270BE0FB
:1021100020467040002804DA6000BA49484004466E
:1021200000E0640076007F1C072FF1DD6D1C019834
:102130008542E5D3E043FFF7B8FFFCBDF021014045
:1021400009110207120E11430846CC2101408910E3
:1021500033220240920011430846AA21014049104F
:10216000552202405200114308467047FFB505460C
:102170000E46174600240FE028462041C007C00F36
:10218000002804D02046F530FFF70FFD03E020467D
:10219000F530FFF719FD641C032CEDDD00240FE082
:1021A00030462041C007C00F002804D02046F93037
:1021B000FFF7FBFC03E02046F930FFF705FD641C48
:1021C000032CEDDD00240FE038462041C007C00F8E
:1021D000002804D02046FD30FFF7E7FC03E020464E
:1021E000FD30FFF7F1FC641C032CEDDD00240FE053
:1021F00003982041C007C00F002804D0E01DFA302A
:10220000FFF7D3FC03E0E01DFA30FFF7DDFC641CB0
:10221000032CEDDDFFBDFFB505460E461746002435
:102220000FE028462041C007C00F002804D0E01D61
:10223000FE30FFF7BAFC03E0E01DFE30FFF7C4FC00
:10224000641C012CEDDD002411E030462041C00764
:10225000C00F002805D02046FF300830FFF7A5FC4E
:1022600004E02046FF300830FFF7AEFC641C012C70
:10227000EBDD002411E038462041C007C00F0028E4
:1022800005D02046FF300A30FFF78FFC04E02046DF
:10229000FF300A30FFF798FC641C012CEBDD0024B2
:1022A00011E003982041C007C00F002805D0204648
:1022B000FF300C30FFF779FC04E02046FF300C3093
:1022C000FFF782FC641C012CEBDDFFBD30B589B04B
:1022D000054620224C4901A8FDF73AFF002411E0F1
:1022E0002846E040C007C00F002805D0610001AAC1
:1022F000505AFFF769FC04E0610001AA505AFFF749
:1023000054FC641C0F2CEBD909B030BD30B589B03A
:10231000054620223C49203101A8FDF719FF002481
:1023200011E02846E040C007C00F002805D061003A
:1023300001AA505AFFF739FC04E0610001AA505A83
:10234000FFF742FC641C0F2CEBD909B030BD00B57F
:10235000FF20F630FFF738FCFF20F730FFF734FCA2
:10236000FF20F830FFF730FCFF20F930FFF72CFC9E
:10237000FF20FA30FFF719FCFF20FB30FFF724FCA9
:10238000FF20FC30FFF711FCFF20FD30FFF71CFCA5
:10239000FF20FE303AE000007573696E67206D61C2
:1023A0006E75616C6C7920736574206F70746963ED
:1023B000616C2063616C6962726174696F6E207315
:1023C000657474696E67730A000000004D616E7574
:1023D000616C2063616C6962726174696F6E206305
:1023E0006F6D706C6574650D0A0000001C040020A0
:1023F000006A18004C4900005555555533333333A6
:102400000F0F0F0FB71DC10460490000FFF7CDFB90
:10241000FF20FF30FFF7C9FBF748FFF7C6FB01209D
:102420004002FFF7C2FBF448801CFFF7CDFBF248E7
:10243000C01CFFF7C9FBF048001DFFF7B6FB812069
:102440008000FFF7B2FB0020EC490860EC48FFF782
:10245000ACFB00BDF3B581B00F4600200090019E9B
:10246000B800019E82193146E6A001F0E7FAF1A01A
:1024700001F0E4FA00240CE0002507E0A000305849
:102480000121A9408843A10070506D1C202DF5DB6F
:10249000641CBC42F0D300241DE0002518E0A0001D
:1024A00030580121A9400840002809D0A000335825
:1024B0002A462146E5A001F0C1FA0098401C009090
:1024C000A00030580121A9400843A10070506D1CA4
:1024D000202DE4DB641CBC42DFD300241FE0002578
:1024E0001AE0A00030580121A94008400121A9406C
:1024F000884209D0A00033582A462146DFA001F0C7
:102500009DFA0098401C0090A00030580121A9407D
:102510008843A10070506D1C202DE2DB641CBC427E
:10252000DDD37C1E1DE01F2518E0A00030580121DE
:10253000A9400840002809D0A00033582A46214667
:10254000DAA001F07BFA0098401C0090A0003058FF
:102550000121A9400843A10070506D1E002DE4DA4E
:10256000641E002CDFDA7C1E1FE01F251AE0A0008D
:1025700030580121A94008400121A940884209D0D2
:10258000A00033582A462146D4A001F057FA0098FB
:10259000401C0090A00030580121A9408843A100B0
:1025A00070506D1E002DE2DA641E002CDDDA00246E
:1025B00016E0002511E0A00030580121A940084094
:1025C000002809D0A00033582A462146CFA001F0A8
:1025D00035FA0098401C00906D1C202DEBDB641C2C
:1025E000BC42E6D3D5A0009901F028FA0098FEBDC0
:1025F00030B50546002411E028462041C007C00F31
:10260000002805D02046FF30ED30FFF7CEFA04E079
:102610002046FF30ED30FFF7D7FA641C062CEBD9CB
:1026200030BD30B50546002411E028462041C007E2
:10263000C00F002805D072497539081BFFF7B5FA9D
:1026400004E06F497539081BFFF7BEFA641C042CBF
:10265000EBD9052411E028462041C007C00F00280F
:1026600005D067497539081BFFF7AEFA04E06449E5
:102670007539081BFFF799FA641C062CEBD930BD9D
:1026800030B50546002411E028462041C007C00FA0
:10269000002805D05A49C91C6018FFF786FA04E0E3
:1026A0005749C91C6018FFF78FFA641C042CEBD93A
:1026B000052411E028462041C007C00F002805D09E
:1026C0004F49C91C6018FFF77FFA04E04C49C91C48
:1026D0006018FFF76AFA641C062CEBD930BD30B5E0
:1026E0000546002411E028462041C007C00F0028FD
:1026F00005D043490F31081BFFF757FA04E0404962
:102700000F31081BFFF760FA641C042CEBD9A806F4
:10271000C00F002804D0E7208000FFF755FA03E03F
:10272000E7208000FFF741FA6806C00F002804D0B8
:1027300031482E30FFF748FA03E02F482E30FFF7DC
:1027400034FA30BD30B5054600240FE02846E0409D
:10275000C007C00F002804D020466B30FFF725FAD1
:1027600003E020466B30FFF72FFA641C0F2CEDDDE1
:1027700030BD30B5054600240FE02846E040C007D4
:10278000C00F002804D020467C30FFF70EFA03E08B
:1027900020467C30FFF718FA641C072CEDDD30BDB5
:1027A00030B5054600240FE02846E040C007C00FC2
:1027B000002804D02046D130FFF7F7F903E0204687
:1027C000D130FFF701FA641C0F2CEDDD30BD70B580
:1027D00005460E4600240AE02046FF30D930FFF7B8
:1027E000F3F92046FF301730FFF7EEF9641C0D2C8B
:1027F000F2DB0024BAE00000FF01000000002852D4
:10280000920300000D0A0D0A5374617274696E67B9
:10281000205352414D20746573742066726F6D2091
:102820003078255820746F20307825582E2E2E0DA4
:102830000A000000546869732074616B657320613D
:102840007768696C652E2E2E0D0A00000D0A455220
:10285000524F5220312040206164647265737320AE
:10286000255820626974202564202D2D2056616C26
:102870007565206973202558000000000D0A455237
:10288000524F52203220402061646472657373207D
:10289000255820626974202564202D2D2056616CF6
:1028A0007565206973202558000000000D0A455207
:1028B000524F52203320402061646472657373204C
:1028C000255820626974202564202D2D2056616CC6
:1028D0007565206973202558000000000D0A4552D7
:1028E000524F52203420402061646472657373201B
:1028F000255820626974202564202D2D2056616C96
:102900007565206973202558000000000D0A4552A6
:10291000524F5220352040206164647265737320E9
:10292000255820626974202564202D2D2056616C65
:102930007565206973202558000000000D0A535268
:10294000414D205465737420436F6D706C657465E0
:10295000202D2D202564204572726F72730D0A00A0
:10296000FF21E531081BFFF720F9641CAC42F7D9C1
:10297000002405E02046FF301730FFF725F9641CDE
:10298000B442F7D970BD70B505460E46002411E07B
:102990003046E040C007C00F002805D02046FF3079
:1029A000C530FFF702F904E02046FF30C530FFF7DD
:1029B0000BF9641C042CEBDD002411E02846E040F8
:1029C000C007C00F002805D02046FF30CA30FFF7EF
:1029D000ECF804E02046FF30CA30FFF7F5F8641C3D
:1029E000042CEBDD70BD70B505460E46002411E0E9
:1029F0003046E040C007C00F002805D0FF21593104
:102A0000081BFFF7D2F804E0FF215931081BFFF73C
:102A1000DBF8641C042CEBDD002411E02846E040C8
:102A2000C007C00F002805D0FF215431081BFFF755
:102A3000BCF804E0FF215431081BFFF7C5F8641C03
:102A4000042CEBDD70BD70B505460E46002411E088
:102A50002846E040C007C00F002805D02046FF30C0
:102A6000E630FFF7A2F804E02046FF30E630FFF73B
:102A7000ABF8641C042CEBDD002411E03046E04090
:102A8000C007C00F002805D0FF211631081BFFF733
:102A90008CF804E0FF211631081BFFF795F8641C41
:102AA000052CEBDD70BDF8B5F94C650DF948006AF1
:102AB0002040F84908620846C06B2840C8630846B1
:102AC000006AF549A1430843F2490862F3484862A5
:102AD000F3488862F348C862F3480863F3484863E0
:102AE000F34888630846C06BF249A9430843E949A3
:102AF000C863FF20A930FFF767F8FF20AA30FFF76F
:102B000054F83F210846FFF79EFF07210846FFF7CC
:102B10005EFE00210846FFF736FF00210846FFF75A
:102B200062FF0020FFF750F80120FFF74DF860200A
:102B3000FFF74AF8FF201030FFF746F8FF20EC308F
:102B4000FFF742F86420FFF73FF86520FFF73CF8F5
:102B50006620FFF739F86120FFF727F80020D649F3
:102B60000860D648D64908606720FFF71EF80B2694
:102B70000227F002F9010843D249086005200090BD
:102B8000D14900980860FF200E30FFF71DF8FF20A4
:102B90000F30FFF719F80020FFF72AFDF020FFF7AC
:102BA00004F85D20C000FFF700F8C848FEF7FDFFFD
:102BB000C648401CFEF7F9FF0120C5490860F8BD72
:102BC00070B5C44C650DB348006A2040B149086235
:102BD0000846C06B2840C8630846006ABE49A14346
:102BE0000843AC490862AD484862AD48403088624D
:102BF000BA48C862BA480863BA484863BA488863A2
:102C00000846C06BB949A9430843A249C8630020DC
:102C1000FEF7CBFF0120FEF7C8FF0D20FFF792FD66
:102C20002620FFF7A6FD5020FFF7BAFDEE20FEF7A5
:102C3000BCFFEF20FEF7B9FFFF200E30FEF7C4FF08
:102C4000FF200F30FEF7C0FF8420FEF7AEFF052601
:102C50009D4806600A210020FFF795FE0020FFF73F
:102C6000C7FCF020FEF7A1FF01204003A049086047
:102C7000F002086070BD10B50A467F2383435901F6
:102C8000844B9B6F9B4C2340824CA36723469B6FD6
:102C90000B43A36710BD7F22824351037D4A926F8D
:102CA0007F235B039A437B4B9A671A46926F0A43D2
:102CB0009A67704710B5F023034019090207754B56
:102CC0009B6F1B091B01734CA36723469B6F0B4330
:102CD000A3672346DB6F1B011B09E3672346DB6FFA
:102CE0001343E36710BD00B57D20C000FEF75DFF14
:102CF0008148FEF75AFF8048401CFEF756FF7E4889
:102D0000801CFEF752FF80207C4908607F20FFF77F
:102D1000D1FF3F20FFF7BFFF00217F20FFF7ABFF70
:102D200000BD70B50346002400200325AD021D4000
:102D30002C010F252D031D402D0B28433F252D0170
:102D40001D40284395022843CD0228431D072D0C22
:102D50002843E5436A4E3560C5436A4E356070BD11
:102D6000002824D14B49C96F04221143494AD16735
:102D70001146C96F02229143464AD16711468031FC
:102D800009680122D2071143424A80321160414949
:102D9000C96F49084900803AD167114680310968F6
:102DA0000722120711433B4A80321160F6E00128E6
:102DB00022D13849C96F02221143364AD1671146E0
:102DC000C96F04229143334AD167114680310968A3
:102DD000C20711432F4A803211602E49C96F8143C7
:102DE000803AD167114680310968072212071143E2
:102DF000284A80321160D1E0022823D12549C96FC9
:102E000004221143234AD1671146C96F022291431C
:102E1000204AD1671146803109684A0052081D498D
:102E200080310A608039C96F01221143194AD16784
:102E3000114680310968072212071143154A803272
:102E40001160ABE003285FD11249C96F042211431E
:102E5000104AD1671146C96F022291430D4AD167CA
:102E6000114680310968C20711430A4A8032116055
:102E70000849C96F49084900803AD1671146803135
:102E80000968012292079143024A8032116085E06D
:102E90000000FCFF1C040020E0FF5040882142009D
:102EA0003100048881403B1102817E024448ED03D9
:102EB00000000160032EE0FF000038520FA0000068
:102EC00000003C5200000C5200002452E9020000B5
:102ED000000040520000FEFFF0FF000081400C1097
:102EE0000281180044C87F01010001700008E0FF62
:102EF0000000105217F0FFFFE903000000002C5201
:102F00000000145200001852042822D1FE49C96F53
:102F100004221143FC4AD1671146C96F0222914332
:102F2000F94AD16711468031096842071143F64AD0
:102F300080321160F449C96F49084900803AD1676D
:102F4000114680310968C2069143EF4A8032116010
:102F500024E0052822D1EC49C96F04221143EA4A32
:102F6000D1671146C96F02229143E74AD1671146E2
:102F700080310968C2071143E34A80321160E24997
:102F8000C96F49084900803AD16711468031096804
:102F9000032252079143DC4A80321160704710B51A
:102FA0000A467F2383435901D74B9B6F7F246403D9
:102FB000A343D54CA36723469B6F0B43A36710BD68
:102FC00010B5044600212820FFF7E9FF0420FFF791
:102FD000C7FE01221146FF20E130FFF7A2FEFD20CF
:102FE0008000FEF7E2FD10BD70B503460C467F255C
:102FF000292676063560C54D2868C54D29680D041B
:103000002D181D60C34D2868C34D29680D042D1867
:103010002560C24D2868C24D29680D042D18156021
:1030200000253560BF4D356070BDBF480068012187
:1030300089020840002804D0BB4800888005800D24
:1030400070470020FCE7B94800787047B84800781E
:103050000007000F704770B505460E4600240FE0CC
:103060003046E040C007C00F002804D0B1496018C6
:10307000FEF79BFD03E0AF496018FEF7A5FD641C59
:10308000032CEDDDF006C00F002804D0A948001D78
:10309000FEF79AFD03E0A748001DFEF786FD002419
:1030A00011E02846E040C007C00F002805D0D72116
:1030B00089006018FEF779FD04E0D72189006018C7
:1030C000FEF782FD641C012CEBDD022411E0284692
:1030D000E040C007C00F002805D09649C91C601801
:1030E000FEF772FD04E09349C91C6018FEF75DFD10
:1030F000641C042CEBDD70BDF7B584B00546E80612
:10310000C00E03900598C006C00E02900698C00637
:10311000C00E01900398FFF711F800900298FFF796
:103120000DF806460198FFF709F80446002300272A
:1031300000BF00BF00980090782020404002034369
:10314000F00003430098C008034380202040C009DA
:1031500007436F4803607848076007B0F0BDF0B5DB
:1031600085B0054600260027172003908C2002908A
:103170002846029900F03DFE1330C0B20090284668
:10318000029900F036FE0D462846039900F031FE04
:1031900041004018C019C0B201902846039900F0C0
:1031A00028FE022800DB00BF2846039900F021FE1C
:1031B0008819C4B20F2C00DD641C224601990098C6
:1031C000FFF79AFF05B0F0BD38B5FEF712FFFDF727
:1031D0008FFDFEF730F8FEF73FFCFFF7B8F841200F
:1031E000FFF71FFA3120FFF771F80020FFF78EF884
:1031F0000323002211461046FFF70DF806231A4656
:1032000019460A20FEF7B2FF4C48FEF7CEFC3E4AB4
:103210008032D16A106BFFF71EFF4848001DFEF791
:10322000C4FC4748FEF7C1FC3120FEF7BEFC30204D
:10323000FEF7BBFC2F20FEF7C7FC2E20FEF7B5FCE7
:103240002D20FEF7C1FC2C20FEF7AFFC2B20FEF753
:10325000ACFC2A20FEF7A9FC38480930FEF7A5FC93
:1032600037484630FEF7A1FC2920FEF79EFC0224D9
:1032700003E02046FEF799FC641C092CF9DBFFF7FC
:1032800012FCFFF730FD204A8032916C506C002216
:10329000FEF784FD1C488030C06B00901A488030D7
:1032A000836B1F21426B0846FEF7E0FD234821385F
:1032B000FEF77BFC4B20C000FFF751FF7D20000193
:1032C000FFF77EFEFEF73CFCFEF734FC38BDF8B598
:1032D000002029214906086012480860012700E003
:1032E0007F1C18488742FBDB7F20292149060860A4
:1032F0000648046806480568280406190846046854
:1033000011480568280421E01C0400200000185220
:1033100000001C520000285200002C5200003052C5
:1033200000003452FF3F00000000405200005452A1
:1033300000003C5266030000000020527B040000A5
:103340002902000050C30000000004520019009040
:103350007003009900F043FDF8BD18B536480069C8
:10336000354C0090E368A2686168183CA069FEF7DC
:103370007DFD18BD10B500210BE003689B0F0468AC
:10338000E40E6340DA07D20F03685B001343036067
:10339000491C0829F1DB10BD27489838806F0121AE
:1033A0000905884324499839886770472248983826
:1033B000806F0121090508431F49983988677047C4
:1033C0001D489838006C0921C90688431A49983964
:1033D0000864704718489838006C0921C9060843EA
:1033E0001549983908647047134818380068012156
:1033F000C904084310491839086070470E48183846
:1034000000680121C90488430B49183908607047D6
:1034100009481838006803214904884306491839C7
:1034200008607047044818380068032149040843BD
:103430000149183908607047B404002070B503468C
:103440000A460121012400BF00BFF94D2D68102656
:103450003543F74E356035462D68F64E3540F44E0F
:103460003560A6E010290DD2F14D2D68F14E203EB9
:103470007540ED43EE4E3560002000E0401C904268
:10348000FCD395E0EA4D2D68EA4E10363543E94EFF
:103490002036B54245D1E64D2D68E64E403E75409A
:1034A000ED43E34E3560491C002000E0401C904293
:1034B000FCD3DF4D2D68DF4E203E7540ED43DC4EE2
:1034C0003560491C002000E0401C9042FCD3D84DE0
:1034D0002D68D84E203E7540ED43D54E3560491CD1
:1034E000002000E0401C9042FCD3D14D2D68D14E0D
:1034F000203E7540ED43CE4E3560491C002000E073
:10350000401C9042FCD3CA4D2D68CA4E303E7540D7
:10351000ED43C74E3560002000E0401C9042FCD3D4
:1035200044E0C34D2D68C34E303E7540ED43C04E60
:103530003560491C002000E0401C9042FCD3BC4D8B
:103540002D68BC4E203E7540ED43B94E3560491C98
:10355000002000E0401C9042FCD3B54D2D68B54ED4
:10356000203E7540ED43B24E3560491C002000E01E
:10357000401C9042FCD3AE4D2D68AE4E203E7540AF
:10358000ED43AB4E3560491C002000E0401C9042EA
:10359000FCD3A74D2D68A74E403E7540ED43A44E89
:1035A0003560002000E0401C9042FCD30021641CE8
:1035B000491C9C4200D255E70FE00B290CD29C4DD0
:1035C0002D689C4E203E7540ED43994E356000209D
:1035D00000E0401C9042FCD3491C0B29EDD3944DD4
:1035E0002D6830263543924E356000210FE00C29BE
:1035F0000CD28F4D2D688F4E203E7540ED438C4E82
:103600003560002000E0401C9042FCD3491C0C298E
:10361000EDD370BD70B503460A460121012400BFF9
:1036200000BF834D2D680E023543814E356035460F
:103630002D68814E35407E4E3560A5E010290DD2B3
:103640007B4D2D687B4E203E7540ED43784E3560B6
:10365000002000E0401C9042FCD394E0744D2D68A3
:10366000754E3543734E2036B54245D1704D2D68A9
:10367000714EC0367540ED436D4E3560491C0020DB
:1036800000E0401C9042FCD3694D2D68694E203EFD
:103690007540ED43664E3560491C002000E0401C3B
:1036A0009042FCD3624D2D68624E203E7540ED4342
:1036B0005F4E3560491C002000E0401C9042FCD366
:1036C0005B4D2D685B4E203E7540ED43584E356096
:1036D000491C002000E0401C9042FCD3544D2D6852
:1036E000554E403E7540ED43514E3560002000E0A0
:1036F000401C9042FCD344E04D4D2D684E4E403E60
:103700007540ED434A4E3560491C002000E0401CE6
:103710009042FCD3464D2D68464E203E7540ED4309
:10372000434E3560491C002000E0401C9042FCD311
:103730003F4D2D683F4E203E7540ED433C4E356079
:10374000491C002000E0401C9042FCD3384D2D68FD
:10375000384E203E7540ED43354E3560491C002003
:1037600000E0401C9042FCD3314D2D68324EC036F3
:103770007540ED432E4E3560002000E0401C904225
:10378000FCD30021641C491C9C4200D256E70FE088
:103790000B290CD2264D2D68264E203E7540ED4358
:1037A000234E3560002000E0401C9042FCD3491CB1
:1037B0000B29EDD31E4D2D680326360235431C4ED2
:1037C000356000210FE00C290CD2194D2D68194EDF
:1037D000203E7540ED43164E3560002000E0401C51
:1037E0009042FCD3491C0C29EDD370BD10B50146A5
:1037F00000230F4C236000200FE00C280CDA0C4B48
:103800001B680C4C203C6340DB43094C23600022C6
:1038100000E0521C8A42FCD3401C0C28EDDB10BD9A
:103820000146002200201023014C236024E0000008
:1038300000000453DFFF0000FFFD0000292A0CD226
:10384000214B1B68214C6340DB431F4C236000204D
:1038500000E0401C8842FCD30DE01B4B1B681B4C56
:10386000303C6340DB43184C2360002000E0401CE8
:103870008842FCD30022521CE0E702201449086071
:10388000704701204003124908607047012040033F
:10389000104908600E4980310860704770B51346C2
:1038A0004D1E0126AE40344600220AE00546254062
:1038B000002D01D0012500E0002596009D5140001B
:1038C000521C8A42F2DB70BD00000453BFFF0000AF
:1038D00000E100E080E200E0014688027047014616
:1038E0000A46C817800D8018801270477FB50446BD
:1038F000A005800D00F04BFD05460022314B00F085
:1039000051FD039102902046FFF7E9FF054600F0C4
:103910003EFD01910090039B029A00F08DFC04B0E3
:1039200070BD0246501870470246501A7047F8B5ED
:1039300004460F462046394600F0BAFF05460122EC
:103940009202002300F041F8F8BDF8B507460C4696
:1039500038460121890200F0ABFF05462246E317F5
:1039600000F033F8F8BDF0B51FB486B014461D461C
:103970000698FEF7ECF9FEF778FB0590FEF779FB69
:103980000490FEF7DFF9FEF7D8F90498FFF7A4FFDB
:1039900007460598FFF7A0FF39460190FFF7D5FFCE
:1039A0000646FFF7A3FF0391029020462946039B9A
:1039B000029A00F0F7FC0646119B109A00F03CFCBE
:1039C0000BB0F0BD0000503F704770B500252C468D
:1039D000AD1A9C4112DA00252C462D1A8C4102DAD0
:1039E00000F005FE70BD002440428C41214600F0ED
:1039F000FEFD002440428C41214619E000252C4662
:103A00002D1A8C410ADA002452429C41234600F0D0
:103A1000EEFD002440428C41214670BD00245242FC
:103A20009C414042234600248C41214600F0DFFDAA
:103A3000002452429C41234670BD00000FB405494A
:103A400010B503AA029800F0DFFE10BC08BC04B059
:103A500018470000240000200FB41CB5074B06AA2D
:103A60007B4469460090059800F09FFE002069465F
:103A700000F0AEFE1CBC08BC04B018476D0D000081
:103A800070B5044685690068C10601D5302600E09E
:103A90002026C00707D070BD62683046A1689047F5
:103AA000206A401C20626D1EF6D570BD70B50446BC
:103AB00085690078C00707D170BD6268A1682020C1
:103AC0009047206A401C20626D1EF6D570BD70B50F
:103AD0000C460546012A05D02878800600D5EA69FB
:103AE000002302E0012305E05B1C934202D2E05C6C
:103AF0000028F9D1A869E618C01AA861286AC01878
:103B000028622846FFF7BCFF04E06A682078A968AD
:103B1000641C9047B442F8D32846FFF7C7FF70BD36
:103B2000F7B5002575291068009914A611D0C04674
:103B3000C046002802DA404211A608E00099096850
:103B40008A0701D50FA602E0490704D50EA6012574
:103B500001E0C046C046009F0024243704E000F086
:103B600067FE30313955641C0028F8D12B463246A7
:103B70002146009800F0BCFDFEBD000000000000E2
:103B80002D0000002B0000002000000070B504464E
:103B90000D4621461068C046C0462188090502D559
:103BA0000F4A7A4402E00E4A7A440E32234600213C
:103BB000243305E006070009360F965D5E54491C64
:103BC0000028F7D120780023000705D5702D03D0F9
:103BD000002901D002231132204600F089FD70BD7A
:103BE000FA0D0000F3B50446002081B020622046A3
:103BF000E168884700287DD0252802D06268A16846
:103C000083E0454F00257F442046E168884720280F
:103C1000064608DB312E06D2B81920380078002875
:103C200001D00543F0E7A80701D504208543002013
:103C3000E0610746A0612A2E0AD0304600F05EFE01
:103C4000002827D0B8000019303E0090866119E0A6
:103C50000298BA00121902C8916102902046E168E8
:103C60008847012F064617D1E06900281FDA202077
:103C700085431CE000980A21806948430099801917
:103C8000303888612046E1688847064600F036FEF5
:103C90000028EFD1012F0AD02E2E08D12046E1684E
:103CA00088470646202005437F1C022FC3DBA069FE
:103CB000002803DA4042A06101200543E80701D053
:103CC00010208543002E24D030464138192803D8CF
:103CD0000120C00205432036204625603146029A65
:103CE0001546FCF70BFA00280CD0012807D0ED1D73
:103CF000E80800E00DE0C0000830029077E72D1DD5
:103D0000029574E762683046A1689047206A401CBB
:103D10006CE7206AFEBD0000BE0D0000F8B5042A65
:103D20002CD3830712D00B78491C0370401C521E01
:103D300083070BD00B78491C0370401C521E83076D
:103D400004D00B78491C0370401C521E8B079B0F3C
:103D500005D0C91ADF002023DE1B08C90AE0FCF7E2
:103D6000F7F9F8BD1D4608C9FD401C46B4402C4378
:103D700010C0121F042AF5D2F308C91A521EF0D43B
:103D80000B78491C0370401C521EEAD40B78491C66
:103D90000370401C012AE4D409780170F8BD01E0E9
:103DA00004C0091F0429FBD28B0701D50280801CA7
:103DB000C90700D00270704700290BD0C30702D09A
:103DC0000270401C491E022904D3830702D50280D9
:103DD000801C891EE3E70022EEE70022DFE70022D5
:103DE00003098B422CD3030A8B4211D300239C4638
:103DF0004EE003460B433CD4002243088B4231D3B0
:103E000003098B421CD3030A8B4201D394463FE043
:103E1000C3098B4201D3CB01C01A524183098B42A3
:103E200001D38B01C01A524143098B4201D34B018C
:103E3000C01A524103098B4201D30B01C01A5241EF
:103E4000C3088B4201D3CB00C01A524183088B4276
:103E500001D38B00C01A524143088B4201D34B005F
:103E6000C01A5241411A00D20146524110467047D1
:103E70005DE0CA0F00D04942031000D340425340D6
:103E800000229C4603098B422DD3030A8B4212D396
:103E9000FC22890112BA030A8B420CD389019211C8
:103EA0008B4208D3890192118B4204D389013AD005
:103EB000921100E08909C3098B4201D3CB01C01ADA
:103EC000524183098B4201D38B01C01A52414309ED
:103ED0008B4201D34B01C01A524103098B4201D3DB
:103EE0000B01C01A5241C3088B4201D3CB00C01A48
:103EF000524183088B4201D38B00C01A5241D9D260
:103F000043088B4201D34B00C01A5241411A00D2E0
:103F10000146634652415B10104601D34042002BDC
:103F200000D54942704763465B1000D3404201B55B
:103F30000020C046C04602BD704770477047000071
:103F4000F0B50C46871A9C410D46861A9D4103D256
:103F5000C01BA141D21963410D0D1F0DC94EEC1BB1
:103F6000AE435CD07F057F0D0026002F51D02D057C
:103F7000AC46A943DD020123ED0A1B051D432023A6
:103F80001B1B24D41746E740381871412F46E740E1
:103F9000CC199D402818314661410C0D27D1614450
:103FA0009A4013D50023401C594152000ED14008BD
:103FB000400001224B005205D34207D305204007A1
:103FC000C14201D5B04900E0B0493046F0BD6B00B8
:103FD000002A00D001229A181F23203C1B1B01D568
:103FE000002302E0E540281871410C0DD7D00124D0
:103FF00024050919C407CD0740084908E40F2843E0
:104000006144002CD5D00024401C61419A40D0D19D
:10401000CDE76A05520DD9D1C90FC907D5E79C4D27
:104020004E00002801D0012400E0002434195F0074
:10403000002A01D0012600E00026BE19954FAC42AF
:104040000CD8AE420AD8B44206D001256D05EC4228
:10405000BCD010461946F0BD9942FCD0002039462C
:10406000F0BDF0B51FB40C460F46811A9F4125469E
:10407000861A9D4106D20125ED076F40401ABC41CA
:1040800052187B41210D1E0D8D1BAC467D4D8D437D
:104090007ED075056D0D7CD00D05AE46AC431B037F
:1040A0001B0B794D52429D41202366469B1B14D326
:1040B0001746F740381800260090744160462F4696
:1040C0000741E41900989D402818664116D47146AE
:1040D00071189A4025D5012320E093182A466A4199
:1040E0005200002B00D0521C1E23203E9B1B002B95
:1040F00061DD3541EE1728186641E8D50018764194
:104100005B1C9A4000D3401C4B05F3181524E34078
:1041100010D3002B52D071467118D30FC01802D3A0
:10412000491C05B0F0BD0123DB079A42F9D14008D4
:104130004000F6E701225205B21801D1002853D001
:104140000123CC0ADB029943891E002A08D1020C04
:1041500003D0020C0004103902E00246002020398E
:104160000023550B05D112020823550B01D1520132
:104170000D23550C01D112011B1DD50C01D192004C
:104180009B1C150D01D152005B1C2025EE1A01E08D
:104190002CE022E00546F54015439840CA1AE10795
:1041A00069181305C918002ABBDA0320400708184C
:1041B000C10FC9070FE071466118B2E7F107400867
:1041C0000843711071444A000CD001235B059A42E8
:1041D000A7D2C90FC9070020A3E74905490D26D179
:1041E000002001E00028F4D100219AE7284D660064
:1041F000002801D0012100E0002171185F00002A91
:1042000001D0012600E00026BE19224FA94210D895
:10421000AE420ED8B14208D001256D05E94206D064
:104220001946A802414010467BE79C4201D0214636
:1042300077E70020394674E710B50C465C4005D599
:104240000124E4076340FFF70CFF10BDFFF778FE81
:1042500010BD30B40C465C4004D50124E407634033
:1042600030BC6DE630BCFCE670B50124E40761406B
:104270000D465D4002D4FFF763FE70BD6340FFF75B
:10428000F0FE70BDFF0700000000F0FF0000F07FAF
:104290000000E0FF0000F87F30B50346CA02400D81
:1042A0001043164D164C0A1502D02043002A06DB97
:1042B000AA1A002A12DDD040FF2A0BDC30BD5205BD
:1042C000520D01D140004008AA1A07D4D040404204
:1042D000FF2A01DD002030BD0028FCDD4A00002B54
:1042E00001D0012000E00020101801225205D04228
:1042F000F0D8C817C043604030BD00001E04000065
:10430000000000800346CA02400D10B510430A1594
:1043100004D00124E4072043002A05DB0A4CA21A3A
:1043200004D4D040FF2A00DD002010BD4A00002B3D
:1043300001D0012000E00020101801225205D042D7
:10434000F2D8C817C04310BD1E0400001F22030C82
:1043500002D10F22000402D0030E03D004E000209B
:10436000014670470002083A030F01D10001121FF5
:10437000830F01D18000921E002801DB4000521EF5
:10438000120551184205C012411810467047C10F5E
:10439000C90700D04042012292071143D6E701210C
:1043A0008907D3E7F0B58B4C0F09254689B0BD438B
:1043B0007BD01D092646AE43FAD00E465E4027400C
:1043C000F60F3E43254071D024012142FBD0FF244B
:1043D000AD19A4042D1B039501252D05DB02DB0A75
:1043E000C9022B43C90A29431E010901040F130FF7
:1043F000050121431701880B820391432D098C4647
:10440000A90B1E438A039543B30B9A0396433F09B6
:10441000BA0B9403A74302962E467E430497B646F2
:104420004E19D7190C460196544305977E43371B06
:104430007646BF1B3601B646BE0B36190096764649
:10444000BC043719009C01D3641C00946400002F45
:1044500001D001263443029E049F754366467E4385
:104460000496760034196E0034190094029C019E63
:104470001C196643751BAE46069465464519059C96
:1044800005956C43594375460891691A0191049E3C
:1044900001465143A41B0491611A009C0791E10657
:1044A00005D061090122114302E072E06EE061096A
:1044B000089D00272C0A2D066918049D7C412A0AB4
:1044C0002D066918019D6241AC0DAD026D18544175
:1044D000079A910D920255196141029A6446584318
:1044E0005443069B059A5A43121A131B9A0E9B01BA
:1044F0005B187A41010B0005C3185141220A2006BE
:1045000044195A419A4200D2491C0120400281427A
:1045100003D315230226F64302E014230326F643B1
:104520002020C51AA9401746AF40DA400A4320466A
:104530000399D8400914731819055118039A384380
:10454000D2075140AC4009D00122944006D300224A
:10455000401C5141002C01D1400840001E4A9342AA
:1045600012D3012203989206904207DB05204007F0
:1045700009181A480143C012414004E003204007D3
:104580000818C10FC907002009B0F0BD0020F107CD
:10459000FAE705180C464C4111486D42A04115D36D
:1045A00094181A465A410E48644290410ED3012095
:1045B0004A004005824209D35A00824206D359403C
:1045C000C90F084AC90700201143DDE7002006494A
:1045D000DAE700000000FF07FE070000FFFFFF7F93
:1045E0000000E0FF0000F07F0000F87F7047FEB59C
:1045F000054610460C46184373D0AE468C46002044
:10460000AD1A01469C4167D36646002701243D460A
:10461000B61A9D4102D313463A4621246546764692
:104620002F04360C3E432D0CB61A9D4104D3150CB5
:104630001B042B4312041034654676462F06360AB7
:104640003E432D0AB61A9D4104D3150E1B022B437F
:1046500012020834654676462F0736093E432D0977
:10466000B61A9D4104D3150F1B012B431201241DC3
:1046700065467646AF07B6083E43AD08B61A9D417B
:1046800004D3950F9B002B439200A41C65467646ED
:10469000EF0776083E436D08B61A9D411AD392186B
:1046A0005B41641C16E00018764665464941B71A1E
:1046B0009D410191009009D36046B11A98418E4600
:1046C0008446009801990025401C6941DD07520885
:1046D0002A435B08641EE6D57246634603B0F0BD0C
:1046E000FFE700200146C046C0462A462346F5E7BC
:1046F000FFB504460D4681B024300090216888063D
:1047000004D51022E0699143216000E00120A84215
:1047100001DD471B00E000270498A1697A191018F1
:10472000081AA0612078C00602D42046FFF7A8F935
:10473000002608E003986268A168805D9047206ABF
:10474000401C761C206204988642F3DB2078C00669
:104750000AD52046FFF794F906E06268A168302088
:104760009047206A401C206238467F1E0028F4DCF7
:1047700007E000986268A168405D9047206A401C8D
:10478000206228466D1E0028F3DC2046FFF78EF9D4
:104790002078000602D5022005B0F0BD0120FBE71D
:1047A00001694A1C02610878704700B58FB0029118
:1047B0000021059105490193794403911146049024
:1047C0006846FFF70FFA0FB000BD0000E5FFFFFFDE
:1047D0000A681070521C0A60704710B54369002BBC
:1047E00002D0C046C04601E0FFF771F9012010BDBC
:1047F0001278014624310A7000224A700122ECE747
:1048000011680022D243E8E7084B70B50D467B449F
:10481000FFF7CBFF04462846FCF751FA002802D0E8
:104820000020C04370BD204670BD000083C4FFFF60
:1048300001468008081A02091018020A1018020C12
:104840001018C008820012185200891A01E0401C9A
:104850000A390A29FBD27047754600F025F8AE46A2
:10486000050069465346C008C000854618B020B50B
:10487000FCF7F8F960BC00274908B6460026C0C519
:10488000C0C5C0C5C0C5C0C5C0C5C0C5C0C5403D08
:1048900049008D46704710B50446C046C0462046C4
:1048A000FBF750FC10BD000000487047FC040020DE
:1048B000F8B582B28BB204140D141046584300218F
:1048C00026465E43371436048019794116466E43F6
:1048D000371436048019794126466E438919F8BD8C
:1048E00030B47446641E2578641CAB4204D3635D07
:1048F0005B00E31830BC18471D46F8E730380A283B
:1049000001D2012070470020704700002203880375
:10491000A1030D01B503B20171014202C701CA032F
:104920008B0029014B026D0075019F002103850357
:104930009C030B01AC03AD016C013902BF01B7034D
:10494000880022013C026A006A019A001F000000F0
:104950001F0000001D000000020000000200000017
:104960006B046D046F0471047404760478047A0493
:104970005B045D045F0461046404660468046A0403
:104980006C046E0470047204730475047704790473
:104990005C045E04600462046304650467046904E3
:1049A0003031323334353637383941424344454665
:1049B000403058003031323334353637383961625F
:1049C0006364656640307800040000080000000061
:1049D0000000000200010000100000002364656672
:1049E000696E652048465F434F4152534520257507
:1049F0000A23646566696E652048465F46494E45F0
:104A00002025750A23646566696E65205243324D20
:104A10005F434F415253452025750A2364656669FB
:104A20006E65205243324D5F46494E452025750A3A
:104A300023646566696E65205243324D5F5355505D
:104A4000455246494E452025750A23646566696EC0
:104A5000652049465F434F415253452025750A233F
:104A6000646566696E652049465F46494E45202566
:104A7000750A00005061636B6574206E756D2025AA
:104A8000642E205061636B657420636F6E74656E75
:104A9000747320312D333A20256420256420256449
:104AA00020636F617273653A202564096D69643A09
:104AB0002025640966696E653A2025640A000000B5
:104AC000E04A00000000002080000000C400000058
:104AD000604B000080000020E0100000E0000000BB
:104AE0000200000000000000001717001616130057
:104AF00000000000000000000000000000000000B6
:104B00000000000000000051000000510000000003
:104B1000000000000000000000000000041025401C
:104B20005760574025100400F4010000F401000014
:104B3000F4010000F4010000F4010000F4010000A1
:104B4000F4010000F4010000F4010000F401000091
:104B50000000000000000000000000000000000055
:0400000500000000F7
:00000001FF
