:020000040000FA
:10000000201100205D05000000000000000000003D
:1000100000000000000000000000000000000000E0
:1000200000000000000000000000000000000000D0
:1000300000000000000000000000000000000000C0
:1000400067050000B70500002F0600007B050000D3
:1000500000000000000000008F050000A305000064
:10006000070600001B060000000000004306000019
:10007000CB050000DF050000F305000000000000D4
:1000800000F002F800F05AF80CA030C80838241824
:100090002D18A246671EAB4654465D46AC4201D1C0
:1000A00000F04CF87E460F3E0FCCB6460126334298
:1000B00000D0FB1AA246AB46334318472834000051
:1000C00048340000103A02D378C878C1FAD85207F1
:1000D00001D330C830C101D504680C6070470000FE
:1000E0000023002400250026103A01D378C1FBD854
:1000F000520700D330C100D50B60704710B570298E
:1001000002D102F016FF10BD642902D102F0A6FE52
:1001100010BD752902D102F0A1FE10BD782902D1CF
:1001200002F0FAFE10BD732902D103F08CF810BD65
:10013000002010BD1FB51FBD10B510BD03F0C8F8DD
:100140001146FFF7F7FF00F0C6F803F0E0F803B43C
:10015000FFF7F2FF03BC00F0B6FA000070B50546E9
:100160000C46164602E00FCC0FC5103E102EFAD2F8
:10017000082E02D303CC03C5083E042E07D301CCBE
:1001800001C5361F03E021782970641C6D1C761EA2
:10019000F9D270BDF7B588B0002002900898012808
:1001A00002D18BA0019001E08CA001900998002859
:1001B0001AD10898012803D117240525042602E046
:1001C000172404251526601CC0B20590681CC0B217
:1001D0000490701CC0B203902B462246009681A06A
:1001E000019902F0CDFD0BE01724182005900025A1
:1001F000202004900026039081A0019902F0C0FD08
:1002000067E0274662E007955AE0069650E001F065
:1002100020FA0020009002E00098401C00907C49E9
:1002200000988842F8DB01F030FA0998002805D0E0
:10023000394678A0069B079A02F0A2FD00200090A4
:100240002FE00898002805D13846069A079900F053
:10025000CCFC0EE077490298087008464770079872
:1002600088700698C8700B463846069A079900F0C1
:100270005CFC0298401C02900A98002804DD6EA0E5
:100280000A9A029902F07CFD0A990298884205D1E7
:100290006FA0019902F074FD0BB0F0BD0098401CF6
:1002A000009000980128CCDB0698401CC0B2069054
:1002B000039906988842AADB0798401CC0B20790B1
:1002C000049907988842A0DB781CC7B2059887423A
:1002D00099DB96E7704770B561A002F051FD64A00C
:1002E00002F04EFD68A002F04BFD6F48816B0020CC
:1002F00001F0BAFB05466C48C06BA84203D16BA065
:1003000002F03EFD04E06CA002F03AFD00BFFEE703
:1003100002F0E0FB784800F0DDFB01F0D2F90220AA
:10032000030003F001F806040B12293A3F4E0022A5
:10033000D24300210120FFF72DFF46E00022D243E7
:1003400000210846FFF726FF3FE06CA002F018FDF1
:1003500000240AE0012200211046FFF71BFF0122C2
:1003600000210846FFF716FF641C012CF2DB6AA08F
:1003700002F006FD00BFFEE7012200211046FFF754
:1003800009FF002400E0641C65488442FBDB012275
:1003900000210846FFF7FEFE17E002E061A002F030
:1003A000EFFCFBE761A002F0EBFC00F00FFC01F0BA
:1003B00050F905E0002400E0641C63488442FBDB44
:1003C000F8E762A002F0DCFC00BF00BF002070BDB7
:1003D0007472616E736D697400000000726563650C
:1003E000697665004669786564202573206174200C
:1003F000633A2575206D3A257520663A25750A0001
:100400005377656570696E672025730A00000000E8
:1004100088130000636F617273653D25642C206D45
:100420006964646C653D25642C2066696E653D25B4
:10043000640D0A00000000207061636B6574202564
:1004400064206F7574206F662025640A0000000028
:1004500073746F7070696E672025730A0000000066
:10046000496E697469616C697A696E672E2E2E0017
:100470000D0A2D2D2D2D2D2D2D2D2D2D2D2D2D2DEF
:100480002D2D2D2D2D0D0A0056616C696461746946
:100490006E672070726F6772616D20696E74656738
:1004A000726974792E2E2E00C0FF00004352432043
:1004B0004F4B0D0A000000000D0A50726F67726109
:1004C0006D6D696E67204572726F72202D204352E8
:1004D0004320444F4553204E4F54204D41544348F0
:1004E000202D2048616C74696E67204578656375BE
:1004F00074696F6E0D0A0000D5020000676F696EA7
:100500006720696E746F20737769746368696E67BA
:10051000206D6F6465210A00646F6E65210A00001A
:10052000A086010069646C650A0000006C6F77208A
:10053000706F7765722069646C6520726164696FA1
:10054000206F6E0A0000000010270000496E7661DF
:100550006C6964206D6F64650A000000414942487F
:1005600008604248004701B5012080F3108800F080
:10057000BDFF002080F3108801BD01B5012080F38C
:10058000108800F03BFF002080F3108801BD01B50A
:10059000012080F3108800F002FE002080F3108814
:1005A00001BD01B5012080F3108800F0E2FF0020BA
:1005B00080F3108801BD01B5012080F3108800F0A0
:1005C00031FF002080F3108801BD01B5012080F3C8
:1005D000108800F02CFF002080F3108801BD01B5C9
:1005E000012080F3108800F027FF002080F310889E
:1005F00001BD01B5012080F3108800F022FF00202A
:1006000080F3108801BD01B5012080F3108800F04F
:10061000A9FE002080F3108801BD01B5012080F300
:10062000108800F019FE002080F3108801BD01B58C
:10063000012080F3108800F068F8002080F3108813
:1006400001BD01B5012080F3108800F05FF80020A3
:1006500080F3108801BD000005480649064A074B93
:100660007047000000E100E0000000008100000091
:100670002005002020110020200900202009002052
:10068000512109060870704710B503460C461846FC
:10069000FFF7F6FF10BD10B5512424062378184645
:1006A000FFF7EEFF184610BD10B50446FFF7F3FF45
:1006B00010BD01460020704710B50446044920468D
:1006C000FFF7E2FF10BD03A002F05AFB00BFFEE7F8
:1006D000080000200D0A5445535420444F4E450D48
:1006E0000A00000010B520218B4802F08EFC8B48D8
:1006F000894988618A48C86110BD87484078704739
:100700000120C0028749086070477047F0B593B078
:1007100001F0FAF80C9001F0FBF80B9001F0FCF8F6
:100720000A9001F0FDF8054601F0FEF8064601F0DA
:10073000FFF8099001F000F9089001F001F907466F
:100740007F2029214906086073480078401C7249BF
:1007500008702920400600681290734800681190C4
:1007600011980104129808180F90704800681290B0
:100770006F480068119011980104129808180E90A3
:100780006C48006812906C48006811901198010440
:1007900012980C1869480068129069480068119016
:1007A0001198010412980818109066480068129079
:1007B00065480068119011980104129808180D906E
:1007C00000202921490608606048086052480078E6
:1007D000022863DD5E490E98884202D20C98401EC2
:1007E0000C905C490E98884202D90C98401C0C90E1
:1007F0000C990B9802F0B5F80B9801F034F80C98AE
:1008000001F02DF85448844203D90A98401C0A90FC
:1008100009E05248844201D96D1C04E04F48413838
:10082000844200D9761C4E48844203D20A98401E66
:100830000A900AE04948A038844201D26D1E04E0C3
:1008400046485F38844200D2761E2B4600961F2110
:1008500008460A9A00F0B8FF0A9800F08FFF284671
:1008600000F088FF304600F081FF3E490D98884235
:1008700000D97F1C3C490D98884200D27F1E00227F
:100880003946089800F038FF089800F031FF3846E4
:1008900000F02AFF00F08AFE00F082FE1E490D984B
:1008A000C969109A06970392049105900A98234605
:1008B000694661C12DA00C9A0E9902F061FA1648A2
:1008C0000078142825D10898039701960095029086
:1008D00033480A9B0C9A0B9902F052FA0120C0028D
:1008E00010498031086000200B49087001204870D1
:1008F0000F984860084684600D98C8601098086199
:100900000E98486127A002F03BFA002029214906F1
:10091000086013B0F0BD00006800002094D103000F
:10092000BA02000000E100E0000004520000105292
:10093000000014520000185200001C5200002852FF
:1009400000002C520000305200003452FF3F0000E3
:10095000C8781E0038901E00980F0300900D030009
:10096000E80A0300786F18008864180048463D259F
:10097000642D2564202020324D3D25642D25642CD6
:1009800025642C25642020204C433D25642D2564BE
:1009900020202049463D25642D25640D0A000000D5
:1009A00000340000646F6E650D0A000001204003F2
:1009B000FE4908600020FE49086070470220410798
:1009C0000860704710B5FB480178FBA002F0D8F929
:1009D000F8480078002805D1FFF7F0FFFAA002F0F0
:1009E000CFF904E00120FC498872FFF7DFFF10BD5A
:1009F000FA480068704710B501F09DFF10BDF8B5CA
:100A000007460C4615461E463120C0433070F44858
:100A1000007C20702078A84205DC2278F049113152
:100A2000384602F093FAF8BD1FB50446EA4808308C
:100A3000431E0622811E00900838FFF7E0FFFFF7F3
:100A4000B5FFE5488079062825D1FFF7D4FFE249B4
:100A5000C860FFF7CDFFE04908610846807E497E07
:100A6000DD4A127EDC4BDB78009301920291039009
:100A7000D948837842780178DA4802F081F9D6487B
:100A80008179D94A126890470020D349887106219C
:100A9000D14802F0BAFA0020CF49C8721FBDD04930
:100AA0008039C86070470121CB4AD1727047CC4968
:100AB00080398860704710B50446CCA002F060F918
:100AC000FFF774FF0120CD49C87110BDC4498039BA
:100AD0004860704710B50446C948FFF7F7FFC9489A
:100AE000FFF7E5FFC848FFF7DAFFC84800F021FD2F
:100AF000BD48046010BD0620C54908602820AC49E7
:100B00000860704770B505460C4622462946B44831
:100B1000703802F01BFAB2487038012189078860EA
:100B20000846C4600120086070BDFFB581B006466C
:100B30000F461D4600209F490870B6A002F020F91C
:100B4000002404E0285DAD490855601CC4B2062CA1
:100B5000F8DBB1A002F014F90621A848FFF7D2FF94
:100B6000AEA002F00DF939463046039A01F04AFF73
:100B7000ABA002F005F9FFF7BEFFAAA002F000F952
:100B800000F0EAFC7D2109014018009000F0DCFC37
:100B9000A5A002F0F5F800209849C871A3A002F0C2
:100BA000EFF802E0A2A002F0EBF89448C079002828
:100BB000F8D005B0F0BD012040037C490860052055
:100BC000C0020860042001070860704718207849B7
:100BD000086001208E4908608148103041210906D3
:100BE00048611020810608607047F8B504460D463C
:100BF000164601206F490870774804764576867658
:100C000000207549C8720B469A7E597E187E01F005
:100C1000F9FEFFF7DBFFFFF7CEFF00F09DFC7D2123
:100C2000C9004718384600F08FFC00206A498872D6
:100C300000BF6948807A0028FBD0F8BD4020824977
:100C400008601C208905486108200862704710B5BB
:100C5000FF2199316248803802F0D7F967480021B6
:100C60000160416079495E4880304165C91F41613A
:100C70000F21803081824020734908601F20890540
:100C8000486108200862FFF7D9FF10BD5449803938
:100C900008607047102081060860704710B5044650
:100CA00021460B398A004E499431885801F0DDFE07
:100CB00010BD10B5044621460B398A004849D4318D
:100CC000885801F0D2FE10BD70B505460C460B21C8
:100CD000434880300174012C02D0022C0CD105E075
:100CE0003F498031087CFFF7E4FF06E03C49803152
:100CF000087CFFF7D3FF00E000BF00BF70BD1020ED
:100D00002B4908607047F7B584B000BF00F014FEAF
:100D1000019000F015FE00903148007C02904C4894
:100D2000C08A401C81B24A48C1820025029AD10083
:100D3000484B069A5A43104602F073F9039009246F
:100D400007E060004449095A601C4000424A1152C1
:100D5000641E002CF5DA039800B23F490880002495
:100D600007E060003C49085E3C49095D484345197D
:100D7000641C0A2CF5DD2846E917C90D09184F1225
:100D80003348C18A808A814274D17D20C000874265
:100D900007DD0098421C014600920022019800F0F5
:100DA000ABFC2F48874265DA00985CE000001052E7
:100DB00000002852600000207478207278206D6F47
:100DC00064652025640A0000726164696F5F74784D
:100DD0004E6F770A00000000C80300200000545244
:100DE000B00200209834000064000020656E64208A
:100DF0006672616D652074780A000000580000205A
:100E0000B70A0000A70A0000290A0000C50900006F
:100E100000004052310A0000320A0000330A00008C
:100E2000340A0000350A0000360A0000370A0000C4
:100E3000737475636B20696E206C6F6F203A282085
:100E4000666F726576610A0000E100E0C30200008F
:100E5000B0030020093D00001802002020000020FF
:100E600018FCFFFF06E0421E014600920022019896
:100E700000F042FC019800F03BFC009800F034FCCC
:100E800000250598192873D2092407E0A000FE491F
:100E90000958601C8000FC4A1150641E002CF5DAD1
:100EA000F94904980860002407E0A000F6490858B2
:100EB000F649095D48434519641C0A2CF5DD2846AE
:100EC000E917C90D09184E12F148C18A808A81427A
:100ED0004ED14120C000864221D9ED488038007CA7
:100EE0000B388100EA486C384058401CE84980398A
:100EF000097C0B398A00E6496C3988500846143859
:100F0000007C0B388100E2482C384058401CE049F6
:100F10008039097C0B398A00DD492C398850FF2043
:100F2000E130864221D2DA488038007C0B388100DB
:100F3000D7486C384058401ED5498039097C0B3958
:100F40008A00D3496C39885008461438007C0B3825
:100F50008100CF482C384058401ECD498039097C4B
:100F60000B398A00CA492C3988500021C848C182EF
:100F700007B0F0BD4020C74908607047C4488038BA
:100F8000407C7047C448008800B27047F1B5A2B0F9
:100F9000402112A802F039F8442101A802F035F8E6
:100FA000BB49803922984861002459E0A200B84921
:100FB0006C39885801F059FD002029214906086044
:100FC000B6480860012700E07F1C7D20C0018742F1
:100FD000FAD37F20292149060860B1480568B14845
:100FE000066830044019A10012AA5050611C490043
:100FF000AD4A8918129A51430846AB4902F007F8E6
:10100000611C890001AA5050002C1CDDA00012A90F
:101010000958A00010581438814209D2A1009C48F8
:101020006C384058401CA20099496C3988500AE03D
:10103000A10097486C3840582830611C8A009449B8
:101040006C398850641C002C0AD1A10090486C387F
:1010500040582830611C8A008D496C398850641CC6
:10106000102CA3DB002400E0641C102CFCDB129885
:1010700023B0F0BDF0B5B3B005460E4600244021C4
:1010800021A801F0C2FF442110A801F0BEFF2022D8
:10109000864908A8FFF762F8202284492031684673
:1010A000FFF75CF87A48803845654FE0A200784940
:1010B0002C39885801F0D9FC002029214906086004
:1010C000764808600120319002E03198401C319050
:1010D0007D21C90131988842F7DB7F20292149060B
:1010E00008606F4807686F480068329032980004C3
:1010F000C019A10021AA505062006B46995A6200A3
:1011000008AB9A5A7243104601F081FFA10010AA61
:101110005050A00021A90958A0001058401F81423A
:1011200009D2A1005A482C384058401CA200584906
:101130002C3988500AE0A10055482C3840582830F6
:10114000611C8A0052492C398850641C102CADDB7C
:1011500033B0F0BD70B504462046FFF717FF0546D3
:1011600051480A3000F066FAFF202B3000F053FAA5
:10117000FF20343000F04FFAFF20F93000F05AFA27
:10118000FF20FB3000F047FAFF20FD3000F043FA6B
:1011900029462046FFF76EFFFFF708FC70BD70B5CB
:1011A000012080070469C5690121394880384174EC
:1011B000002D08D008202840002803D00021344802
:1011C0008038417400BF0120800745620220204022
:1011D000002809D036480068002805D02122520690
:1011E0005068334A116888470420204000280ED0F8
:1011F0002F4841682FA001F0C3FD2D48406800280A
:1012000005D0212252065068294A51688847082093
:101210002040002809D026488068002805D02122D7
:1012200052065068224A91688847102020400028C2
:101230000ED01F48C16826A001F0A2FD1C48C0685E
:10124000002805D0212252065068194AD1688847E3
:1012500001208007846170BD70B52448056824486A
:10126000066830044019234909688900224A505011
:1012700020480068401C1F49086020480068202161
:1012800008431E4908603BE02C000020200000209D
:10129000B003002080E100E000006452FF3F000046
:1012A0000000285200002C52C1030000443300000B
:1012B00030020020656E64206672616D652074786E
:1012C00020696E746572727570742025700A000052
:1012D000656E64206672616D6520727820696E7437
:1012E0006572727570742025700A00000000445207
:1012F0000000485210000020880000201C00002040
:10130000084600683049086030480068202188435A
:101310002E490860084600682B4908602C48006880
:101320000A281ED1012406E0A0002A4A11582AA04A
:1013300001F026FD641C0A2CF6D3FF200130284959
:101340000860400026498039086000202049086074
:10135000002400E0641C23488442FBD32248234934
:10136000C86070BD10B5194A126860231A43174B44
:101370001A601A461268144B1A60144A12686023E5
:101380009A43124B1A601A4612680F4B1A600122D8
:101390005202134B803B1A605210114B1A605200DC
:1013A000134B1A60134A1068134A11680A04121882
:1013B000074B1B689B00074CE250054A1268521C01
:1013C000034B1A6010BD000000000C521C000020EE
:1013D000100000208800002025580D0A00000000A1
:1013E00080E100E0102700000400FA0500ED00E0B5
:1013F00080E200E0000044520000485210B502A014
:1014000001F0BEFC10BD000061646320696E74656C
:101410007272757074207472696767657265640DA5
:101420000A00000010B509A001F0AAFC10BD10B51B
:1014300010A001F0A5FC10BD10B518A001F0A0FC93
:1014400010BD10B51FA001F09BFC10BD4578746560
:10145000726E616C20496E7465727275707420478B
:1014600050494F33207472696767657265640D0A6D
:101470000000000045787465726E616C20496E74DE
:10148000657272757074204750494F3820747269C4
:101490006767657265640D0A000000004578746531
:1014A000726E616C20496E7465727275707420473B
:1014B00050494F39207472696767657265640D0A17
:1014C0000000000045787465726E616C20496E748E
:1014D000657272757074204750494F3130207472B4
:1014E000696767657265640D0A00000010B502A0A7
:1014F00001F046FC10BD0000756172742072782006
:10150000696E74657272757074207472696767654C
:101510007265640D0A0000001E48002101604160F0
:101520008160C160481E212149068860072008604B
:101530007047184908607047032021214906086355
:10154000802015490860704700B50246FFF7F4FF98
:1015500021204006026100BD2120400640687047FE
:10156000002021214906086380200B498031086052
:10157000704710B50948046BE007C00F002806D07B
:1015800004480068002802D00249086880470348E0
:10159000446310BDE403002000E100E0400000428D
:1015A0002820FE49086020200860704710B50021FF
:1015B0000022252126E0002221E08B00F84CE35890
:1015C000012494402340002B01D1212000E0202061
:1015D000F24B186002240346A3431846EF4B1860F1
:1015E00004231843ED4B186004240346A343184614
:1015F000EA4B186002231843E84B1860521C202A5B
:10160000DBDB491E0029D6DA10BD00B5FFF7CEFF9F
:10161000FFF7C6FF00BD10B541098A00E04B9A589C
:101620004B01C41A0123DB07E3401A438B00DC4C57
:10163000E25010BD10B541098A00D94B9A584B01B0
:10164000C41A0123DB07E3409A438B00D44CE250D9
:1016500010BD00B53220FFF7DEFF3320FFF7DBFFC0
:101660003420FFF7E7FF3520FFF7D5FF3620FFF7DF
:10167000D2FF3720FFF7CFFF3820FFF7CCFF39200C
:10168000FFF7C9FFFFF7C1FF00BD00B53220FFF72C
:10169000D1FF3320FFF7CEFF3420FFF7CBFF3520FB
:1016A000FFF7C8FF3620FFF7C5FF3720FFF7C2FF5F
:1016B0003820FFF7BFFF3920FFF7BCFFFFF7A5FF7A
:1016C00000BD10B5B7A001F05BFBFFF718FBFFF7FB
:1016D00017F800BFFFF711F80028FBD0FFF766F9F5
:1016E000B8A001F04DFB10BDAD4980318864704752
:1016F000AB49803148647047F0B505460E46174641
:10170000002411E028462041C007C00F002805D062
:10171000FF21B031081BFFF77EFF04E0FF21B0314D
:10172000081BFFF787FF641C042CEBD9002411E091
:1017300030462041C007C00F002805D0FF21B63138
:10174000081BFFF768FF04E0FF21B631081BFFF715
:1017500071FF641C042CEBD9012F03D1A148FFF7C2
:101760005AFF02E09F48FFF765FFF0BD8C498031CA
:10177000C86370478A4980318863704788498031DF
:101780004863704701460020CA07120E1043022228
:101790000A405201104304220A40D200104308229A
:1017A0000A405200104310220A40520810432022DF
:1017B0000A40D208104340220A40520910438022B6
:1017C0000A40D20910437047F0B585B006460C4672
:1017D00015461F4672488030866118304460856027
:1017E000C7606F4998310A980861084618388068C0
:1017F0007D49084003463046FFF7C4FF0006C00E8F
:1018000004902046FFF7BEFF0006C00E0390284656
:10181000FFF7B8FF0006C00E02903846FFF7B2FF90
:101820000006C00E01900A98FFF7ACFF0006C00E3C
:1018300000900498800603430398400503430298F0
:10184000000403430198C00203430098800103434E
:101850002020034352488030836005B0F0BD5049DA
:101860008031C86270474E49803108637047FFB5C8
:1018700081B00C4615461E460A9F5CA001F080FA16
:101880000198FFF7F0FF2046FFF7E9FF33462A46AD
:101890001F2108460097FFF797FF2846FFF76EFFC6
:1018A0003046FFF767FF3846FFF760FF00220C99CC
:1018B0000B98FFF721FF0B98FFF71AFF0C98FFF723
:1018C00013FFFFF7A2FE56A001F05AFA05B0F0BDD3
:1018D00010B5CC21324801F098FB112130488030FE
:1018E000C16203210163152141630F218163C1633B
:1018F0005349016416214164122181641422514923
:101900001830FEF72BFC10BD25488030C06A7047A8
:1019100023488030006B704721488030406B70470F
:101920001F488030806B70471D488030C06B704707
:101930001B488030006C704719488030406C7047FD
:1019400017488030806C70471549803108647047B3
:1019500010B50446982221461148FEF7FFFB10BD42
:101960003949014049004208374B1A4011430846A3
:101970003649014089008208344B1A401143084619
:101980003349014009010209314B1A40114308460D
:101990000106FF221202024012025BE000005852D0
:1019A000F403002043616C6962726174696E6720A0
:1019B0006672657175656E636965732E2E2E0D0AEC
:1019C000000000004F70746963616C2063616C6992
:1019D00062726174696F6E20636F6D706C6574659F
:1019E0000D0A0000D60200001F0000807573696EAA
:1019F00067206D616E75616C6C7920736574206F02
:101A000070746963616C2063616C6962726174698E
:101A10006F6E2073657474696E67730A000000004E
:101A20004D616E75616C2063616C6962726174698D
:101A30006F6E20636F6D706C6574650D0A00000039
:101A4000006A18008433000055555555333333333D
:101A50000F0F0F0F1143020AFF231B021A401143FD
:101A6000020E114308467047F3B500256C1E16E0C0
:101A70000098465D3046FFF773FF064600270BE0EF
:101A800020467040002804DA6000F74948400446C8
:101A900000E0640076007F1C072FF1DD6D1C0198CB
:101AA0008542E5D3E043FFF75BFFFCBDF021014039
:101AB00009110207120E11430846CC21014089107A
:101AC00033220240920011430846AA2101404910E6
:101AD000552202405200114308467047FFB50546A3
:101AE0000E46174600240FE028462041C007C00FCD
:101AF000002804D02046F530FFF78DFD03E0204696
:101B0000F530FFF797FD641C032CEDDD00240FE09A
:101B100030462041C007C00F002804D02046F930CD
:101B2000FFF779FD03E02046F930FFF783FD641CE1
:101B3000032CEDDD00240FE038462041C007C00F24
:101B4000002804D02046FD30FFF765FD03E0204665
:101B5000FD30FFF76FFD641C032CEDDD00240FE06A
:101B600003982041C007C00F002804D0E01DFA30C0
:101B7000FFF751FD03E0E01DFA30FFF75BFD641C49
:101B8000032CEDDDFFBDFFB505460E4617460024CC
:101B90000FE028462041C007C00F002804D0E01DF8
:101BA000FE30FFF738FD03E0E01DFE30FFF742FD99
:101BB000641C012CEDDD002411E030462041C007FB
:101BC000C00F002805D02046FF300830FFF723FD66
:101BD00004E02046FF300830FFF72CFD641C012C88
:101BE000EBDD002411E038462041C007C00F00287B
:101BF00005D02046FF300A30FFF70DFD04E02046F7
:101C0000FF300A30FFF716FD641C012CEBDD0024C9
:101C100011E003982041C007C00F002805D02046DE
:101C2000FF300C30FFF7F7FC04E02046FF300C30AB
:101C3000FFF700FD641C012CEBDDFFBD30B589B062
:101C400005462022894901A8FEF788FA002411E000
:101C50002846E040C007C00F002805D0610001AA57
:101C6000505AFFF7E7FC04E0610001AA505AFFF761
:101C7000D2FC641C0F2CEBD909B030BD30B589B053
:101C8000054620227949203101A8FEF767FA002491
:101C900011E02846E040C007C00F002805D06100D1
:101CA00001AA505AFFF7B7FC04E0610001AA505A9C
:101CB000FFF7C0FC641C0F2CEBD909B030BD00B598
:101CC000FF20F630FFF7B6FCFF20F730FFF7B2FC3D
:101CD000FF20F830FFF7AEFCFF20F930FFF7AAFC39
:101CE000FF20FA30FFF797FCFF20FB30FFF7A2FC44
:101CF000FF20FC30FFF78FFCFF20FD30FFF79AFC40
:101D0000FF20FE30FFF787FCFF20FF30FFF783FC4A
:101D10005748FFF780FC01204002FFF77CFC544845
:101D2000801CFFF787FC5248C01CFFF783FC50481B
:101D3000001DFFF770FC81208000FFF76CFC002085
:101D40004C4908604C48FFF766FC00BDF3B581B014
:101D50000F4600200090019EB800019E8219314676
:101D600046A001F00DF851A001F00AF800240CE0A3
:101D7000002507E0A00030580121A9408843A100B8
:101D800070506D1C202DF5DB641CBC42F0D3002488
:101D90001DE0002518E0A00030580121A9400840AE
:101DA000002809D0A00033582A46214645A000F05B
:101DB000E7FF0098401C0090A00030580121A94086
:101DC0000843A10070506D1C202DE4DB641CBC4254
:101DD000DFD300241FE000251AE0A00030580121C5
:101DE000A94008400121A940884209D0A0003358E9
:101DF0002A4621463FA000F0C3FF0098401C0090F7
:101E0000A00030580121A9408843A10070506D1CEA
:101E1000202DE2DB641CBC42DDD37C1E1DE01F25AF
:101E200018E0A00030580121A9400840002809D03E
:101E3000A00033582A4621463AA000F0A1FF00989E
:101E4000401C0090A00030580121A9400843A10087
:101E500070506D1E002DE4DA641E002CDFDA7C1E4B
:101E600096E01F2591E00000B71DC10498330000E3
:101E7000FF01000000002852920300000D0A0D0A25
:101E80005374617274696E67205352414D207465BA
:101E900073742066726F6D203078255820746F201F
:101EA000307825582E2E2E0D0A00000054686973D4
:101EB0002074616B657320617768696C652E2E2EC6
:101EC0000D0A00000D0A4552524F52203120402089
:101ED00061646472657373202558206269742025DB
:101EE00064202D2D2056616C75652069732025585E
:101EF000000000000D0A4552524F5220322040206F
:101F000061646472657373202558206269742025AA
:101F100064202D2D2056616C75652069732025582D
:101F2000000000000D0A4552524F5220332040203D
:101F3000616464726573732025582062697420257A
:101F400064202D2D2056616C7565206973202558FD
:101F500000000000A00030580121A94008400121E4
:101F6000A940884209D0A00033582A462146FEA045
:101F700000F006FF0098401C0090A000305801219E
:101F8000A9408843A10070506D1E002DE2DA641E46
:101F9000002C00DB65E7002416E0002511E0A0001E
:101FA00030580121A9400840002809D0A00033582A
:101FB0002A462146F8A000F0E3FE0098401C00905D
:101FC0006D1C202DEBDB641CBC42E6D3FEA0009907
:101FD00000F0D6FE0098FEBD30B50546002411E0A5
:101FE00028462041C007C00F002805D02046FF30FA
:101FF000ED30FFF710FB04E02046FF30ED30FFF737
:1020000019FB641C062CEBD930BD30B50546002405
:102010000FE028462041C007C00F002804D0F34934
:10202000081BFFF7F8FA03E0F049081BFFF702FB73
:10203000641C042CEDD905240FE028462041C0077C
:10204000C00F002804D0E949081BFFF7F3FA03E0AA
:10205000E649081BFFF7DFFA641C062CEDD930BDFA
:1020600030B50546002411E028462041C007C00FC6
:10207000002805D0DD4978316018FFF7CCFA04E07C
:10208000DA4978316018FFF7D5FA641C042CEBD9D3
:10209000052411E028462041C007C00F002805D0C4
:1020A000D24978316018FFF7C5FA04E0CF4978319A
:1020B0006018FFF7B0FA641C062CEBD930BD30B5C0
:1020C0000546002411E028462041C007C00F002823
:1020D00005D0C6498431081BFFF79DFA04E0C349C7
:1020E0008431081BFFF7A6FA641C042CEBD9A80660
:1020F000C00F002804D0E7208000FFF79BFA03E020
:10210000E7208000FFF787FA6806C00F002804D098
:10211000B648F038FFF78EFA03E0B448F038FFF71E
:102120007AFA30BD30B5054600240FE02846E0407D
:10213000C007C00F002804D020466B30FFF76BFAB1
:1021400003E020466B30FFF775FA641C0F2CEDDDC1
:1021500030BD30B5054600240FE02846E040C007FA
:10216000C00F002804D020467C30FFF754FA03E06B
:1021700020467C30FFF75EFA641C072CEDDD30BD95
:1021800030B5054600240FE02846E040C007C00FE8
:10219000002804D02046D130FFF73DFA03E0204666
:1021A000D130FFF747FA641C0F2CEDDD30BD70B560
:1021B00005460E4600240AE02046FF30D930FFF7DE
:1021C00039FA2046FF301730FFF734FA641C0D2C23
:1021D000F2DB002405E0FF21E531081BFFF71BFAC5
:1021E000641CAC42F7D9002405E02046FF301730CC
:1021F000FFF720FA641CB442F7D970BD70B50546EC
:102200000E46002411E03046E040C007C00F002811
:1022100005D02046FF30C530FFF7FDF904E0204629
:10222000FF30C530FFF706FA641C042CEBDD0024F8
:1022300011E02846E040C007C00F002805D0204626
:10224000FF30CA30FFF7E7F904E02046FF30CA301C
:10225000FFF7F0F9641C042CEBDD70BD70B505468A
:102260000E46002411E03046E040C007C00F0028B1
:1022700005D0FF215931081BFFF7CDF904E0FF21FC
:102280005931081BFFF7D6F9641C042CEBDD002440
:1022900011E02846E040C007C00F002805D0FF210C
:1022A0005431081BFFF7B7F904E0FF215431081B34
:1022B000FFF7C0F9641C042CEBDD70BD70B505465A
:1022C0000E46002411E02846E040C007C00F002859
:1022D00005D02046FF30E630FFF79DF904E02046A8
:1022E000FF30E630FFF7A6F9641C042CEBDD002478
:1022F00011E03046E040C007C00F002805D0FF21A4
:102300001631081BFFF787F904E0FF211631081B7F
:10231000FFF790F9641C052CEBDD70BDF8B5344C6B
:10232000650D3448006A2040324908620846C06B97
:102330002840C8630846006A2F49A14308432D4935
:1023400008622E4848622E4888622E48C8622E488D
:1023500008632E4848632E4888630846C06B2D49A1
:10236000A9430843234957E00D0A4552524F5220D2
:1023700034204020616464726573732025582062A4
:102380006974202564202D2D2056616C75652069A7
:1023900073202558000000000D0A4552524F52206C
:1023A0003520402061646472657373202558206273
:1023B0006974202564202D2D2056616C7565206977
:1023C00073202558000000000D0A5352414D20543F
:1023D00065737420436F6D706C657465202D2D20BE
:1023E0002564204572726F72730D0A001D03000090
:1023F0000000FCFFF4030020E0FF50408821420071
:102400003100048881403B1102817E024448ED0383
:1024100000000160032EE0FFC863FF20A930FFF732
:1024200009F9FF20AA30FFF7F6F83F210846FFF729
:1024300045FF07210846FFF7BAFE00210846FFF7CF
:10244000DDFE00210846FFF709FF0020FFF7F2F844
:102450000120FFF7EFF86020FFF7ECF8FF201030C5
:10246000FFF7E8F8FF20EC30FFF7E4F86420FFF70F
:10247000E1F86520FFF7DEF86620FFF7DBF8612062
:10248000FFF7C9F80020FA490860FA48FA490860DD
:102490006720FFF7C0F80B260227F002F901084376
:1024A000F649086005200090F54900980860FF2073
:1024B0000E30FFF7BFF8FF200F30FFF7BBF800200A
:1024C000FFF78AFDF020FFF7A6F85D20C000FFF7B8
:1024D000A2F8EC48FFF79FF8EA48401CFFF79BF88A
:1024E0000120E9490860F8BD70B5E84C650DE84881
:1024F000006A2040E64908620846C06B2840C8636D
:102500000846006AE349A1430843E1490862E248FA
:102510004862E2488862E248C862E2480863E248EA
:102520004863E24888630846C06BE149A943084311
:10253000D749C8630020FFF76EF80120FFF76BF85A
:102540000D20FFF7EFFD2620FFF703FE5020FFF7D9
:1025500017FEEE20FFF75FF8EF20FFF75CF8FF2093
:102560000E30FFF767F8FF200F30FFF763F8842085
:10257000FFF751F80526C24806600A210020FFF740
:102580003DFE0020FFF728FDF020FFF744F8012072
:102590004003C8490860F002086070BD10B50A46E3
:1025A0007F2383435901BA4B9B6FC34C2340B84CE4
:1025B000A36723469B6F0B43A36710BD7F22824313
:1025C0005103B34A926F7F235B039A43B04B9A67E0
:1025D0001A46926F0A439A67704710B5F02303407A
:1025E00019090207AA4B9B6F1B091B01A84CA36783
:1025F00023469B6F0B43A3672346DB6F1B011B091D
:10260000E3672346DB6F1343E36710BD00B57D200E
:10261000C000FFF700F8A948FEF7FDFFA748401CDF
:10262000FEF7F9FFA548801CFEF7F5FF8020A449BE
:1026300008607F20FFF7D1FF3F20FFF7BFFF002199
:102640007F20FFF7ABFF00BD70B5034600240020DC
:102650000325AD021D402C010F252D031D402D0B20
:1026600028433F252D011D40284395022843CD02D4
:1026700028431D072D0C2843E543924E3560C54382
:10268000914E356070BD002824D18149C96F042264
:1026900011437F4AD1671146C96F022291437C4A98
:1026A000D1671146803109680122D2071143784A67
:1026B000803211607649C96F49084900803AD16774
:1026C000114680310968072212071143704A80328F
:1026D0001160BAE0012822D16D49C96F022211436D
:1026E0006B4AD1671146C96F04229143684AD1678A
:1026F000114680310968C2071143654A8032116072
:102700006349C96F8143803AD167114680310968B6
:102710000722120711435E4A8032116095E00228B9
:1027200023D15B49C96F04221143594AD16711462D
:10273000C96F02229143564AD16711468031096818
:102740004A005208524980310A608039C96F01221B
:1027500011434F4AD1671146803109680722120799
:1027600011434B4A803211606FE0032823D148495E
:10277000C96F04221143464AD1671146C96F02222C
:102780009143434AD167114680310968C20711431A
:102790003F4A803211603E49C96F49084900803A7A
:1027A000D167114680310968012292079143384A66
:1027B0008032116049E0042822D13549C96F0422D2
:1027C0001143334AD1671146C96F02229143304AFF
:1027D000D167114680310968420711432C4A803283
:1027E00011602B49C96F49084900803AD1671146E9
:1027F00080310968C2069143254A8032116024E085
:10280000052822D12249C96F04221143204AD167E9
:102810001146C96F022291431D4AD167114680318A
:102820000968C20711431A4A803211601849C96FFA
:1028300049084900803AD16711468031096803226E
:1028400052079143124A80321160704710B50A4610
:102850007F23834359010E4B9B6F7F246403A34363
:102860000B4CA36723469B6F0B43A36710BD00006F
:10287000000038520FA0000000003C5200000C5233
:1028800000002452E9020000000040520000FEFF58
:10289000F4030020F0FF000088214200710004884A
:1028A00081400C100281180044C87F0101000170B2
:1028B0000008E0FF0000105217F0FFFFE9030000DE
:1028C00000002C52000014520000185210B50446AB
:1028D00000212820FFF7BAFF0420FFF7D4FE0122D1
:1028E0001146FF20E130FFF7AFFEFD208000FEF72C
:1028F00092FE10BD70B503460C467F25292676064C
:102900003560FA4D2868FA4D29680D042D181D60B0
:10291000F84D2868F84D29680D042D182560F74DED
:102920002868F74D29680D042D18156000253560BD
:10293000F44D356070BDF4480068012189020840FB
:10294000002804D0F04800888005800D70470020E2
:10295000FCE7EE4800787047ED4800780007000F6C
:10296000704770B505460E4600240FE03046E04043
:10297000C007C00F002804D0E6496018FEF74BFEE0
:1029800003E0E4496018FEF755FE641C032CEDDDFE
:10299000F006C00F002804D0DE48001DFEF74AFEF6
:1029A00003E0DC48001DFEF736FE002411E0284657
:1029B000E040C007C00F002805D0D721890060186B
:1029C000FEF729FE04E0D72189006018FEF732FEE9
:1029D000641C012CEBDD022411E02846E040C00716
:1029E000C00F002805D0CB49C91C6018FEF722FE95
:1029F00004E0C849C91C6018FEF70DFE641C042CD5
:102A0000EBDD70BDF7B584B00546E806C00E039057
:102A10000598C006C00E02900698C006C00E019030
:102A20000398FFF743F800900298FFF73FF8064637
:102A30000198FFF73BF804460023002700BF00BFC2
:102A4000009800907820204040020343F0000343A8
:102A50000098C008034380202040C0090743A448D1
:102A60000360AD48076007B0F0BDF0B585B005461E
:102A700000260027172003908C20029028460299F8
:102A800000F0CFFA1330C0B200902846029900F04F
:102A9000C8FA0D462846039900F0C3FA41004018D1
:102AA000C019C0B201902846039900F0BAFA022872
:102AB00000DB00BF2846039900F0B3FA8819C4B2BE
:102AC0000F2C00DD641C224601990098FFF79AFF45
:102AD00005B0F0BD38B5FEF7FBFEFDF703FEFEF7CF
:102AE000B6F8FEF719FDFFF7EAF84120FFF78DFA77
:102AF00000231A4619461846FFF745F80A231A46D6
:102B000019461846FEF7EAFF0020FFF7B7F883489A
:102B1000FFF794F88248FEF77EFD824AD16A106B77
:102B2000FFF71FFF7E48001DFEF775FD7E48FEF78C
:102B300072FD3120FEF76FFD3020FEF76CFD2F2077
:102B4000FEF778FD2E20FEF766FD2D20FEF772FDC4
:102B50002C20FEF760FD2B20FEF75DFD2A20FEF7FE
:102B60005AFD6F480930FEF756FD6F484630FEF7B4
:102B700052FD2920FEF74FFD022403E02046FEF718
:102B80004AFD641C092CF9DBFFF7C8FBFFF73EFD8B
:102B9000644A916C506C0022FEF7AEFD6148C06B38
:102BA00000906048836B1F21426B0846FEF70CFEC5
:102BB0005B482138FEF72FFD5B489130FFF755FF4A
:102BC0007D200001FFF782FEFEF7F0FCFEF7E8FC37
:102BD00038BDF8B500202921490608604948086039
:102BE000012700E07F1C51488742FBDB7F20292121
:102BF000490608603D4804683D48056828040619F0
:102C0000084604684A4805682804001900907003C3
:102C1000009900F0FCF9F8BD18B542481830006979
:102C2000404C18340090E368A2686168183CA069C1
:102C3000FEF7CAFD18BD70B503460C467F25292650
:102C400076063560294D2868294D29680D042D1810
:102C50001D60314D2868374D29680D042D182560F9
:102C600035462868324D29680D042D181560002559
:102C70003560244D356070BD10B500210BE0036850
:102C80009B0F0468E40E6340DA07D20F03685B0011
:102C900013430360491C0829F1DB10BD214880382B
:102CA000806F0121090588431E4980398867704774
:102CB0001C488038806F0121090508431949803973
:102CC0008867704717488038006C0921C906884317
:102CD000144980390864704712488038006C092113
:102CE000C90608430F49803908647047000018522C
:102CF00000001C520000285200002C5200003052EC
:102D000000003452FF3F00000000405200005452C7
:102D100000003C526603000000002052FFFF00004C
:102D20007B040000740400202902000050C300004E
:102D300000000452000024520F4800680121C90419
:102D400008430D49086070470B4800680121C90419
:102D5000884309490860704707480068032149040F
:102D60008843054908607047034800680321490407
:102D70000843014908607047740400207047000050
:102D80000FB4054910B503AA029800F061FA10BC0F
:102D900008BC04B01847000008000020F8B50E4633
:102DA0000446002020622046E1688847002829D098
:102DB000252802D06268A16820E0E168204600274B
:102DC000884705001ED028464138192802D8012717
:102DD000FF0220353246204627602946FDF78EF94E
:102DE000002808D0012804D0F61DF608F6000836A1
:102DF000D9E7361DD7E762682846A1689047206A60
:102E0000401CCFE7206AF8BD70B50C460546012A84
:102E100005D02878800600D5EA69002302E0012366
:102E200005E05B1C934202D2E05C0028F9D1A8695E
:102E3000E618C01AA861286AC01828622846C04649
:102E4000C04604E06A682078A968641C9047B442D0
:102E5000F8D32846C046C04670BD0000F7B500252F
:102E600075291068009914A611D0C046C0460028E4
:102E700002DA404211A608E0009909688A0701D5E4
:102E80000FA602E0490704D50EA6012501E0C046C1
:102E9000C046009F0024243704E000F0EDF93031F3
:102EA0003955641C0028F8D12B463246214600983B
:102EB00000F05EF9FEBD0000000000002D000000E3
:102EC0002B0000002000000070B50D4601880905A8
:102ED00002D51D4C7C4402E01B4C7C440E3403465E
:102EE0000021243305E016071209360FA65D5E5453
:102EF000491C002AF7D102780023120705D5702D4E
:102F000007D0002901D002231134224600F030F905
:102F100070BD01231034F8E770B504460D46214614
:102F20001068C046C046024629462046FFF7CCFF3F
:102F300070BD30B403682024126823430360082363
:102F4000C36130BCC0E7000000050000F8B5042AEA
:102F50002CD3830712D00B78491C0370401C521EDF
:102F600083070BD00B78491C0370401C521E83074B
:102F700004D00B78491C0370401C521E8B079B0F1A
:102F800005D0C91ADF002023DE1B08C90AE0FDF7BF
:102F9000E5F8F8BD1D4608C9FD401C46B4402C4369
:102FA00010C0121F042AF5D2F308C91A521EF0D419
:102FB0000B78491C0370401C521EEAD40B78491C44
:102FC0000370401C012AE4D409780170F8BD01E0C7
:102FD00004C0091F0429FBD28B0701D50280801C85
:102FE000C90700D00270704700290BD0C30702D078
:102FF0000270401C491E022904D3830702D50280B7
:10300000801C891EE3E70022EEE70022DFE70022B2
:1030100003098B422CD3030A8B4211D300239C4615
:103020004EE003460B433CD4002243088B4231D38D
:1030300003098B421CD3030A8B4201D394463FE021
:10304000C3098B4201D3CB01C01A524183098B4281
:1030500001D38B01C01A524143098B4201D34B016A
:10306000C01A524103098B4201D30B01C01A5241CD
:10307000C3088B4201D3CB00C01A524183088B4254
:1030800001D38B00C01A524143088B4201D34B003D
:10309000C01A5241411A00D20146524110467047AF
:1030A0005DE0CA0F00D04942031000D340425340B4
:1030B00000229C4603098B422DD3030A8B4212D374
:1030C000FC22890112BA030A8B420CD389019211A6
:1030D0008B4208D3890192118B4204D389013AD0E3
:1030E000921100E08909C3098B4201D3CB01C01AB8
:1030F000524183098B4201D38B01C01A52414309CB
:103100008B4201D34B01C01A524103098B4201D3B8
:103110000B01C01A5241C3088B4201D3CB00C01A25
:10312000524183088B4201D38B00C01A5241D9D23D
:1031300043088B4201D34B00C01A5241411A00D2BE
:103140000146634652415B10104601D34042002BBA
:1031500000D54942704763465B1000D3404201B539
:103160000020C046C04602BD704770477047704798
:10317000FFB504460D4681B02430009021688806D2
:1031800004D51022E0699143216000E00120A842AB
:1031900001DD471B00E000270498A1697A19101887
:1031A000081AA0612078C00602D42046C046C04656
:1031B000002608E003986268A168805D9047206A55
:1031C000401C761C206204988642F3DB2078C006FF
:1031D0000AD52046C046C04606E06268A168302095
:1031E0009047206A401C206238467F1E0028F4DC8D
:1031F00007E000986268A168405D9047206A401C23
:10320000206228466D1E0028F3DC2046C046C046DA
:103210002078000602D5022005B0F0BD0120FBE7B2
:1032200010B54369002B02D0C046C04601E0FFF74D
:10323000EBFD012010BD1278014624310A700022F6
:103240004A700122ECE711680022D243E8E700004F
:10325000084B70B50D467B4400F027F8044628461D
:10326000FDF727FA002802D00020C04370BD204699
:1032700070BD00002FD4FFFF01468008081A020924
:103280001018020A1018020C1018C0088200121838
:103290005200891A01E0401C0A390A29FBD2704702
:1032A00001694A1C02610878704700B58FB002912D
:1032B0000021059105490193794403911146049039
:1032C0006846FFF76BFD0FB000BD0000E5FFFFFF94
:1032D000754600F025F8AE46050069465346C0081D
:1032E000C000854618B020B5FDF7B6F960BC0027D0
:1032F0004908B6460026C0C5C0C5C0C5C0C5C0C5C2
:10330000C0C5C0C5C0C5403D49008D46704710B519
:103310000446C046C0462046FCF719FF10BD000019
:1033200000487047C004002030B47446641E2578FD
:10333000641CAB4204D3635D5B00E31830BC1847E8
:103340001D46F8E722038803A1030D01B503B2016E
:1033500071014202C701CA038B0029014B026D00B3
:1033600075019F00210385039C030B01AC03AD0194
:103370006C013902BF01B703880022013C026A00D8
:103380006A019A001F0000001F0000001D000000DD
:1033900002000000020000006B046D046F04710461
:1033A0007404760478047A045B045D045F046104A9
:1033B0006404660468046A046C046E047004720495
:1033C00073047504770479045C045E046004620489
:1033D00063046504670469043031323334353637A9
:1033E0003839414243444546403058003031323349
:1033F0003435363738396162636465664030780049
:1034000023646566696E652048465F434F415253A9
:10341000452025750A23646566696E652048465F08
:1034200046494E452025750A23646566696E652008
:103430005243324D5F434F415253452025750A2375
:10344000646566696E65205243324D5F46494E455C
:103450002025750A23646566696E65205243324DE6
:103460005F535550455246494E452025750A236401
:103470006566696E652049465F434F41525345205A
:1034800025750A23646566696E652049465F46496D
:103490004E452025750A00005061636B6574206EEF
:1034A000756D2025642E205061636B657420636FF9
:1034B0006E74656E747320312D333A202564202597
:1034C0006420256420636F617273653A2025640966
:1034D0006D69643A2025640966696E653A20256441
:1034E0000A00000004350000000000206800000011
:1034F000C40000006C35000068000020B810000017
:10350000E00000000000000000000000000000518A
:10351000000000510000000000000000000000005A
:10352000000000000410254057605740251004009B
:10353000F4010000F4010000F4010000F4010000B7
:10354000F4010000F4010000F4010000F4010000A7
:10355000F4010000F4010000000000000000000081
:0C3560000000000000000000000000005F
:0400000500000000F7
:00000001FF
