:020000040000FA
:10000000301100200D05000000000000000000007D
:1000100000000000000000000000000000000000E0
:1000200000000000000000000000000000000000D0
:1000300000000000000000000000000000000000C0
:100040001705000067050000DF0500002B05000014
:1000500000000000000000003F0500005305000004
:10006000B7050000CB05000000000000F30500000C
:100070007B0500008F050000A305000000000000C4
:1000800000F002F800F055F80CA030C80838241829
:100090002D18A246671EAB4654465D46AC4201D1C0
:1000A00000F047F87E460F3E0FCCB646012633429D
:1000B00000D0FB1AA246AB46334318476C3400000D
:1000C0008C340000103A02D378C878C1FAD85207AD
:1000D00001D330C830C101D504680C6070470000FE
:1000E0000023002400250026103A01D378C1FBD854
:1000F000520700D330C100D50B60704710B564299A
:1001000002D102F0ABFE10BD752902D102F0A6FEAD
:1001100010BD782902D102F0D7FE10BD732902D19B
:1001200003F07BF810BD002010BD1FB51FBD10B53A
:1001300010BD03F0B7F81146FFF7F7FF00F0C6F85F
:1001400003F0CFF803B4FFF7F2FF03BC00F093FA1B
:1001500070B505460C46164602E00FCC0FC5103EA2
:10016000102EFAD2082E02D303CC03C5083E042E6B
:1001700007D301CC01C5361F03E021782970641C28
:100180006D1C761EF9D270BDF7B588B000200290C4
:100190000898012802D185A0019001E086A0019075
:1001A000099800281AD10898012803D1162414258B
:1001B000032602E0162416251626601CC0B2059000
:1001C000681CC0B20490701CC0B203902B4622463B
:1001D00000967BA0019902F0D3FD0BE016241720B6
:1001E0000590142520200490002603907BA00199FF
:1001F00002F0C6FD5BE0274656E007954EE0069606
:1002000044E001F0E6F90020009002E00098401C74
:100210000090764900988842F8DB01F0F6F90998D9
:10022000002805D0394672A0069B079A02F0A8FD67
:100230000020009023E00898002805D13846069A4F
:10024000079900F0DFFC0EE071490298087008463B
:100250004770079888700698C8700B463846069A0B
:10026000079900F087FC0298401C02900A990298B6
:10027000884201D10BB0F0BD0098401C009000985E
:100280000128D8DB0698401CC0B206900399069856
:100290008842B6DB0798401CC0B2079004990798C3
:1002A0008842ACDB781CC7B205988742A5DBA2E781
:1002B00070B504460D4657480068401C5549086013
:1002C0000846016854A002F05BFD70BD70B55AA0ED
:1002D00002F056FD5CA002F053FD61A002F050FD5B
:1002E0006748816B002001F07FFB05466448C06BC6
:1002F000A84203D163A002F043FD04E064A002F031
:100300003FFD00BFFEE702F0A5FB714800F001FCD5
:1003100001F097F90220030002F0F0FF06040B122F
:10032000293A3C400022D24300210120FFF72CFF54
:1003300038E00022D24300210846FFF725FF31E0D4
:1003400064A002F01DFD00240AE0012200211046F5
:10035000FFF71AFF012200210846FFF715FF641C72
:10036000642CF2DB62A002F00BFD00BFFEE701226D
:1003700000211046FFF708FF002400E0641C5E48DF
:100380008442FBDB012200210846FFF7FDFE09E065
:1003900000BFFEE701F01DF900BFFEE757A002F025
:1003A000EFFC00BF00BF002070BD00007472616EE2
:1003B000736D69740000000072656365697665009D
:1003C000466978656420257320617420633A257539
:1003D000206D3A257520663A25750A0053776565C4
:1003E00070696E672025730A000000008813000002
:1003F000636F617273653D25642C206D6964646C64
:10040000653D25642C2066696E653D25640D0A00F6
:10041000000000200800002072656365697665644D
:10042000206120746F74616C206F662025642070D9
:1004300061636B6574730A00496E697469616C6904
:100440007A696E672E2E2E000D0A2D2D2D2D2D2D45
:100450002D2D2D2D2D2D2D2D2D2D2D2D2D0D0A003C
:1004600056616C69646174696E672070726F67723F
:10047000616D20696E746567726974792E2E2E0025
:10048000C0FF0000435243204F4B0D0A0000000004
:100490000D0A50726F6772616D6D696E67204572EB
:1004A000726F72202D2043524320444F4553204EFB
:1004B0004F54204D41544348202D2048616C7469AD
:1004C0006E6720457865637574696F6E0D0A00006C
:1004D000B1020000676F696E6720696E746F2073E8
:1004E0007769746368696E67206D6F6465210A00BF
:1004F000646F6E65210A0000A0860100496E766176
:100500006C6964206D6F64650A00000041494248CF
:1005100008604248004701B5012080F3108800F0D0
:10052000A5FF002080F3108801BD01B5012080F3F4
:10053000108800F023FF002080F3108801BD01B572
:10054000012080F3108800F00EFE002080F3108858
:1005500001BD01B5012080F3108800F0CAFF002022
:1005600080F3108801BD01B5012080F3108800F0F0
:1005700019FF002080F3108801BD01B5012080F330
:10058000108800F014FF002080F3108801BD01B531
:10059000012080F3108800F00FFF002080F3108806
:1005A00001BD01B5012080F3108800F00AFF002092
:1005B00080F3108801BD01B5012080F3108800F0A0
:1005C00091FE002080F3108801BD01B5012080F369
:1005D000108800F01BFE002080F3108801BD01B5DB
:1005E000012080F3108800F069F8002080F3108863
:1005F00001BD01B5012080F3108800F060F80020F3
:1006000080F3108801BD000005480649064A074BE3
:100610007047000000E100E00000000081000000E1
:100620003005002030110020300900203009002062
:10063000512109060870704710B503460C4618464C
:10064000FFF7F6FF10BD10B5512424062378184695
:10065000FFF7EEFF184610BD10B50446FFF7F3FF95
:1006600010BD01460020704710B5044604492046DD
:10067000FFF7E2FF10BD03A002F082FB00BFFEE720
:100680000C0000200D0A5445535420444F4E450D94
:100690000A00000010B52021AC4802F0A0FCAC48D4
:1006A000AA4988614B20C000C86110BDA7484078A6
:1006B00070470120C002A749086070477047F0B535
:1006C00097B001F0E1F8109001F0E2F80F9001F01E
:1006D000E3F80E9001F0E4F8054601F0E5F806466F
:1006E00001F0E6F80D9001F0E7F80C9001F0E8F861
:1006F00007467F2029214906086094480078401C5D
:1007000092490870292040060068169092480068B7
:100710001590159801041698081813908F480068D2
:1007200016908F48006815901598010416980818BF
:1007300012908C48006816908B48006815901598A8
:10074000010416980C1889480068169088480068BB
:10075000159015980104169808181490854800689B
:100760001690854800681590159801041698081889
:1007700011900020292149060860804808607348CC
:100780000078022873DD7E491298884202D21098C0
:10079000401E10907B491298884202D91098401C44
:1007A000109010990F9802F09CF80F9801F01BF828
:1007B000109801F014F8654880691499884204D2B1
:1007C0006248C069401E6149C8616048806901464D
:1007D0001498814204D95D48C069401C5B49C861D6
:1007E0005A49C86902F001F96748844203D90E9852
:1007F000401C0E9009E06548844201D96D1C04E05C
:1008000062484138844200D9761C6148844203D250
:100810000E98401E0E900AE05C48A038844201D237
:100820006D1E04E059485F38844200D2761E2B4684
:1008300000961F2108460E9A00F086FF0E9800F0E1
:100840005DFF284600F056FF304600F04FFF51494B
:100850001198884203D90C98401C0C9013E04E4923
:100860001198884204D20C98401E0C900BE019E0BD
:100870004A491198884201D97F1C04E048491198DF
:10088000884200D27F1E002239460C9800F0F4FE08
:100890000C9800F0EDFE384600F0E6FE00F046FE53
:1008A00000F03EFE294A11990C98D26907970492EC
:1008B000059106900E99149823466A4662C20390E9
:1008C00038A0109A129902F05BFA20480078192893
:1008D0003AD10C9803970196009502903F480E9BE1
:1008E000109A0F9902F04CFA1849C86902F096F96B
:1008F0000B901649C86902F09CF90A901349C8691F
:1009000002F0D2F909903648099B0A9A0B9902F035
:1009100037FA0120C0020F498031086000200B49DE
:100920000870012048701398486008468460119848
:10093000C86014980861129848612AA002F020FA51
:10094000002029214906086017B0F0BD6C00002086
:10095000BAD0030000E100E0000004520000105291
:10096000000014520000185200001C5200002852CF
:1009700000002C520000305200003452FF3F0000B3
:10098000C8781E0038901E00980F0300900D0300D9
:10099000E80A0300D49A18002C391800786F180060
:1009A0008864180048463D25642D256420202032A7
:1009B0004D3D25642D25642C25642C2564202020A4
:1009C0004C433D25642D256420202049463D256467
:1009D0002D25642C25640D0A00000000443400001D
:1009E000D4330000646F6E650D0A000001204003DF
:1009F000FC4908600020FC4908607047022041075C
:100A00000860704700B5F9480078002802D1FFF768
:100A1000F5FF04E00120F6498872FFF7E7FF00BD0B
:100A2000F4480068704710B501F045FF10BDF8B5F7
:100A300007460C4615461E463120C0433070EE482E
:100A4000007C20702078A84205DC2278EA49113128
:100A5000384602F065FAF8BD1FB50446E448083090
:100A6000431E0622811E00900838FFF7E0FFFFF7C3
:100A7000BDFFDF488079062825D1FFF7D4FFDC4988
:100A8000C860FFF7CDFFDA4908610846807E497EDD
:100A9000D74A127ED64BDB780093019202910390E5
:100AA000D348837842780178D44802F069F9D04875
:100AB0008179D34A126890470020CD498871062178
:100AC000CB4802F08CFA0020C949C8721FBDCA4940
:100AD0008039C86070470121C54AD1727047C64944
:100AE00080398860704700B50246FFF77FFF01201C
:100AF000C449C87100BDC04980394860704710B50D
:100B00000446C1A002F03CF910BDBB498039086021
:100B1000704710B50446C148FFF7F7FFC048FFF71C
:100B2000EAFFC048FFF7DBFFBF48FFF7D0FFBF4831
:100B300000F0BFFCB248046010BD0620BC4908604C
:100B40002820A9490860704770B505460C4610205A
:100B50008106086022462946A748703802F0E0F96D
:100B6000A54870380121890788600846C4600120C3
:100B7000086070BDFFB581B006460F461D460020D7
:100B80009A490870002404E0285D9E490855601CBD
:100B9000C4B2062CF8DB06219A48FFF7D5FF394688
:100BA0003046039A01F0EEFEFFF7C7FF00F094FC19
:100BB0007D2109014018009000F086FC0020914939
:100BC000C87100BF8F48C0790028FBD005B0F0BDC8
:100BD00001204003834908600520C002086004200A
:100BE00001070860704718207F490860012090497C
:100BF00008608148103041210906486110208106B3
:100C000008607047F8B504460D461646012077493E
:100C10000870774804764576867600207449C87255
:100C20000B469A7E597E187E01F0ACFEFFF7DBFF83
:100C3000FFF7CEFF00F050FC7D21C9004718384671
:100C400000F042FC00206A49887200BF6848807A40
:100C50000028FBD0F8BD4020764908601C2089059B
:100C6000486108200862704710B5FF219931624839
:100C7000803802F0B4F963480021016041606E4998
:100C80005D4880304165C91F41610F2180308182FC
:100C90004020684908601F208905486108200862D3
:100CA000FFF7D9FF10BD102081060860704710B50E
:100CB000044621460B398A004F499431885801F087
:100CC00094FE10BD10B5044621460B398A004A49EE
:100CD000D431885801F089FE10BD70B505460C4628
:100CE0000B21454880300174012C02D0022C0CD11C
:100CF00005E041498031087CFFF7E4FF06E03E490A
:100D00008031087CFFF7D3FF00E000BF00BF70BD5B
:100D10005820354908607047F7B584B000BF00F02F
:100D2000CBFD019000F0CCFD00903348007C029098
:100D30004248C08A401C81B24048C1820025029AC4
:100D4000D1003F4B069A5A43104602F054F90390E3
:100D5000092407E060003B49095A601C4000394AF9
:100D60001152641E002CF5DA039800B23549088050
:100D7000002407E060003349085E3349095D4843B9
:100D80004519641C0A2CF5DD2846E917C90D091818
:100D90004F122A48C18A808A814216D17D20C00024
:100DA000874207DD0098421C01460092002201980C
:100DB00000F062FC2548874207DA0098421E01468F
:100DC00000920022019800F057FC019800F050FCBE
:100DD000009800F049FC0025059819287ED20924C6
:100DE0003EE0000000001052000028526400002085
:100DF000CC03002000005452B4020020DC34000078
:100E0000680000205C0000207374617274696E6772
:100E1000207478206672616D650A0000FF0A000088
:100E2000E70A0000D70A0000590A0000050A00007E
:100E30000000405200E100E0C3020000B4030020C3
:100E4000093D00001C0200202400002018FCFFFFC8
:100E5000A000FE490958601C8000FC4A1150641E25
:100E6000002CF5DAF94904980860002407E0A00096
:100E7000F6490858F649095D48434519641C0A2C8F
:100E8000F5DD2846E917C90D09184E12F148C18A47
:100E9000808A814250D14120C000864223D9ED484A
:100EA0008038007C0B388100EA486C384058401C80
:100EB000E8498039097C0B398A00E6496C39885049
:100EC00008461438007C0B388100E2482C38405822
:100ED000401CE0498039097C0B3900E02CE08A0095
:100EE000DC492C398850FF20E130864221D2D94894
:100EF0008038007C0B388100D6486C384058401E42
:100F0000D4498039097C0B398A00D2496C39885020
:100F100008461438007C0B388100CE482C384058E5
:100F2000401ECC498039097C0B398A00C9492C39CB
:100F300088500021C748C18207B0F0BD4020C64993
:100F400008607047C3488038407C7047C3480088B9
:100F500000B27047F1B5A2B0402112A802F03FF8EC
:100F6000442101A802F03BF8BA498039229848612F
:100F7000002459E0A200B7496C39885801F035FDCA
:100F80000020292149060860B5480860012700E0D3
:100F90007F1C7D20C0018742FAD37F20292149068A
:100FA0000860B0480568B048066830044019A100E0
:100FB00012AA5050611C4900AC4A8918129A514338
:100FC0000846AA4902F00DF8611C890001AA505098
:100FD000002C1CDDA00012A90958A00010581438DC
:100FE000814209D2A1009B486C384058401CA200A5
:100FF00098496C3988500AE0A10096486C384058EE
:101000002830611C8A0093496C398850641C002C7C
:101010000AD1A1008F486C3840582830611C8A00E2
:101020008C496C398850641C102CA3DB002400E030
:10103000641C102CFCDB129823B0F0BDF0B5B3B0EB
:1010400005460E460024402121A801F0C8FF442196
:1010500010A801F0C4FF2022854908A8FFF778F8FE
:101060002022834920316846FFF772F8794880389A
:1010700045654FE0A20077492C39885801F0B5FC4E
:101080000020292149060860754808600120319038
:1010900002E03198401C31907D21C901319888428D
:1010A000F7DB7F202921490608606E4807686E48F3
:1010B0000068329032980004C019A10021AA505053
:1010C00062006B46995A620008AB9A5A7243104606
:1010D00001F087FFA10010AA5050A00021A90958D3
:1010E000A0001058401F814209D2A10059482C3855
:1010F0004058401CA20057492C3988500AE0A100F2
:1011000054482C3840582830611C8A0051492C39E9
:101110008850641C102CADDB33B0F0BD70B50446B4
:101120002046FFF717FF054650480A3000F042FA04
:10113000FF202B3000F02FFAFF20343000F02BFA84
:10114000FF20F93000F036FAFF20FB3000F023FAE0
:10115000FF20FD3000F01FFA29462046FFF76EFF02
:10116000FFF744FC70BD70B5012080070469C569B4
:101170000121384880384174002D08D008202840CB
:10118000002803D0002133488038417400BF01207B
:101190008007456202202040002809D035480068B9
:1011A000002805D0212252065068324A116888472B
:1011B00004202040002809D02E484068002805D08F
:1011C0002122520650682B4A516888470820204047
:1011D000002809D027488068002805D0212252061F
:1011E0005068244A9168884710202040002809D080
:1011F0002048C068002805D02122520650681D4AA8
:10120000D168884701208007846170BD70B51A4895
:1012100005681A48066830044019194909688900A8
:10122000184A505016480068401C15490860164876
:1012300000682021084314490860084600681349E3
:101240000860114800682021884321E03000002018
:1012500024000020B403002080E100E0000064527C
:10126000FF3F00000000285200002C52C103000084
:10127000183300003402002000004452000048529D
:10128000140000208C0000202000002000000C52E0
:101290002D490860084600682C4908602C48006801
:1012A0000A281ED1012406E0A0002A4A11582AA0CB
:1012B00001F066FD641C0A2CF6D3FF20013028499A
:1012C00008604000264980390860002020490860F5
:1012D000002400E0641C23488442FBD322482349B5
:1012E000C86070BD10B5184A126860231A43164BC7
:1012F0001A601A461268154B1A60134A1268602366
:101300009A43114B1A601A461268104B1A60012258
:101310005202134B803B1A605210114B1A6052005C
:10132000134B1A60134A1068134A11680A04121802
:10133000074B1B689B00074CE250054A1268521C81
:10134000034B1A6010BD00002000002000000C526A
:10135000140000208C00002025580D0A0000000019
:1013600080E100E0102700000400FA0500ED00E035
:1013700080E200E0000044520000485210B502A094
:1013800001F0FEFC10BD000061646320696E7465AD
:101390007272757074207472696767657265640D26
:1013A0000A00000010B509A001F0EAFC10BD10B55C
:1013B00010A001F0E5FC10BD10B518A001F0E0FC94
:1013C00010BD10B51FA001F0DBFC10BD45787465A1
:1013D000726E616C20496E7465727275707420470C
:1013E00050494F33207472696767657265640D0AEE
:1013F0000000000045787465726E616C20496E745F
:10140000657272757074204750494F382074726944
:101410006767657265640D0A0000000045787465B1
:10142000726E616C20496E746572727570742047BB
:1014300050494F39207472696767657265640D0A97
:101440000000000045787465726E616C20496E740E
:10145000657272757074204750494F313020747234
:10146000696767657265640D0A00000010B502A027
:1014700001F086FC10BD0000756172742072782046
:10148000696E7465727275707420747269676765CD
:101490007265640D0A0000001E4800210160416071
:1014A0008160C160481E21214906886007200860CC
:1014B00070471849086070470320212149060863D6
:1014C000802015490860704700B50246FFF7F4FF19
:1014D00021204006026100BD21204006406870477F
:1014E000002021214906086380200B4980310860D3
:1014F000704710B50948046BE007C00F002806D0FC
:1015000004480068002802D0024908688047034860
:10151000446310BDE803002000E100E04000004209
:101520002820FE49086020200860704710B500217F
:101530000022252126E0002221E08B00F84CE35810
:10154000012494402340002B01D1212000E02020E1
:10155000F24B186002240346A3431846EF4B186071
:1015600004231843ED4B186004240346A343184694
:10157000EA4B186002231843E84B1860521C202ADB
:10158000DBDB491E0029D6DA10BD00B5FFF7CEFF20
:10159000FFF7C6FF00BD10B541098A00E04B9A581D
:1015A0004B01C41A0123DB07E3401A438B00DC4CD8
:1015B000E25010BD10B541098A00D94B9A584B0131
:1015C000C41A0123DB07E3409A438B00D44CE2505A
:1015D00010BD00B53220FFF7DEFF3320FFF7DBFF41
:1015E0003420FFF7E7FF3520FFF7D5FF3620FFF760
:1015F000D2FF3720FFF7CFFF3820FFF7CCFF39208D
:10160000FFF7C9FFFFF7C1FF00BD00B53220FFF7AC
:10161000D1FF3320FFF7CEFF3420FFF7CBFF35207B
:10162000FFF7C8FF3620FFF7C5FF3720FFF7C2FFDF
:101630003820FFF7BFFF3920FFF7BCFFFFF7A5FFFA
:1016400000BD10B5B7A001F09BFBFFF761FBFFF7F2
:1016500030F800BFFFF72AF80028FBD0FFF7C6F9E3
:10166000B8A001F08DFB10BDAD4980318864704792
:10167000AB49803148647047F0B505460E461746C1
:10168000002411E028462041C007C00F002805D0E3
:10169000FF21B031081BFFF77EFF04E0FF21B031CE
:1016A000081BFFF787FF641C042CEBD9002411E012
:1016B00030462041C007C00F002805D0FF21B631B9
:1016C000081BFFF768FF04E0FF21B631081BFFF796
:1016D00071FF641C042CEBD9012F03D1A148FFF743
:1016E0005AFF02E09F48FFF765FFF0BD8C4980314B
:1016F000C86370478A498031886370478849803160
:101700004863704701460020CA07120E10430222A8
:101710000A405201104304220A40D200104308221A
:101720000A405200104310220A405208104320225F
:101730000A40D208104340220A4052091043802236
:101740000A40D20910437047F0B585B006460C46F2
:1017500015461F46724880308661183044608560A7
:10176000C7606F4998310A98086108461838806840
:101770007D49084003463046FFF7C4FF0006C00E0F
:1017800004902046FFF7BEFF0006C00E03902846D7
:10179000FFF7B8FF0006C00E02903846FFF7B2FF11
:1017A0000006C00E01900A98FFF7ACFF0006C00EBD
:1017B0000090049880060343039840050343029871
:1017C000000403430198C0020343009880010343CF
:1017D0002020034352488030836005B0F0BD50495B
:1017E0008031C86270474E49803108637047FFB549
:1017F00081B00C4615461E460A9F5CA001F0C0FA57
:101800000198FFF7F0FF2046FFF7E9FF33462A462D
:101810001F2108460097FFF797FF2846FFF76EFF46
:101820003046FFF767FF3846FFF760FF00220C994C
:101830000B98FFF721FF0B98FFF71AFF0C98FFF7A3
:1018400013FFFFF7A2FE56A001F09AFA05B0F0BD13
:1018500010B5CC21324801F0C2FB11213048803054
:10186000C16203210163152141630F218163C163BB
:1018700053490164162141641221816414225149A3
:101880001830FEF765FC10BD25488030C06A7047EF
:1018900023488030006B704721488030406B704790
:1018A0001F488030806B70471D488030C06B704788
:1018B0001B488030006C704719488030406C70477E
:1018C00017488030806C7047154980310864704734
:1018D00010B50446982221461148FEF739FC10BD88
:1018E0003949014049004208374B1A401143084624
:1018F0003649014089008208344B1A40114308469A
:101900003349014009010209314B1A40114308468D
:101910000106FF221202024012025BE00000585250
:10192000F803002043616C6962726174696E67201C
:101930006672657175656E636965732E2E2E0D0A6C
:10194000000000004F70746963616C2063616C6912
:1019500062726174696F6E20636F6D706C6574651F
:101960000D0A0000D60200001F0000807573696E2A
:1019700067206D616E75616C6C7920736574206F82
:1019800070746963616C2063616C6962726174690F
:101990006F6E2073657474696E67730A00000000CF
:1019A0004D616E75616C2063616C6962726174690E
:1019B0006F6E20636F6D706C6574650D0A000000BA
:1019C000006A1800583300005555555533333333EA
:1019D0000F0F0F0F1143020AFF231B021A4011437E
:1019E000020E114308467047F3B500256C1E16E041
:1019F0000098465D3046FFF773FF064600270BE070
:101A000020467040002804DA6000F7494840044648
:101A100000E0640076007F1C072FF1DD6D1C01984B
:101A20008542E5D3E043FFF75BFFFCBDF0210140B9
:101A300009110207120E11430846CC2101408910FA
:101A400033220240920011430846AA210140491066
:101A5000552202405200114308467047FFB5054623
:101A60000E46174600240FE028462041C007C00F4D
:101A7000002804D02046F530FFF78DFD03E0204616
:101A8000F530FFF797FD641C032CEDDD00240FE01B
:101A900030462041C007C00F002804D02046F9304E
:101AA000FFF779FD03E02046F930FFF783FD641C62
:101AB000032CEDDD00240FE038462041C007C00FA5
:101AC000002804D02046FD30FFF765FD03E02046E6
:101AD000FD30FFF76FFD641C032CEDDD00240FE0EB
:101AE00003982041C007C00F002804D0E01DFA3041
:101AF000FFF751FD03E0E01DFA30FFF75BFD641CCA
:101B0000032CEDDDFFBDFFB505460E46174600244C
:101B10000FE028462041C007C00F002804D0E01D78
:101B2000FE30FFF738FD03E0E01DFE30FFF742FD19
:101B3000641C012CEDDD002411E030462041C0077B
:101B4000C00F002805D02046FF300830FFF723FDE6
:101B500004E02046FF300830FFF72CFD641C012C08
:101B6000EBDD002411E038462041C007C00F0028FB
:101B700005D02046FF300A30FFF70DFD04E0204677
:101B8000FF300A30FFF716FD641C012CEBDD00244A
:101B900011E003982041C007C00F002805D020465F
:101BA000FF300C30FFF7F7FC04E02046FF300C302C
:101BB000FFF700FD641C012CEBDDFFBD30B589B0E3
:101BC00005462022894901A8FEF7C2FA002411E047
:101BD0002846E040C007C00F002805D0610001AAD8
:101BE000505AFFF7E7FC04E0610001AA505AFFF7E2
:101BF000D2FC641C0F2CEBD909B030BD30B589B0D4
:101C0000054620227949203101A8FEF7A1FA0024D7
:101C100011E02846E040C007C00F002805D0610051
:101C200001AA505AFFF7B7FC04E0610001AA505A1C
:101C3000FFF7C0FC641C0F2CEBD909B030BD00B518
:101C4000FF20F630FFF7B6FCFF20F730FFF7B2FCBD
:101C5000FF20F830FFF7AEFCFF20F930FFF7AAFCB9
:101C6000FF20FA30FFF797FCFF20FB30FFF7A2FCC4
:101C7000FF20FC30FFF78FFCFF20FD30FFF79AFCC0
:101C8000FF20FE30FFF787FCFF20FF30FFF783FCCB
:101C90005748FFF780FC01204002FFF77CFC5448C6
:101CA000801CFFF787FC5248C01CFFF783FC50489C
:101CB000001DFFF770FC81208000FFF76CFC002006
:101CC0004C4908604C48FFF766FC00BDF3B581B095
:101CD0000F4600200090019EB800019E82193146F7
:101CE00046A001F04DF851A001F04AF800240CE0A4
:101CF000002507E0A00030580121A9408843A10039
:101D000070506D1C202DF5DB641CBC42F0D3002408
:101D10001DE0002518E0A00030580121A94008402E
:101D2000002809D0A00033582A46214645A001F0DA
:101D300027F80098401C0090A00030580121A940CD
:101D40000843A10070506D1C202DE4DB641CBC42D4
:101D5000DFD300241FE000251AE0A0003058012145
:101D6000A94008400121A940884209D0A000335869
:101D70002A4621463FA001F003F80098401C00903D
:101D8000A00030580121A9408843A10070506D1C6B
:101D9000202DE2DB641CBC42DDD37C1E1DE01F2530
:101DA00018E0A00030580121A9400840002809D0BF
:101DB000A00033582A4621463AA000F0E1FF0098DF
:101DC000401C0090A00030580121A9400843A10008
:101DD00070506D1E002DE4DA641E002CDFDA7C1ECC
:101DE00096E01F2591E00000B71DC1046C33000090
:101DF000FF01000000002852920300000D0A0D0AA6
:101E00005374617274696E67205352414D2074653A
:101E100073742066726F6D203078255820746F209F
:101E2000307825582E2E2E0D0A0000005468697354
:101E30002074616B657320617768696C652E2E2E46
:101E40000D0A00000D0A4552524F52203120402009
:101E5000616464726573732025582062697420255B
:101E600064202D2D2056616C7565206973202558DE
:101E7000000000000D0A4552524F522032204020EF
:101E8000616464726573732025582062697420252B
:101E900064202D2D2056616C7565206973202558AE
:101EA000000000000D0A4552524F522033204020BE
:101EB00061646472657373202558206269742025FB
:101EC00064202D2D2056616C75652069732025587E
:101ED00000000000A00030580121A9400840012165
:101EE000A940884209D0A00033582A462146FEA0C6
:101EF00000F046FF0098401C0090A00030580121DF
:101F0000A9408843A10070506D1E002DE2DA641EC6
:101F1000002C00DB65E7002416E0002511E0A0009E
:101F200030580121A9400840002809D0A0003358AA
:101F30002A462146F8A000F023FF0098401C00909C
:101F40006D1C202DEBDB641CBC42E6D3FEA0009987
:101F500000F016FF0098FEBD30B50546002411E0E4
:101F600028462041C007C00F002805D02046FF307A
:101F7000ED30FFF710FB04E02046FF30ED30FFF7B7
:101F800019FB641C062CEBD930BD30B50546002486
:101F90000FE028462041C007C00F002804D0F349B5
:101FA000081BFFF7F8FA03E0F049081BFFF702FBF4
:101FB000641C042CEDD905240FE028462041C007FD
:101FC000C00F002804D0E949081BFFF7F3FA03E02B
:101FD000E649081BFFF7DFFA641C062CEDD930BD7B
:101FE00030B50546002411E028462041C007C00F47
:101FF000002805D0DD4978316018FFF7CCFA04E0FD
:10200000DA4978316018FFF7D5FA641C042CEBD953
:10201000052411E028462041C007C00F002805D044
:10202000D24978316018FFF7C5FA04E0CF4978311A
:102030006018FFF7B0FA641C062CEBD930BD30B540
:102040000546002411E028462041C007C00F0028A3
:1020500005D0C6498431081BFFF79DFA04E0C34947
:102060008431081BFFF7A6FA641C042CEBD9A806E0
:10207000C00F002804D0E7208000FFF79BFA03E0A0
:10208000E7208000FFF787FA6806C00F002804D019
:10209000B648F038FFF78EFA03E0B448F038FFF79F
:1020A0007AFA30BD30B5054600240FE02846E040FE
:1020B000C007C00F002804D020466B30FFF76BFA32
:1020C00003E020466B30FFF775FA641C0F2CEDDD42
:1020D00030BD30B5054600240FE02846E040C0077B
:1020E000C00F002804D020467C30FFF754FA03E0EC
:1020F00020467C30FFF75EFA641C072CEDDD30BD16
:1021000030B5054600240FE02846E040C007C00F68
:10211000002804D02046D130FFF73DFA03E02046E6
:10212000D130FFF747FA641C0F2CEDDD30BD70B5E0
:1021300005460E4600240AE02046FF30D930FFF75E
:1021400039FA2046FF301730FFF734FA641C0D2CA3
:10215000F2DB002405E0FF21E531081BFFF71BFA45
:10216000641CAC42F7D9002405E02046FF3017304C
:10217000FFF720FA641CB442F7D970BD70B505466C
:102180000E46002411E03046E040C007C00F002892
:1021900005D02046FF30C530FFF7FDF904E02046AA
:1021A000FF30C530FFF706FA641C042CEBDD002479
:1021B00011E02846E040C007C00F002805D02046A7
:1021C000FF30CA30FFF7E7F904E02046FF30CA309D
:1021D000FFF7F0F9641C042CEBDD70BD70B505460B
:1021E0000E46002411E03046E040C007C00F002832
:1021F00005D0FF215931081BFFF7CDF904E0FF217D
:102200005931081BFFF7D6F9641C042CEBDD0024C0
:1022100011E02846E040C007C00F002805D0FF218C
:102220005431081BFFF7B7F904E0FF215431081BB4
:10223000FFF7C0F9641C042CEBDD70BD70B50546DA
:102240000E46002411E02846E040C007C00F0028D9
:1022500005D02046FF30E630FFF79DF904E0204628
:10226000FF30E630FFF7A6F9641C042CEBDD0024F8
:1022700011E03046E040C007C00F002805D0FF2124
:102280001631081BFFF787F904E0FF211631081B00
:10229000FFF790F9641C052CEBDD70BDF8B5344CEC
:1022A000650D3448006A2040324908620846C06B18
:1022B0002840C8630846006A2F49A14308432D49B6
:1022C00008622E4848622E4888622E48C8622E480E
:1022D00008632E4848632E4888630846C06B2D4922
:1022E000A9430843234957E00D0A4552524F522053
:1022F0003420402061646472657373202558206225
:102300006974202564202D2D2056616C7565206927
:1023100073202558000000000D0A4552524F5220EC
:1023200035204020616464726573732025582062F3
:102330006974202564202D2D2056616C75652069F7
:1023400073202558000000000D0A5352414D2054BF
:1023500065737420436F6D706C657465202D2D203E
:102360002564204572726F72730D0A001D03000010
:102370000000FCFFF8030020E0FF504088214200ED
:102380003100048881403B1102817E024448ED0304
:1023900000000160032EE0FFC863FF20A930FFF7B3
:1023A00009F9FF20AA30FFF7F6F83F210846FFF7AA
:1023B00045FF07210846FFF7BAFE00210846FFF750
:1023C000DDFE00210846FFF709FF0020FFF7F2F8C5
:1023D0000120FFF7EFF86020FFF7ECF8FF20103046
:1023E000FFF7E8F8FF20EC30FFF7E4F86420FFF790
:1023F000E1F86520FFF7DEF86620FFF7DBF86120E3
:10240000FFF7C9F80020FA490860FA48FA4908605D
:102410006720FFF7C0F80B260227F002F9010843F6
:10242000F649086005200090F54900980860FF20F3
:102430000E30FFF7BFF8FF200F30FFF7BBF800208A
:10244000FFF78AFDF020FFF7A6F85D20C000FFF738
:10245000A2F8EC48FFF79FF8EA48401CFFF79BF80A
:102460000120E9490860F8BD70B5E84C650DE84801
:10247000006A2040E64908620846C06B2840C863ED
:102480000846006AE349A1430843E1490862E2487B
:102490004862E2488862E248C862E2480863E2486B
:1024A0004863E24888630846C06BE149A943084392
:1024B000D749C8630020FFF76EF80120FFF76BF8DB
:1024C0000D20FFF7EFFD2620FFF703FE5020FFF75A
:1024D00017FEEE20FFF75FF8EF20FFF75CF8FF2014
:1024E0000E30FFF767F8FF200F30FFF763F8842006
:1024F000FFF751F80526C24806600A210020FFF7C1
:102500003DFE0020FFF728FDF020FFF744F80120F2
:102510004003C8490860F002086070BD10B50A4663
:102520007F2383435901BA4B9B6FC34C2340B84C64
:10253000A36723469B6F0B43A36710BD7F22824393
:102540005103B34A926F7F235B039A43B04B9A6760
:102550001A46926F0A439A67704710B5F0230340FA
:1025600019090207AA4B9B6F1B091B01A84CA36703
:1025700023469B6F0B43A3672346DB6F1B011B099D
:10258000E3672346DB6F1343E36710BD00B57D208F
:10259000C000FFF700F8A948FEF7FDFFA748401C60
:1025A000FEF7F9FFA548801CFEF7F5FF8020A4493F
:1025B00008607F20FFF7D1FF3F20FFF7BFFF00211A
:1025C0007F20FFF7ABFF00BD70B50346002400205D
:1025D0000325AD021D402C010F252D031D402D0BA1
:1025E00028433F252D011D40284395022843CD0255
:1025F00028431D072D0C2843E543924E3560C54303
:10260000914E356070BD002824D18149C96F0422E4
:1026100011437F4AD1671146C96F022291437C4A18
:10262000D1671146803109680122D2071143784AE7
:10263000803211607649C96F49084900803AD167F4
:10264000114680310968072212071143704A80320F
:102650001160BAE0012822D16D49C96F02221143ED
:102660006B4AD1671146C96F04229143684AD1670A
:10267000114680310968C2071143654A80321160F2
:102680006349C96F8143803AD16711468031096837
:102690000722120711435E4A8032116095E002283A
:1026A00023D15B49C96F04221143594AD1671146AE
:1026B000C96F02229143564AD16711468031096899
:1026C0004A005208524980310A608039C96F01229C
:1026D00011434F4AD167114680310968072212071A
:1026E00011434B4A803211606FE0032823D14849DF
:1026F000C96F04221143464AD1671146C96F0222AD
:102700009143434AD167114680310968C20711439A
:102710003F4A803211603E49C96F49084900803AFA
:10272000D167114680310968012292079143384AE6
:102730008032116049E0042822D13549C96F042252
:102740001143334AD1671146C96F02229143304A7F
:10275000D167114680310968420711432C4A803203
:1027600011602B49C96F49084900803AD167114669
:1027700080310968C2069143254A8032116024E005
:10278000052822D12249C96F04221143204AD1676A
:102790001146C96F022291431D4AD167114680310B
:1027A0000968C20711431A4A803211601849C96F7B
:1027B00049084900803AD1671146803109680322EF
:1027C00052079143124A80321160704710B50A4691
:1027D0007F23834359010E4B9B6F7F246403A343E4
:1027E0000B4CA36723469B6F0B43A36710BD0000F0
:1027F000000038520FA0000000003C5200000C52B4
:1028000000002452E9020000000040520000FEFFD8
:10281000F8030020F0FF00008821420071000488C6
:1028200081400C100281180044C87F010100017032
:102830000008E0FF0000105217F0FFFFE90300005E
:1028400000002C52000014520000185210B504462B
:1028500000212820FFF7BAFF0420FFF7D4FE012251
:102860001146FF20E130FFF7AFFEFD208000FEF7AC
:1028700092FE10BD70B503460C467F2529267606CC
:102880003560F64D2868F64D29680D042D181D6039
:10289000F44D2868F44D29680D042D182560F34D7A
:1028A0002868F34D29680D042D1815600025356042
:1028B000F04D356070BDF048006801218902084084
:1028C000002804D0EC4800888005800D7047002067
:1028D000FCE7EA4800787047E94800780007000FF5
:1028E000704770B505460E4600240FE03046E040C4
:1028F000C007C00F002804D0E2496018FEF74BFE65
:1029000003E0E0496018FEF755FE641C032CEDDD82
:10291000F006C00F002804D0DA48001DFEF74AFE7A
:1029200003E0D848001DFEF736FE002411E02846DB
:10293000E040C007C00F002805D0D72189006018EB
:10294000FEF729FE04E0D72189006018FEF732FE69
:10295000641C012CEBDD022411E02846E040C00796
:10296000C00F002805D0C749C91C6018FEF722FE19
:1029700004E0C449C91C6018FEF70DFE641C042C59
:10298000EBDD70BDF7B584B00546E806C00E0390D8
:102990000598C006C00E02900698C006C00E0190B1
:1029A0000398FFF743F800900298FFF73FF80646B8
:1029B0000198FFF73BF804460023002700BF00BF43
:1029C000009800907820204040020343F000034329
:1029D0000098C008034380202040C0090743A04856
:1029E0000360A948076007B0F0BDF0B585B00546A3
:1029F00000260027172003908C2002902846029979
:102A000000F0F9FA1330C0B200902846029900F0A5
:102A1000F2FA0D462846039900F0EDFA41004018FD
:102A2000C019C0B201902846039900F0E4FA0228C8
:102A300000DB00BF2846039900F0DDFA8819C4B214
:102A40000F2C00DD641C224601990098FFF79AFFC5
:102A500005B0F0BD38B5FEF7FBFEFDF71BFEFEF737
:102A600003F9FEF719FDFFF7EAF84120FFF78DFAA9
:102A700000231A4619461846FFF745F80A231A4656
:102A800019461846FEF7EAFF0020FFF7B7F87F481F
:102A9000FFF794F87E48FEF77EFD7E4AD16A106B00
:102AA000FFF71FFF7A48001DFEF775FD7A48FEF715
:102AB00072FD3120FEF76FFD3020FEF76CFD2F20F8
:102AC000FEF778FD2E20FEF766FD2D20FEF772FD45
:102AD0002C20FEF760FD2B20FEF75DFD2A20FEF77F
:102AE0005AFD6B480930FEF756FD6B484630FEF73D
:102AF00052FD2920FEF74FFD022403E02046FEF799
:102B00004AFD641C092CF9DBFFF7C8FBFFF73EFD0B
:102B1000604A916C506C0022FEF7AEFD5D48C06BC0
:102B200000905C48836B1F21426B0846FEF70CFE49
:102B300057482138FEF72FFD4B20C000FFF755FF07
:102B40007D200001FFF782FEFEF7F0FCFEF7E8FCB7
:102B500038BDF8B5002029214906086045480860BD
:102B6000012700E07F1C4D488742FBDB7F202921A5
:102B70004906086039480468394805682804061978
:102B80000846046846480568280400190090700348
:102B9000009900F026FAF8BD18B53E4818300069D3
:102BA0003C4C18340090E368A2686168183CA06946
:102BB000FEF7CAFD18BD70B503460C467F252926D1
:102BC00076063560254D2868254D29680D042D1899
:102BD0001D602D4D2868334D29680D042D18256082
:102BE000354628682E4D29680D042D1815600025DE
:102BF0003560204D356070BD10B500210BE00368D5
:102C00009B0F0468E40E6340DA07D20F03685B0091
:102C100013430360491C0829F1DB10BD70B504465D
:102C20008C252946204600F0E6F91330C6B230461E
:102C300070BDF8B50446002517268C273946204676
:102C400000F0D9F90C463146204600F0D4F9410095
:102C500040184019C0B200900098F8BD000018520A
:102C600000001C520000285200002C52000030527C
:102C700000003452FF3F0000000040520000545258
:102C800000003C526603000000002052FFFF0000DD
:102C90007B040000780400202902000050C30000DB
:102CA0000000045200002452FEB505460026002014
:102CB000019017278C2000902846009900F09BF97E
:102CC0000D463946284600F096F9022800DB00BF81
:102CD0003946284600F08FF98819C4B20F2C00DD60
:102CE000641C2046FEBD2448806F012109058843ED
:102CF0002149886770472048806F012109050843F2
:102D00001D49886770471C48006C0921C906884323
:102D10001949086470471848006C0921C90608431E
:102D20001549086470471448803000680121C904BF
:102D3000084311498031086070470F4880300068AF
:102D40000121C90488430C498031086070470A4852
:102D500080300068032149048843074980310860B6
:102D60007047054880300068032149040843024940
:102D70008031086070470000F803002070470000B1
:102D80000FB4054910B503AA029800F04BFA10BC25
:102D900008BC04B0184700000C000020F8B50E462F
:102DA0000446002020622046E1688847002829D098
:102DB000252802D06268A16820E0E168204600274B
:102DC000884705001ED028464138192802D8012717
:102DD000FF0220353246204627602946FDF78EF94E
:102DE000002808D0012804D0F61DF608F6000836A1
:102DF000D9E7361DD7E762682846A1689047206A60
:102E0000401CCFE7206AF8BD70B50C460546012A84
:102E100005D02878800600D5EA69002302E0012366
:102E200005E05B1C934202D2E05C0028F9D1A8695E
:102E3000E618C01AA861286AC01828622846C04649
:102E4000C04604E06A682078A968641C9047B442D0
:102E5000F8D32846C046C04670BD0000F7B500252F
:102E600075291068009914A611D0C046C0460028E4
:102E700002DA404211A608E0009909688A0701D5E4
:102E80000FA602E0490704D50EA6012501E0C046C1
:102E9000C046009F0024243704E000F0D7F9303109
:102EA0003955641C0028F8D12B463246214600983B
:102EB00000F048F9FEBD0000000000002D000000F9
:102EC0002B0000002000000070B504460D4621468E
:102ED0001068C046C0462188090502D50F4A7A44C9
:102EE00002E00E4A7A440E3223460021243305E0E4
:102EF00006070009360F965D5E54491C0028F7D17D
:102F000020780023000705D5702D03D0002901D0BB
:102F100002231132204600F015F970BDCA040000EA
:102F2000F8B5042A2CD3830712D00B78491C037000
:102F3000401C521E83070BD00B78491C0370401CA9
:102F4000521E830704D00B78491C0370401C521E8C
:102F50008B079B0F05D0C91ADF002023DE1B08C991
:102F60000AE0FDF7F5F8F8BD1D4608C9FD401C460E
:102F7000B4402C4310C0121F042AF5D2F308C91A1A
:102F8000521EF0D40B78491C0370401C521EEAD428
:102F90000B78491C0370401C012AE4D409780170A5
:102FA000F8BD01E004C0091F0429FBD28B0701D53D
:102FB0000280801CC90700D00270704700290BD026
:102FC000C30702D00270401C491E022904D38307A4
:102FD00002D50280801C891EE3E70022EEE7002272
:102FE000DFE7002203098B422CD3030A8B4211D363
:102FF00000239C464EE003460B433CD4002243088A
:103000008B4231D303098B421CD3030A8B4201D379
:1030100094463FE0C3098B4201D3CB01C01A524111
:1030200083098B4201D38B01C01A524143098B4261
:1030300001D34B01C01A524103098B4201D30B014A
:10304000C01A5241C3088B4201D3CB00C01A52416F
:1030500083088B4201D38B00C01A524143088B4234
:1030600001D34B00C01A5241411A00D201465241CD
:10307000104670475DE0CA0F00D04942031000D3EC
:103080004042534000229C4603098B422DD3030A41
:103090008B4212D3FC22890112BA030A8B420CD351
:1030A000890192118B4208D3890192118B4204D37A
:1030B00089013AD0921100E08909C3098B4201D3FA
:1030C000CB01C01A524183098B4201D38B01C01A34
:1030D000524143098B4201D34B01C01A52410309AB
:1030E0008B4201D30B01C01A5241C3088B4201D35A
:1030F000CB00C01A524183088B4201D38B00C01A07
:103100005241D9D243088B4201D34B00C01A5241DD
:10311000411A00D20146634652415B10104601D36A
:103120004042002B00D54942704763465B1000D3F4
:10313000404201B50020C046C04602BD70477047FE
:1031400070477047FFB504460D4681B024300090AB
:103150002168880604D51022E0699143216000E0CF
:103160000120A84201DD471B00E000270498A16967
:103170007A191018081AA0612078C00602D42046D7
:10318000C046C046002608E003986268A168805DDA
:103190009047206A401C761C206204988642F3DB2C
:1031A0002078C0060AD52046C046C04606E06268C0
:1031B000A16830209047206A401C206238467F1E5C
:1031C0000028F4DC07E000986268A168405D904741
:1031D000206A401C206228466D1E0028F3DC204631
:1031E000C046C0462078000602D5022005B0F0BDDA
:1031F0000120FBE710B54369002B02D0C046C04652
:1032000001E0FFF701FE012010BD127801462431D4
:103210000A7000224A700122ECE711680022D243B2
:10322000E8E70000084B70B50D467B4400F027F836
:1032300004462846FDF715FA002802D00020C043B6
:1032400070BD204670BD00000BD4FFFF0146800812
:10325000081A02091018020A1018020C1018C008E7
:10326000820012185200891A01E0401C0A390A290A
:10327000FBD2704701694A1C02610878704700B5AB
:103280008FB0029100210591054901937944039182
:10329000114604906846FFF781FD0FB000BD0000A5
:1032A000E5FFFFFF754600F025F8AE4605006946CC
:1032B0005346C008C000854618B020B5FDF7A4F9F4
:1032C00060BC00274908B6460026C0C5C0C5C0C5B9
:1032D000C0C5C0C5C0C5C0C5C0C5403D49008D46BC
:1032E000704710B50446C046C0462046FCF72AFF8A
:1032F00010BD000000487047C404002030B474467C
:10330000641E2578641CAB4204D3635D5B00E31844
:1033100030BC18471D46F8E722038803A1030D01BE
:10332000B503B20171014202C701CA038B00290132
:103330004B026D0075019F00210385039C030B0167
:10334000AC03AD016C013902BF01B7038800220153
:103350003C026A006A019A001F0000001F00000082
:103360001D00000002000000020000006B046D045C
:103370006F0471047404760478047A045B045D04B9
:103380005F0461046404660468046A046C046E04E7
:103390007004720473047504770479045C045E0499
:1033A00060046204630465046704690430313233E5
:1033B0003435363738394142434445464030580069
:1033C000303132333435363738396162636465669B
:1033D00040307800546865204C4320636F64657307
:1033E00020666F722072782F747820617265207663
:1033F00065727920726F7567686C79206E6561728D
:1034000020286E6F74652074686973206973206862
:103410006967686C7920756E72656C6961626C654C
:10342000293A20636F617273652025642C206D69D1
:10343000643A2025642C2066696E653A2025640A6A
:103440000000000023646566696E652048465F439E
:103450004F415253452025750A23646566696E65A0
:103460002048465F46494E452025750A2364656617
:10347000696E65205243324D5F434F4152534520A0
:1034800025750A23646566696E65205243324D5F77
:1034900046494E452025750A23646566696E652098
:1034A0005243324D5F535550455246494E452025B3
:1034B000750A23646566696E652049465F434F411E
:1034C0005253452025750A23646566696E65204957
:1034D000465F46494E452025750A00005061636BE2
:1034E0006574206E756D2025642E205061636B65B8
:1034F0007420636F6E74656E747320312D333A20BF
:10350000256420256420256420636F617273653A09
:10351000202564096D69643A2025640966696E6531
:103520003A2025640A000000483500000000002011
:103530006C000000C4000000B43500006C000020E6
:10354000C4100000E00000000000000000000000C7
:1035500000000000000000510000005100000000C9
:1035600000000000000000000000000004102540E2
:103570005760574025100400F4010000F4010000DA
:10358000F4010000F4010000F4010000F401000067
:10359000F4010000F4010000F4010000F401000057
:1035A000000000000000000000000000000000001B
:0435B0000000000017
:0400000500000000F7
:00000001FF
