:020000040000FA
:1000000030120020650D000000000000000000001C
:1000100000000000000000000000000000000000E0
:1000200000000000000000000000000000000000D0
:1000300000000000000000000000000000000000C0
:100040006F0D0000BF0D0000370E0000830D000093
:100050000000000000000000970D0000AB0D000044
:100060000F0E0000230E0000000000004B0E0000E9
:10007000D30D0000E70D0000FB0D000000000000A4
:1000800000F002F800F055F80CA030C80838241829
:100090002D18A246671EAB4654465D46AC4201D1C0
:1000A00000F047F87E460F3E0FCCB646012633429D
:1000B00000D0FB1AA246AB4633431847E04F00007E
:1000C00000500000103A02D378C878C1FAD852071D
:1000D00001D330C830C101D504680C6070470000FE
:1000E0000023002400250026103A01D378C1FBD854
:1000F000520700D330C100D50B60704710B564299A
:1001000002D103F0D3FF10BD752902D103F0CEFF59
:1001100010BD782902D103F0FFFF10BD732902D171
:1001200004F034FE10BD002010BD1FB51FBD10B57A
:1001300010BD04F057FE1146FFF7F7FF00F027FB54
:1001400004F06FFE03B4FFF7F2FF03BC00F0BFFE44
:1001500070B505460C46164602E00FCC0FC5103EA2
:10016000102EFAD2082E02D303CC03C5083E042E6B
:1001700007D301CC01C5361F03E021782970641C28
:100180006D1C761EF9D270BD01468802704701468B
:100190000A46C817800D8018801270477FB5044644
:1001A000A005800D04F0B9FB05460022F94B04F0D0
:1001B000BFFB039102902046FFF7E9FF054604F0DC
:1001C000ACFB01910090039B029A04F0FBFA04B08F
:1001D00070BD0246501870470246501A7047F8B575
:1001E00004460F462046394604F028FE0546012203
:1001F0009202002303F0AFFEF8BDF8B507460C46A7
:1002000038460121890204F019FE05462246E3170B
:1002100003F0A1FEF8BD00B589B0DF48C07ADE4921
:10022000897ADD4A527ADC4B1B7A05930692079154
:100230000890D948C079D8498A794979D64B1B7931
:100240000193039202910490D348C0780090D24861
:10025000837842780178D14803F0B6FE09B000BD3A
:1002600010B5CD4803F021FEFFF7D5FF10BD704754
:10027000F7B59CB0044600200C90012C02D1C8A018
:100280000B9001E0C9A00B901D98002823D1012CF0
:1002900007D1C8480678C8480778C8480078189039
:1002A00006E0C7480678C7480778C748007818901E
:1002B000701CC0B21790781CC0B216901898401CE1
:1002C000C0B2159018983B4632460090BFA00B99DB
:1002D00003F07AFE1AE0012C0AD114261920179097
:1002E00000271F201690002018901F20159009E06D
:1002F0001526162017901427152016900620189002
:1003000009201590B8A00B9903F05EFE04E21A963E
:100310003AE119972FE1189D25E1FFF7A8FF1D98F5
:10032000002805D02B46B4A0199A1A9903F04CFE68
:1003300000200A9011E1002C29D12A4619991A9817
:1003400001F02FF8B448007800281FD0FFF78FFF86
:10035000B2A003F039FEB64800780D900820B449E9
:1003600008700095B3A1B648199B1A9A03F03AFE9B
:100370000A2200210120FFF77BFFB2A003F024FE38
:10038000AB490D9808700020A3490870CBE0B24932
:100390000C980870A6480078030004F067FD09B9BE
:1003A00006070F456F7D9AB3B900B5E00095ABA184
:1003B000A948199B1A9A03F015FEADE001F079FFE8
:1003C000C0B2139001F071FFC0B2149001F075FF3C
:1003D000C0B2129001F075FFC0B2119001F075FF2C
:1003E000C0B2109001F079FFC0B20F9001F079FF18
:1003F000C0B20E90002098494870139888701498E5
:10040000C8701298087111984871109888710F98E7
:10041000C8710E980872002048721A98887219984C
:10042000C8720846057377E0944903C904F030FAAE
:10043000C0B2019004F079FA039102908F480CC881
:10044000029804F0D7F900228D4B0591049004F036
:100450006FFA0791069004F01BFAC0B28749099021
:1004600003C904F015FAC0B20890099800902A4612
:1004700084A17948089B03F0B5FD4DE085480068EC
:100480008549096800950191029084A17248199BE1
:100490001A9A03F0A7FD3FE0642001F098FD01F0F7
:1004A00024FF7D49086001F024FF7A49086008466E
:1004B00002687948016881A003F086FD75480068EC
:1004C000009075482A4682A10368634803F08AFDBC
:1004D00022E0314803F0E9FCFFF79DFE2E48407909
:1004E0002D4909792C4AD2782B4B9B7800930192A5
:1004F0000291039028484378027877A1564803F088
:1005000071FD09E022224E49534803F0CDFE03E07D
:1005100076A003F059FD00BF00BF4F4B2A46199942
:100520001A9800F0FAFE0C98401C0C90012C03D194
:100530001E990C98884206D0002C0BD17548016892
:100540001E98814206D1002C02D10020714908601A
:100550001FB0F0BD0A98401C0A900A98012800DAE2
:10056000E9E6681CC5B21598854200DAD5E6199807
:10057000401CC0B2199016991998884200DACAE650
:100580001A98401CC0B21A9017991A98884200DA3B
:10059000BFE6C1E00000503F10010020684F00009E
:1005A0007472616E736D697400000000726563653A
:1005B00069766500090000200A0000200B00002079
:1005C0000C0000200D0000200E0000204669786518
:1005D0006420257320617420633A2575206D3A25C7
:1005E0007520663A25750A005377656570696E67F0
:1005F0002025730A00000000636F617273653D255A
:10060000642C206D6964646C653D25642C206669EA
:100610006E653D25640D0A000800002053544152C8
:10062000542073656E64696E672061636B730A00A2
:1006300000000020256420256420256400000000BF
:10064000EE000020444F4E452073656E64696E676E
:100650002061636B730A0000CC0000202564202514
:100660006420256420746573742074657374207429
:10067000657374207465737400000000100000201E
:1006800000005940253032642025642E2530326424
:10069000000000001C00002018000020433A2564E0
:1006A000204D3A256420463A256420324D487A3A56
:1006B00025642033326B487A3A256400324D3A2063
:1006C00025752C2033326B487A3A2025750A0000B4
:1006D0002532642564256400256420256420256472
:1006E0002025642025642025640000004552524FD7
:1006F000523A20756E736574207478207061636B54
:10070000657420636F6E74656E7420736F757263A9
:100710006500000004000020F9E510B5F4A003F026
:1007200053FC0121F64801F09AFA0121F54801F045
:10073000BFFA10BDFEB5F4480068FFF725FD054679
:10074000F2480068FFF720FD06462946FFF755FDF1
:100750000446FFF723FD01910090ED48ED49019B10
:10076000009A04F0E5F80446EB4AEC4B04F02AF852
:10077000064604F08DF8EA490870FEBDE94A1268A1
:10078000521CE84B1A600122E74B1A7070470EB5F5
:10079000E6A003F019FCE9A003F016FCEDA003F0BD
:1007A00013FCF448816B002001F0E6FD0746F14898
:1007B000C06BB84203D1F0A003F006FC04E0F1A046
:1007C00003F002FC00BFFEE702F03EFEFD4800F031
:1007D00072FD1420162110220D2300920191029027
:1007E0000F221321032001F013FD0020030004F069
:1007F0003DFB130B12193347494D667D8191ADC105
:10080000DBF9F7F6F5F4F3000022D24300210120D2
:10081000FFF72EFD82E20022D24301210020FFF7E4
:1008200027FD7BE20220E8490870E8A003F0CCFB3A
:1008300000240AE0012200211046FFF719FD0122E1
:1008400011460020FFF714FD641C642CF2DBE6A0C7
:1008500003F0BAFB00BFFEE70220DB49087001226B
:1008600000211046FFF704FD002400E0641CE0486E
:100870008442FBDB012211460020FFF7F9FC4DE228
:1008800000BFFEE701F0EFFA00BFFEE701F0EBFA70
:1008900014E03C21D74802F013FF002400E0641C60
:1008A000642CFCDBFF202D3003F0E2F8002400E094
:1008B000641C642CFCDBD0A003F086FBE9E714E0A9
:1008C000D049D148D14AD24B00910190642003F025
:1008D0008CF9D04A03C2FFF72DFF0420BA490870F3
:1008E000012200211046FFF7C3FCE9E7FFF715FFDF
:1008F00000BFFEE7C84BC94AC9A1CE4803F072FB4E
:100900000220B1490870C21E00210120FFF7B0FC8F
:1009100000BFFEE719E0642001F059FB01F0E5FC9F
:100920007A49086001F0E5FC7749086008460268EA
:1009300076480168C04803F047FB0620A2490870CA
:10094000202201210846FFF793FCE4E711E0642030
:1009500001F03DFB01F0C9FC6C49086001F0C9FCE5
:10096000694908600846026868480168B24803F0AF
:100970002BFBECE717E0A349A348A44AA44B009142
:100980000190642003F031F9A24A03C2A14903C9CE
:1009900003F048FF034602905B4802685B48016829
:1009A000A6A003F011FBE6E715E0ACA003F00CFBFA
:1009B0005820AD49086001217D20000101F08DF92A
:1009C000A6A003F001FB1820A749086001217D20A3
:1009D000000101F082F9E8E79CE196E188E173E02B
:1009E0004CE0FFE7A1A003F0EFFA62483F3001F0CE
:1009F000ADFD60483F3001F0C9FD00231A4619469D
:100A0000184601F048FD06231A461946184601F01B
:100A1000EDFC01F0D5F901F0CDF956483F3096498B
:100A20000860002001F092FD01F0CAF901F0C2F95E
:100A300092A003F0C9FA00251FE0532000060068C9
:100A400091490843C043C943884201D1012000E0D5
:100A5000002006465320000601688CA003F0B4FA7B
:100A6000002E02D0681C05B200E00025282D04DD10
:100A70003246294686A003F0A7FADEE723E08AA0E3
:100A800003F0A2FA012211460020FFF7F1FB8EA02D
:100A900003F09AFA01F0E7F93C21564802F010FE03
:100AA000002400E0641C642CFCDBFF202D3002F0ED
:100AB000DFFF002400E0641C642CFCDB4EA003F08C
:100AC00083FA01F0ECF9DAE70721012001F0EDF8F3
:100AD00007217D20C00001F0EBF80621012001F084
:100AE000E4F806217D20000101F0E2F800BFFEE7F6
:100AF00064656C6179206F766572210A00000000E0
:100B00001B070000B80B00001C000020180000208C
:100B1000FCA9F1D24D2225C03F355EBA493386404B
:100B20000B0000200400002008000020496E6974BA
:100B300069616C697A696E672E2E2E000D0A2D2D63
:100B40002D2D2D2D2D2D2D2D2D2D2D2D2D2D2D2DD5
:100B50002D0D0A0056616C69646174696E672070BE
:100B6000726F6772616D20696E74656772697479FE
:100B70002E2E2E00C0FF0000435243204F4B0D0A83
:100B8000000000000D0A50726F6772616D6D696E32
:100B900067204572726F72202D2043524320444FCC
:100BA0004553204E4F54204D41544348202D20485A
:100BB000616C74696E6720457865637574696F6EE2
:100BC0000D0A00007D07000000000020676F696EBD
:100BD0006720696E746F20737769746368696E67E4
:100BE000206D6F6465210A00646F6E65210A000044
:100BF000A0860100DC050000746F67676C65210A40
:100C000000000000A8C64B37894894405EBA490CE2
:100C1000024B33C01000002050C30000C045040048
:100C2000324D487A3A2025642033326B487A3A2094
:100C300025640000CC000020BC060000324D3A20A4
:100C400025752C2033326B487A3A2025752C205498
:100C5000656D703A2025640A00000000737769749E
:100C60006368696E670A0000000028524750494FC8
:100C7000204F4E0A00000000000004534750494F27
:100C8000204F46460A000000FFFD000025780A00BC
:100C90004772697070657220436C6F7365642025BC
:100CA00064202564200A0000417474656D707469C5
:100CB0006E6720746F2072656365697665206120B8
:100CC0007061636B65740A007061636B6574207298
:100CD000656365697665642E207374617274696EEC
:100CE00067205341524120746F67676C65210A0089
:100CF00001210E4800F0B3FF0121084600F0D5FFA6
:100D00000121642000F0D4FF08E002E008A003F015
:100D10005BF9FBE708A003F057F900BF00BF00BF75
:100D2000FEE710B508A003F04FF910BD6102000006
:100D300049646C650A000000496E76616C69642044
:100D40006D6F64650A00000052462074696D65721B
:100D50002063616C6C6261636B2063616C6C6564C1
:100D6000210A00004149424808604248004701B555
:100D7000012080F3108800F04FFF002080F31088DE
:100D800001BD01B5012080F3108800F0E1FE0020D4
:100D900080F3108801BD01B5012080F3108800F0B8
:100DA000CCFD002080F3108801BD01B5012080F347
:100DB000108800F0C0FF002080F3108801BD01B54D
:100DC000012080F3108800F0D7FE002080F3108807
:100DD00001BD01B5012080F3108800F0D2FE002093
:100DE00080F3108801BD01B5012080F3108800F068
:100DF000CCFE002080F3108801BD01B5012080F3F6
:100E0000108800F0C7FE002080F3108801BD01B5F6
:100E1000012080F3108800F04FFE002080F310883E
:100E200001BD01B5012080F3108800F0D9FD00203C
:100E300080F3108801BD01B5012080F3108800F017
:100E400069F8002080F3108801BD01B5012080F30E
:100E5000108800F060F8002080F3108801BD0000C9
:100E600005480649064A074B7047000000E100E0CC
:100E70000000000081000000300600203012002039
:100E8000300A0020300A00205121090608707047FE
:100E900010B503460C461846FFF7F6FF10BD10B517
:100EA0005124240623781846FFF7EEFF184610BD9C
:100EB00010B50446FFF7F3FF10BD01460020704750
:100EC00010B5044604492046FFF7E2FF10BD03A019
:100ED00003F07AF800BFFEE7240000200D0A544515
:100EE000535420444F4E450D0A00000010B52021F8
:100EF0008C4803F038FA8C488A4988614B20C0003E
:100F0000C86110BD8748407870470320C0028749F8
:100F1000086070477047F0B591B001F0C6F90C90C9
:100F200001F0C7F90B9001F0C8F90A9001F0C9F976
:100F3000054601F0CAF9064601F0CBF9099001F027
:100F4000CCF9089001F0CDF9074601F004F801F062
:100F5000D0F90F9001F0D1F90E9001F0C6F90446D6
:100F600001F0CFF9109001F0D0F90D906D480078A4
:100F7000401C6C49087001F025F801F01EF8694822
:100F8000007802286FDD6748007819286BDC684913
:100F90000E98884202D20C98401E0C9065490E981B
:100FA000884202D90C98401C0C900C990B9802F0C6
:100FB00092F90B9801F0EAF80C9801F0E3F859481F
:100FC00080691099884204D25648C069401E55492C
:100FD000C8615448806901461098814204D951483B
:100FE000C069401C4F49C8614E49C86902F0F7F911
:100FF0005148844203D90A98401C0A9009E04F489E
:10100000844201D96D1C04E04C484138844200D927
:10101000761C4B48844203D20A98401E0A900AE08C
:101020004648A038844201D26D1E04E043485F3830
:10103000844200D2761E2B4600961F2108460A9A4B
:1010400001F055F80A9801F02CF8284601F025F82F
:10105000304601F01EF83B490D98884204D90898A3
:10106000401C089013E034E037490D98884203D2C1
:101070000898401E08900AE034490D98884201D92A
:101080007F1C04E032490D98884200D27F1E002266
:101090003946089800F0C3FF089800F0BCFF3846B6
:1010A00000F0B5FF00F08CFE00F084FE1D4A0D99A3
:1010B0000898D26907970492059106900A991098AA
:1010C00023466A4662C2039022A00C9A0E9902F04F
:1010D0007BFF14480078192821D1089803970196BE
:1010E0000095029029480A9B0C9A0B9902F06CFF1C
:1010F0000C490F984860084684600D98C8601098A5
:1011000008610E98486100202921490608600320E3
:10111000C00206498031086001200249487000BFC2
:1011200011B0F0BD1C010020BAD0030000E100E0C6
:10113000C8781E0038901E00980F0300900D030021
:10114000E80A0300D49A18002C391800786F1800A8
:101150008864180048463D25642D256420202032EF
:101160004D3D25642D25642C25642C2564202020EC
:101170004C433D25642D256420202049463D2564AF
:101180002D25642C25640D0A00000000B84F0000D6
:1011900001204003FE4908600020FE4908607047B6
:1011A000022041070860704700B5FB48007800281E
:1011B00002D1FFF7F5FF04E00120F8498872FFF73C
:1011C000E7FF00BDF6480068704710B502F06DF803
:1011D00010BDF8B507460C4615461E463120C043E3
:1011E0003070F048007C20702078A84205DC22781E
:1011F000EC491131384603F057F8F8BD1FB50446E5
:10120000E6480830431E0622811E00900838FFF78A
:10121000E0FFFFF7BDFFE1488079062825D1FFF701
:10122000D4FFDE49C860FFF7CDFFDC4908610846FE
:10123000807E497ED94A127ED84BDB78009301929A
:1012400002910390D548837842780178D64802F01D
:10125000BBFED2488179D54A126890470020CF4919
:1012600088710621CD4803F07EF80020CB49C87272
:101270001FBDCC498039C86070470121C74AD1726F
:101280007047C84980398860704700B50246FFF74B
:101290007FFF0120C649487000BDC24980394860BF
:1012A000704710B50446C3A002F08EFE10BDBD49C4
:1012B00080390860704710B50446C348FFF7F7FF50
:1012C000C248FFF7EAFFC248FFF7DBFFC148FFF75C
:1012D000D0FF0021C04800F0C2FCB448046010BD3B
:1012E0000620BE4908602820AA490860704770B5EA
:1012F00005460C4610208106086022462946A9486A
:10130000703802F0D1FFA748703801218907886042
:101310000846C4600120086070BDFFB581B0054675
:101320000E461C4600209C4908700021AA4800F087
:1013300096FC22212046FFF7DAFF31462846039A21
:1013400002F01AF8FFF7CCFF00F0A1FC7D210901A3
:1013500047180021384600F08FFC0020944948705F
:1013600000BF934840780028FBD005B0F0BD0120B5
:101370004003874908600520C00208600420010777
:10138000086070471820834908600120934908606D
:101390008448103041210906486110208106086008
:1013A0007047F8B504460D46164600218A4800F0FD
:1013B00056FC012078490870784804764576867690
:1013C00000207649C8720B469A7E597E187E01F03D
:1013D000D3FFFFF7D7FFFFF7CAFF00F058FC7D21CE
:1013E000090147180021384600F046FC00206B49EF
:1013F000887200BF6948807A0028FBD0F8BDFFB52D
:101400008BB004460D461646149F15980097019020
:1014100073A102A80E9B169A02F0E4FD02AB3246BD
:1014200029462046FFF779FF0FB0F0BD40206F49F5
:1014300008601C208905486108200862704710B5C3
:10144000FF2199315748803802F08DFF584800211C
:1014500001806749534880304165C91F41610F21B0
:10146000803081824020614908601F2089054861E1
:1014700008200862FFF7DAFF10BD1020810608601F
:10148000704710B5044621460B398A00454994310E
:10149000885801F0A4FF10BD10B5044621460B3951
:1014A0008A004049D431885801F099FF10BD70B5C9
:1014B00005460C460B213B4880300174012C02D0BC
:1014C000022C0CD105E037498031087CFFF7E4FF9E
:1014D00006E034498031087CFFF7D3FF00E000BF0D
:1014E00000BF70BDF7B584B000BF00F0F6FE0190FC
:1014F00000F0F7FE00902B48007C02903D48C08A27
:10150000401C81B23B48C1820025029AD1003A4B6F
:10151000069A5A43104602F032FF0390092407E06E
:1015200060003649095A601C4000344A1152641E5A
:10153000002CF5DA039800B230490880002407E057
:1015400060002E49085E2E49095D48434519641C18
:101550000A2CF5DD2846E917C90D09184F12254850
:10156000C18A808A814253D17D20C000874207DD35
:101570000098421C014600920022019800F04FFDA5
:101580002048874244DA0098421E014600923BE020
:101590000000105200002852760000207C04002039
:1015A00000005452640300205050000078000020D6
:1015B000740000207374617274696E6720747820FF
:1015C0006672616D650A0000A31200008B120000B4
:1015D0007B120000FD110000A91100000000405224
:1015E00025642025642025642025640000E100E0B6
:1015F000C302000064040020093D0000CC0200206A
:101600003C00002018FCFFFF0022019800F007FDBD
:10161000019800F000FD009800F0F9FC0025059805
:10162000192873D2092407E0A000FE490958601C5C
:101630008000FC4A1150641E002CF5DAF949049828
:101640000860002407E0A000F6490858F649095D43
:1016500048434519641C0A2CF5DD2846E917C90DD5
:1016600009184E12F148C18A808A81424ED1412028
:10167000C000864221D9ED488038007C0B388100BB
:10168000EA486C384058401CE8498039097C0B39DD
:101690008A00E6496C39885008461438007C0B38BB
:1016A0008100E2482C384058401CE0498039097CD0
:1016B0000B398A00DD492C398850FF20E130864201
:1016C00021D2DA488038007C0B388100D7486C384A
:1016D0004058401ED5498039097C0B398A00D349CE
:1016E0006C39885008461438007C0B388100CF488C
:1016F0002C384058401ECD498039097C0B398A006E
:10170000CA492C3988500021C848C18207B0F0BDB1
:101710004020C74908607047C4488038407C704703
:10172000C448008800B27047F1B5A2B0402112A8A9
:1017300002F019FE442101A802F015FEBB498039D0
:1017400022984861002459E0A200B8496C398858B1
:1017500001F045FE0020292149060860B6480860CE
:10176000012700E07F1C7D20C0018742FAD37F2043
:10177000292149060860B1480568B1480668300467
:101780004019A10012AA5050611C4900AD4A8918A5
:10179000129A51430846AB4902F0E7FD611C8900EB
:1017A00001AA5050002C1CDDA00012A90958A0006D
:1017B00010581438814209D2A1009C486C38405816
:1017C000401CA20099496C3988500AE0A100974852
:1017D0006C3840582830611C8A0094496C39885014
:1017E000641C002C0AD1A10090486C384058283065
:1017F000611C8A008D496C398850641C102CA3DB55
:10180000002400E0641C102CFCDB129823B0F0BD17
:10181000F0B5B3B005460E460024402121A802F0E1
:10182000A2FD442110A802F09EFD2022864908A8AE
:10183000FEF78EFC2022844920316846FEF788FCA2
:101840007A48803845654FE0A20078492C3988589D
:1018500001F0C5FD0020292149060860764808608E
:101860000120319002E03198401C31907D21C90166
:1018700031988842F7DB7F202921490608606F48AC
:1018800007686F480068329032980004C019A100C0
:1018900021AA505062006B46995A620008AB9A5ACE
:1018A0007243104602F061FDA10010AA5050A00042
:1018B00021A90958A0001058401F814209D2A10057
:1018C0005A482C384058401CA20058492C3988509E
:1018D0000AE0A10055482C3840582830611C8A0085
:1018E00052492C398850641C102CADDB33B0F0BD4C
:1018F00070B504462046FFF717FF054651480A30E9
:1019000000F0A2FAFF202B3000F08FFAFF203430D5
:1019100000F08BFAFF20F93000F096FAFF20FB3040
:1019200000F083FAFF20FD3000F07FFA29462046C0
:10193000FFF76EFFFFF72CFC70BD70B5012080072C
:101940000469C5690121394880384174002D08D0E7
:1019500008202840002803D00021344880384174F2
:1019600000BF01208007456202202040002809D0E6
:1019700036480068002805D0212252065068334AB4
:101980001168884704202040002809D02F4840686B
:10199000002805D02122520650682C4A51688847F9
:1019A00008202040002809D028488068002805D059
:1019B000212252065068254A91688847102020400D
:1019C000002809D02148C068002805D021225206ED
:1019D00050681E4AD168884701208007846170BD25
:1019E00070B51B4805681B480668300440191A4941
:1019F00009688900194A505017480068401C164968
:101A00000860174800682021084315490860084607
:101A10000068144908601248006820218843104972
:101A2000086021E0480000203C0000206404002001
:101A300080E100E000006452FF3F000000002852F7
:101A400000002C52C1030000984E0000E402002068
:101A500000004452000048522C0000203C010020AD
:101A60003800002000000C52084600682B4908602E
:101A70002B4800680A281ED1012406E0A000294A4C
:101A8000115829A002F0A0FA641C0A2CF6D3FF20FA
:101A9000013027490860400025498039086000204E
:101AA0001F490860002400E0641C22488442FBD3E4
:101AB00021482249C86070BD10B5214A12686023D0
:101AC0001A431F4B1A601A461268144B1A601C4ABC
:101AD000126860239A431A4B1A601A4612680F4B19
:101AE0001A6001225202124B803B1A605210104BB6
:101AF0001A605200134B1A60134A1068134A116897
:101B00000A041218064B1B689B00064CE250044A5C
:101B10001268521C024B1A6010BD000000000C52EB
:101B20002C0000203C01002025580D0A0000000078
:101B300080E100E0102700000400FA0500ED00E05D
:101B40003800002080E200E00000445200004852CB
:101B500010B502A002F038FA10BD000061646320E5
:101B6000696E7465727275707420747269676765E6
:101B70007265640D0A00000010B509A002F024FA95
:101B800010BD10B5FFF7C7F910BD10B50EA002F0DB
:101B90001BFA10BD10B516A002F016FA10BD000019
:101BA00045787465726E616C20496E7465727275E9
:101BB0007074204750494F332074726967676572AB
:101BC00065640D0A0000000045787465726E616CF2
:101BD00020496E74657272757074204750494F3990
:101BE000207472696767657265640D0A0000000001
:101BF00045787465726E616C20496E746572727599
:101C00007074204750494F3130207472696767659E
:101C10007265640D0A00000010B502A002F0D4F94C
:101C200010BD00007561727420727820696E746551
:101C30007272757074207472696767657265640D7D
:101C40000A00000010B52C21454802F08CFB002052
:101C5000C0432121490688600720086010BD8A0022
:101C60003F4B98507047032182003E4B9A581160B9
:101C700080213D4A1160704730B505460C4620462C
:101C8000FFF7F1FFA00039490858056030BD212059
:101C900040064068704700218200324B9A5811601C
:101CA0008021314A803211607047314A5054704768
:101CB000F0B504460D46FF20F53060430646284641
:101CC000FFF7D1FFA8002B490C50FFF7E0FF871961
:101CD00029463846FFF7D0FFF0BD30B505460C4623
:101CE00000202549085521462846FFF7E1FF00BF9F
:101CF0002148005D0028FBD030BD10B5044601200E
:101D00001D4908551A48005D002805D0A100194A50
:101D100050582146FFF7CCFFA00011490858002871
:101D200004D0A1000E4A5058804703E0214613A07A
:101D300002F04AF910BD70B51D48056B002401265C
:101D400000BF08E028463040002802D0E0B2FFF78C
:101D5000D4FF7600641C082CF4DB1548456370BD85
:101D600098040020AC00002000E100E08C0000207E
:101D700084000020C40400207C000020696E74658B
:101D800072727570742025642063616C6C65642CBC
:101D90002062757420686164206E6F2063616C6CD2
:101DA0006261636B20646566696E65642E0A00007B
:101DB000400000422820F749086020200860704752
:101DC00010B500210022252126E0002221E08B0011
:101DD000F14CE358012494402340002B01D12120F1
:101DE00000E02020EB4B186002240346A343184672
:101DF000E84B186004231843E64B1860042403469C
:101E0000A3431846E34B186002231843E14B1860C4
:101E1000521C202ADBDB491E0029D6DA10BD00B592
:101E2000FFF7CEFFFFF7C6FF00BD10B541098A00DE
:101E3000D94B9A584B01C41A0123DB07E3401A43DC
:101E40008B00D54CE25010BD10B541098A00D24B31
:101E50009A584B01C41A0123DB07E3409A438B00D5
:101E6000CD4CE25010BD00B53220FFF7DEFF33202D
:101E7000FFF7DBFF3420FFF7E7FF3520FFF7D5FF43
:101E80003620FFF7D2FF3720FFF7CFFF3820FFF7CC
:101E9000CCFF3920FFF7C9FFFFF7C1FF00BD00B538
:101EA0003220FFF7D1FF3320FFF7CEFF3420FFF7BA
:101EB000CBFF3520FFF7C8FF3620FFF7C5FF3720DF
:101EC000FFF7C2FF3820FFF7BFFF3920FFF7BCFF45
:101ED000B248FFF7B9FFB148401EFFF7B5FFAF4862
:101EE000801EFFF7B1FFAD48C01EFFF79EFFFFF752
:101EF00096FF00BD00B5A948FFF7A6FFA748401E02
:101F0000FFF7A2FFA548801EFFF78FFFA348C01E62
:101F1000FFF78BFF2520FFF788FFFFF780FF00BD4D
:101F200000B52520FFF790FF9C48FFF78DFF9B48E9
:101F3000401EFFF789FF9948801EFFF785FF9748ED
:101F4000C01EFFF772FFFFF76AFF00BD7F20292147
:101F500049060860704700B5FFF7F8FF904802682F
:101F600090480368180481188B488030C164292088
:101F7000400602688C48036818048118864880303F
:101F800001658A4802688A480368180481188248F3
:101F900080304165874802688748036818048118C3
:101FA0007D4880308165854802688548036818044B
:101FB000811879488030C16500BD824829214906D1
:101FC000086070470020292149060860704710B555
:101FD0000446FFF7F7FFFFF7F0FF02212046FFF767
:101FE0007CFEFFF7B8FF10BD10B577A001F0ECFF45
:101FF000FFF7C8F9FEF789FF00BFFEF783FF00284F
:10200000FBD0FFF7C5F878A001F0DEFF10BD6249F4
:102010008031886470476049803148647047F0B50A
:1020200005460E461746002411E028462041C00709
:10203000C00F002805D0FF21B031081BFFF7F5FEC7
:1020400004E0FF21B031081BFFF7FEFE641C042CE6
:10205000EBD9002411E030462041C007C00F002812
:1020600005D0FF21B631081BFFF7DFFE04E0FF219A
:10207000B631081BFFF7E8FE641C042CEBD9012FD6
:1020800003D16148FFF7D1FE02E05F48FFF7DCFEB5
:10209000F0BD41498031C86370473F498031886352
:1020A00070473D4980314863704701460020CA07A8
:1020B000120E104302220A405201104304220A4029
:1020C000D200104308220A405200104310220A4056
:1020D0005208104320220A40D208104340220A40EE
:1020E0005209104380220A40D20910437047F0B5CC
:1020F00085B006460C4615461F4627488030866147
:10210000183044608560C760234998310A98086197
:102110000846183880683D49084003463046FFF7B6
:10212000C4FF0006C00E04902046FFF7BEFF000665
:10213000C00E03902846FFF7B8FF0006C00E0290BD
:102140003846FFF7B2FF0006C00E01900A98FFF76D
:10215000ACFF0006C00E009004988006034303986D
:10216000400503430298000403430198C00203435F
:102170000098800103432020034307488030836098
:1021800005B0F0BD04498031C86270470249803112
:102190000863704700005852E40400207E040000E9
:1021A0000000185200001C5200000452000010529F
:1021B000000014520000285200002C52000030523F
:1021C00000003452FF3F000043616C696272617429
:1021D000696E67206672657175656E636965732ED9
:1021E0002E2E0D0A000000004F70746963616C2090
:1021F00063616C6962726174696F6E20636F6D7088
:102200006C6574650D0A0000D60200001F00008096
:10221000FFB581B00C4615461E460A9FFEA001F090
:10222000D3FE0198FFF7B2FF2046FFF7ABFF33461E
:102230002A461F2108460097FFF759FF2846FFF757
:1022400030FF3046FFF729FF3846FFF722FF002214
:102250000C990B98FFF7E3FE0B98FFF7DCFE0C9848
:10226000FFF7D5FEFFF7DBFDF8A001F0ADFE05B0EE
:10227000F0BD10B5E021FD4802F075F81121FB48D2
:102280008030C16203210163152141630F21816305
:10229000C163F7490164162141641221816414224B
:1022A000F4491830FDF754FF10BDF0488030C06A83
:1022B0007047EE488030006B7047EC488030406BD0
:1022C0007047EA488030806B7047E8488030C06BC8
:1022D0007047E6488030006C7047E4488030406CBE
:1022E0007047E2488030806C7047E0488030C06CB6
:1022F0007047DE488030006D7047DC488030406DAC
:102300007047DA488030806D7047D8488030C06DA3
:102310007047D64980310864704710B5044698224A
:102320002146D248FDF714FF10BDD34901404900B2
:102330004208D14B1A4011430846D0490140890058
:102340008208CE4B1A4011430846CD49014009018D
:102350000209CB4B1A40114308460106FF22120224
:10236000024012021143020AFF231B021A401143CA
:10237000020E114308467047F3B500256C1E16E0A7
:102380000098465D3046FFF7D0FF064600270BE079
:1023900020467040002804DA6000BA4948400446EC
:1023A00000E0640076007F1C072FF1DD6D1C0198B2
:1023B0008542E5D3E043FFF7B8FFFCBDF0210140C3
:1023C00009110207120E11430846CC210140891061
:1023D00033220240920011430846AA2101404910CD
:1023E000552202405200114308467047FFB505468A
:1023F0000E46174600240FE028462041C007C00FB4
:10240000002804D02046F530FFF70FFD03E02046FA
:10241000F530FFF719FD641C032CEDDD00240FE0FF
:1024200030462041C007C00F002804D02046F930B4
:10243000FFF7FBFC03E02046F930FFF705FD641CC5
:10244000032CEDDD00240FE038462041C007C00F0B
:10245000002804D02046FD30FFF7E7FC03E02046CB
:10246000FD30FFF7F1FC641C032CEDDD00240FE0D0
:1024700003982041C007C00F002804D0E01DFA30A7
:10248000FFF7D3FC03E0E01DFA30FFF7DDFC641C2E
:10249000032CEDDDFFBDFFB505460E4617460024B3
:1024A0000FE028462041C007C00F002804D0E01DDF
:1024B000FE30FFF7BAFC03E0E01DFE30FFF7C4FC7E
:1024C000641C012CEDDD002411E030462041C007E2
:1024D000C00F002805D02046FF300830FFF7A5FCCC
:1024E00004E02046FF300830FFF7AEFC641C012CEE
:1024F000EBDD002411E038462041C007C00F002862
:1025000005D02046FF300A30FFF78FFC04E020465C
:10251000FF300A30FFF798FC641C012CEBDD00242F
:1025200011E003982041C007C00F002805D02046C5
:10253000FF300C30FFF779FC04E02046FF300C3010
:10254000FFF782FC641C012CEBDDFFBD30B589B0C8
:10255000054620224C4901A8FDF7FAFD002411E0B0
:102560002846E040C007C00F002805D0610001AA3E
:10257000505AFFF769FC04E0610001AA505AFFF7C6
:1025800054FC641C0F2CEBD909B030BD30B589B0B8
:10259000054620223C49203101A8FDF7D9FD002441
:1025A00011E02846E040C007C00F002805D06100B8
:1025B00001AA505AFFF739FC04E0610001AA505A01
:1025C000FFF742FC641C0F2CEBD909B030BD00B5FD
:1025D000FF20F630FFF738FCFF20F730FFF734FC20
:1025E000FF20F830FFF730FCFF20F930FFF72CFC1C
:1025F000FF20FA30FFF719FCFF20FB30FFF724FC27
:10260000FF20FC30FFF711FCFF20FD30FFF71CFC22
:10261000FF20FE303AE000007573696E67206D613F
:102620006E75616C6C7920736574206F707469636A
:10263000616C2063616C6962726174696F6E207392
:10264000657474696E67730A000000004D616E75F1
:10265000616C2063616C6962726174696F6E206382
:102660006F6D706C6574650D0A000000E404002055
:10267000006A1800D84E0000555555553333333392
:102680000F0F0F0FB71DC104EC4E0000FFF7CDFB7D
:10269000FF20FF30FFF7C9FBF748FFF7C6FB01201B
:1026A0004002FFF7C2FBF448801CFFF7CDFBF24865
:1026B000C01CFFF7C9FBF048001DFFF7B6FB8120E7
:1026C0008000FFF7B2FB0020EC490860EC48FFF700
:1026D000ACFB00BDF3B581B00F4600200090019E19
:1026E000B800019E82193146E6A001F06DFCF1A010
:1026F00001F06AFC00240CE0002507E0A00030583F
:102700000121A9408843A10070506D1C202DF5DBEC
:10271000641CBC42F0D300241DE0002518E0A0009A
:1027200030580121A9400840002809D0A0003358A2
:102730002A462146E5A001F047FC0098401C009085
:10274000A00030580121A9400843A10070506D1C21
:10275000202DE4DB641CBC42DFD300241FE00025F5
:102760001AE0A00030580121A94008400121A940E9
:10277000884209D0A00033582A462146DFA001F044
:1027800023FC0098401C0090A00030580121A94073
:102790008843A10070506D1C202DE2DB641CBC42FC
:1027A000DDD37C1E1DE01F2518E0A000305801215C
:1027B000A9400840002809D0A00033582A462146E5
:1027C000DAA001F001FC0098401C0090A0003058F5
:1027D0000121A9400843A10070506D1E002DE4DACC
:1027E000641E002CDFDA7C1E1FE01F251AE0A0000B
:1027F00030580121A94008400121A940884209D050
:10280000A00033582A462146D4A001F0DDFB0098F1
:10281000401C0090A00030580121A9408843A1002D
:1028200070506D1E002DE2DA641E002CDDDA0024EB
:1028300016E0002511E0A00030580121A940084011
:10284000002809D0A00033582A462146CFA001F025
:10285000BBFB0098401C00906D1C202DEBDB641C22
:10286000BC42E6D3D5A0009901F0AEFB0098FEBDB6
:1028700030B50546002411E028462041C007C00FAE
:10288000002805D02046FF30ED30FFF7CEFA04E0F7
:102890002046FF30ED30FFF7D7FA641C062CEBD949
:1028A00030BD30B50546002411E028462041C00760
:1028B000C00F002805D072497539081BFFF7B5FA1B
:1028C00004E06F497539081BFFF7BEFA641C042C3D
:1028D000EBD9052411E028462041C007C00F00288D
:1028E00005D067497539081BFFF7AEFA04E0644963
:1028F0007539081BFFF799FA641C062CEBD930BD1B
:1029000030B50546002411E028462041C007C00F1D
:10291000002805D05A49C91C6018FFF786FA04E060
:102920005749C91C6018FFF78FFA641C042CEBD9B7
:10293000052411E028462041C007C00F002805D01B
:102940004F49C91C6018FFF77FFA04E04C49C91CC5
:102950006018FFF76AFA641C062CEBD930BD30B55D
:102960000546002411E028462041C007C00F00287A
:1029700005D043490F31081BFFF757FA04E04049DF
:102980000F31081BFFF760FA641C042CEBD9A80672
:10299000C00F002804D0E7208000FFF755FA03E0BD
:1029A000E7208000FFF741FA6806C00F002804D036
:1029B00031482E30FFF748FA03E02F482E30FFF75A
:1029C00034FA30BD30B5054600240FE02846E0401B
:1029D000C007C00F002804D020466B30FFF725FA4F
:1029E00003E020466B30FFF72FFA641C0F2CEDDD5F
:1029F00030BD30B5054600240FE02846E040C00752
:102A0000C00F002804D020467C30FFF70EFA03E008
:102A100020467C30FFF718FA641C072CEDDD30BD32
:102A200030B5054600240FE02846E040C007C00F3F
:102A3000002804D02046D130FFF7F7F903E0204604
:102A4000D130FFF701FA641C0F2CEDDD30BD70B5FD
:102A500005460E4600240AE02046FF30D930FFF735
:102A6000F3F92046FF301730FFF7EEF9641C0D2C08
:102A7000F2DB0024BAE00000FF0100000000285251
:102A8000920300000D0A0D0A5374617274696E6737
:102A9000205352414D20746573742066726F6D200F
:102AA0003078255820746F20307825582E2E2E0D22
:102AB0000A000000546869732074616B65732061BB
:102AC0007768696C652E2E2E0D0A00000D0A45529E
:102AD000524F52203120402061646472657373202C
:102AE000255820626974202564202D2D2056616CA4
:102AF0007565206973202558000000000D0A4552B5
:102B0000524F5220322040206164647265737320FA
:102B1000255820626974202564202D2D2056616C73
:102B20007565206973202558000000000D0A455284
:102B3000524F5220332040206164647265737320C9
:102B4000255820626974202564202D2D2056616C43
:102B50007565206973202558000000000D0A455254
:102B6000524F522034204020616464726573732098
:102B7000255820626974202564202D2D2056616C13
:102B80007565206973202558000000000D0A455224
:102B9000524F522035204020616464726573732067
:102BA000255820626974202564202D2D2056616CE3
:102BB0007565206973202558000000000D0A5352E6
:102BC000414D205465737420436F6D706C6574655E
:102BD000202D2D202564204572726F72730D0A001E
:102BE000FF21E531081BFFF720F9641CAC42F7D93F
:102BF000002405E02046FF301730FFF725F9641C5C
:102C0000B442F7D970BD70B505460E46002411E0F8
:102C10003046E040C007C00F002805D02046FF30F6
:102C2000C530FFF702F904E02046FF30C530FFF75A
:102C30000BF9641C042CEBDD002411E02846E04075
:102C4000C007C00F002805D02046FF30CA30FFF76C
:102C5000ECF804E02046FF30CA30FFF7F5F8641CBA
:102C6000042CEBDD70BD70B505460E46002411E066
:102C70003046E040C007C00F002805D0FF21593181
:102C8000081BFFF7D2F804E0FF215931081BFFF7BA
:102C9000DBF8641C042CEBDD002411E02846E04046
:102CA000C007C00F002805D0FF215431081BFFF7D3
:102CB000BCF804E0FF215431081BFFF7C5F8641C81
:102CC000042CEBDD70BD70B505460E46002411E006
:102CD0002846E040C007C00F002805D02046FF303E
:102CE000E630FFF7A2F804E02046FF30E630FFF7B9
:102CF000ABF8641C042CEBDD002411E03046E0400E
:102D0000C007C00F002805D0FF211631081BFFF7B0
:102D10008CF804E0FF211631081BFFF795F8641CBE
:102D2000052CEBDD70BDF8B5F94C650DF948006A6E
:102D30002040F84908620846C06B2840C86308462E
:102D4000006AF549A1430843F2490862F348486222
:102D5000F3488862F348C862F3480863F34848635D
:102D6000F34888630846C06BF249A9430843E94920
:102D7000C863FF20A930FFF767F8FF20AA30FFF7EC
:102D800054F83F210846FFF79EFF07210846FFF74A
:102D90005EFE00210846FFF736FF00210846FFF7D8
:102DA00062FF0020FFF750F80120FFF74DF8602088
:102DB000FFF74AF8FF201030FFF746F8FF20EC300D
:102DC000FFF742F86420FFF73FF86520FFF73CF873
:102DD0006620FFF739F86120FFF727F80020D64971
:102DE0000860D648D64908606720FFF71EF80B2612
:102DF0000227F002F9010843D2490860052000903B
:102E0000D14900980860FF200E30FFF71DF8FF2021
:102E10000F30FFF719F80020FFF72AFDF020FFF729
:102E200004F85D20C000FFF700F8C848FEF7FDFF7A
:102E3000C648401CFEF7F9FF0120C5490860F8BDEF
:102E400070B5C44C650DB348006A2040B1490862B2
:102E50000846C06B2840C8630846006ABE49A143C3
:102E60000843AC490862AD484862AD4840308862CA
:102E7000BA48C862BA480863BA484863BA4888631F
:102E80000846C06BB949A9430843A249C86300205A
:102E9000FEF7CBFF0120FEF7C8FF0D20FFF792FDE4
:102EA0002620FFF7A6FD5020FFF7BAFDEE20FEF723
:102EB000BCFFEF20FEF7B9FFFF200E30FEF7C4FF86
:102EC000FF200F30FEF7C0FF8420FEF7AEFF05267F
:102ED0009D4806600A210020FFF795FE0020FFF7BD
:102EE000C7FCF020FEF7A1FF01204003A0490860C5
:102EF000F002086070BD10B50A467F238343590174
:102F0000844B9B6F9B4C2340824CA36723469B6F53
:102F10000B43A36710BD7F22824351037D4A926F0A
:102F20007F235B039A437B4B9A671A46926F0A434F
:102F30009A67704710B5F023034019090207754BD3
:102F40009B6F1B091B01734CA36723469B6F0B43AD
:102F5000A3672346DB6F1B011B09E3672346DB6F77
:102F60001343E36710BD00B57D20C000FEF75DFF91
:102F70008148FEF75AFF8048401CFEF756FF7E4806
:102F8000801CFEF752FF80207C4908607F20FFF7FD
:102F9000D1FF3F20FFF7BFFF00217F20FFF7ABFFEE
:102FA00000BD70B50346002400200325AD021D407E
:102FB0002C010F252D031D402D0B28433F252D01EE
:102FC0001D40284395022843CD0228431D072D0CA0
:102FD0002843E5436A4E3560C5436A4E356070BD8F
:102FE000002824D14B49C96F04221143494AD167B3
:102FF0001146C96F02229143464AD167114680317A
:1030000009680122D2071143424A803211604149C6
:10301000C96F49084900803AD16711468031096873
:103020000722120711433B4A80321160F6E0012863
:1030300022D13849C96F02221143364AD16711465D
:10304000C96F04229143334AD16711468031096820
:10305000C20711432F4A803211602E49C96F814344
:10306000803AD1671146803109680722120711435F
:10307000284A80321160D1E0022823D12549C96F46
:1030800004221143234AD1671146C96F022291439A
:10309000204AD1671146803109684A0052081D490B
:1030A00080310A608039C96F01221143194AD16702
:1030B000114680310968072212071143154A8032F0
:1030C0001160ABE003285FD11249C96F042211439C
:1030D000104AD1671146C96F022291430D4AD16748
:1030E000114680310968C20711430A4A80321160D3
:1030F0000849C96F49084900803AD16711468031B3
:103100000968012292079143024A8032116085E0EA
:103110000000FCFFE4040020E0FF50408821420052
:103120003100048881403B1102817E024448ED0356
:1031300000000160032EE0FF000038520FA00000E5
:1031400000003C5200000C5200002452E902000032
:10315000000040520000FEFFF0FF000081400C1014
:103160000281180044C87F01010001700008E0FFDF
:103170000000105217F0FFFFE903000000002C527E
:103180000000145200001852042822D1FE49C96FD1
:1031900004221143FC4AD1671146C96F02229143B0
:1031A000F94AD16711468031096842071143F64A4E
:1031B00080321160F449C96F49084900803AD167EB
:1031C000114680310968C2069143EF4A803211608E
:1031D00024E0052822D1EC49C96F04221143EA4AB0
:1031E000D1671146C96F02229143E74AD167114660
:1031F00080310968C2071143E34A80321160E24915
:10320000C96F49084900803AD16711468031096881
:10321000032252079143DC4A80321160704710B597
:103220000A467F2383435901D74B9B6F7F24640356
:10323000A343D54CA36723469B6F0B43A36710BDE5
:1032400010B5044600212820FFF7E9FF0420FFF70E
:10325000C7FE01221146FF20E130FFF7A2FEFD204C
:103260008000FEF7E2FD10BD70B503460C467F25D9
:10327000292676063560C54D2868C54D29680D0498
:103280002D181D60C34D2868C34D29680D042D18E5
:103290002560C24D2868C24D29680D042D1815609F
:1032A00000253560BF4D356070BDBF480068012105
:1032B00089020840002804D0BB4800888005800DA2
:1032C00070470020FCE7B94800787047B84800789C
:1032D0000007000F704770B505460E4600240FE04A
:1032E0003046E040C007C00F002804D0B149601844
:1032F000FEF79BFD03E0AF496018FEF7A5FD641CD7
:10330000032CEDDDF006C00F002804D0A948001DF5
:10331000FEF79AFD03E0A748001DFEF786FD002496
:1033200011E02846E040C007C00F002805D0D72193
:1033300089006018FEF779FD04E0D7218900601844
:10334000FEF782FD641C012CEBDD022411E028460F
:10335000E040C007C00F002805D09649C91C60187E
:10336000FEF772FD04E09349C91C6018FEF75DFD8D
:10337000641C042CEBDD70BDF7B584B00546E8068F
:10338000C00E03900598C006C00E02900698C006B5
:10339000C00E01900398FFF711F800900298FFF714
:1033A0000DF806460198FFF709F8044600230027A8
:1033B00000BF00BF009800907820204040020343E7
:1033C000F00003430098C008034380202040C00958
:1033D00007436F4803607848076007B0F0BDF0B559
:1033E00085B0054600260027172003908C20029008
:1033F0002846029900F0C3FF1330C0B2009028465F
:10340000029900F0BCFF0D462846039900F0B7FF73
:1034100041004018C019C0B201902846039900F03D
:10342000AEFF022800DB00BF2846039900F0A7FF8B
:103430008819C4B20F2C00DD641C22460199009843
:10344000FFF79AFF05B0F0BD38B5FEF712FFFDF7A4
:103450004DFDFDF7F4FFFEF7F5FBFFF7B8F8002090
:10346000FFF71FFA0023012219461846FFF713F849
:103470000623002219461046FEF7B8FFDF2000029F
:10348000FFF764F82F200002FFF780F84B48FEF7A3
:10349000CCFC3D4A8032D16A106BFFF71CFF4748D5
:1034A000001DFEF7C2FC4648FEF7BFFC3120FEF7C8
:1034B000BCFC3020FEF7B9FC2F20FEF7C5FC2E2007
:1034C000FEF7B3FC2D20FEF7BFFC2C20FEF7ADFC71
:1034D0002B20FEF7AAFC2A20FEF7A7FC374809306C
:1034E000FEF7A3FC36484630FEF79FFC2920FEF786
:1034F0009CFC022403E02046FEF797FC641C092C88
:10350000F9DBFFF710FCFFF72EFD1F4A8032916CAC
:10351000506C0022FEF783FD1B488030C06B00908A
:1035200019488030836B1F21426B0846FEF7DFFD90
:1035300022482138FEF779FC4B20C000FFF74FFFEF
:103540007D200001FFF77CFEFEF73AFCFEF732FC1F
:1035500038BDF8B5002029214906086011480860E7
:10356000012700E07F1C17488742FBDB7F202921D1
:1035700049060860054804680548056828040619D6
:1035800008460468104821E0E404002000001852B6
:1035900000001C520000285200002C520000305243
:1035A00000003452FF3F000000004052000054521F
:1035B00000003C5266030000000020527B04000023
:1035C0002902000050C300000000045205682804CE
:1035D000001900907003009900F0C7FEF8BD18B5FF
:1035E00036480069354C0090E368A2686168183C71
:1035F000A069FEF77CFD18BD10B500210BE0036843
:103600009B0F0468E40E6340DA07D20F03685B0087
:1036100013430360491C0829F1DB10BD2748983883
:10362000806F0121090588432449983988677047CC
:1036300022489838806F0121090508431F499839AD
:10364000886770471D489838006C0921C90688436F
:103650001A4998390864704718489838006C09214D
:10366000C906084315499839086470471348183843
:1036700000680121C90408431049183908607047DF
:103680000E48183800680121C90488430B491839CD
:1036900008607047094818380068032149048843C6
:1036A0000649183908607047044818380068032133
:1036B0004904084301491839086070477C05002017
:1036C00070B503460A460121012400BF00BFF94D31
:1036D0002D6810263543F74E356035462D68F64E79
:1036E0003540F44E3560A6E010290DD2F14D2D681D
:1036F000F14E203E7540ED43EE4E3560002000E077
:10370000401C9042FCD395E0EA4D2D68EA4E1036FD
:103710003543E94E2036B54245D1E64D2D68E64E9B
:10372000403E7540ED43E34E3560491C002000E00B
:10373000401C9042FCD3DF4D2D68DF4E203E75408B
:10374000ED43DC4E3560491C002000E0401C9042F7
:10375000FCD3D84D2D68D84E203E7540ED43D54E54
:103760003560491C002000E0401C9042FCD3D14D44
:103770002D68D14E203E7540ED43CE4E3560491C3C
:10378000002000E0401C9042FCD3CA4D2D68CA4E78
:10379000303E7540ED43C74E3560002000E0401CD0
:1037A0009042FCD344E0C34D2D68C34E303E75407B
:1037B000ED43C04E3560491C002000E0401C9042A3
:1037C000FCD3BC4D2D68BC4E203E7540ED43B94E38
:1037D0003560491C002000E0401C9042FCD3B54DF0
:1037E0002D68B54E203E7540ED43B24E3560491C04
:1037F000002000E0401C9042FCD3AE4D2D68AE4E40
:10380000203E7540ED43AB4E3560491C002000E082
:10381000401C9042FCD3A74D2D68A74E403E7540FA
:10382000ED43A44E3560002000E0401C9042FCD3E4
:103830000021641C491C9C4200D255E70FE00B2973
:103840000CD29C4D2D689C4E203E7540ED43994E08
:103850003560002000E0401C9042FCD3491C0B293D
:10386000EDD3944D2D6830263543924E35600021BE
:103870000FE00C290CD28F4D2D688F4E203E7540E5
:10388000ED438C4E3560002000E0401C9042FCD39C
:10389000491C0C29EDD370BD70B503460A460121C1
:1038A000012400BF00BF834D2D680E023543814EB9
:1038B000356035462D68814E35407E4E3560A5E039
:1038C00010290DD27B4D2D687B4E203E7540ED4377
:1038D000784E3560002000E0401C9042FCD394E01C
:1038E000744D2D68754E3543734E2036B54245D123
:1038F000704D2D68714EC0367540ED436D4E35608C
:10390000491C002000E0401C9042FCD3694D2D680A
:10391000694E203E7540ED43664E3560491C0020DF
:1039200000E0401C9042FCD3624D2D68624E203E68
:103930007540ED435F4E3560491C002000E0401C9F
:103940009042FCD35B4D2D685B4E203E7540ED43AD
:10395000584E3560491C002000E0401C9042FCD3CA
:10396000544D2D68554E403E7540ED43514E3560E7
:10397000002000E0401C9042FCD344E04D4D2D68F7
:103980004E4E403E7540ED434A4E3560491C002086
:1039900000E0401C9042FCD3464D2D68464E203E30
:1039A0007540ED43434E3560491C002000E0401C4B
:1039B0009042FCD33F4D2D683F4E203E7540ED4375
:1039C0003C4E3560491C002000E0401C9042FCD376
:1039D000384D2D68384E203E7540ED43354E3560EC
:1039E000491C002000E0401C9042FCD3314D2D6862
:1039F000324EC0367540ED432E4E3560002000E05B
:103A0000401C9042FCD30021641C491C9C4200D203
:103A100056E70FE00B290CD2264D2D68264E203E8E
:103A20007540ED43234E3560002000E0401C90427D
:103A3000FCD3491C0B29EDD31E4D2D6803263602FD
:103A400035431C4E356000210FE00C290CD2194D76
:103A50002D68194E203E7540ED43164E356000200E
:103A600000E0401C9042FCD3491C0C29EDD370BDF2
:103A700010B5014600230F4C236000200FE00C28F6
:103A80000CDA0C4B1B680C4C203C6340DB43094CAC
:103A90002360002200E0521C8A42FCD3401C0C2808
:103AA000EDDB10BD0146002200201023014C2360F5
:103AB00024E0000000000453DFFF0000FFFD0000D1
:103AC000292A0CD2214B1B68214C6340DB431F4C3D
:103AD0002360002000E0401C8842FCD30DE01B4B1B
:103AE0001B681B4C303C6340DB43184C23600020B8
:103AF00000E0401C8842FCD30022521CE0E7022078
:103B0000144908607047012040031249086070475B
:103B100001204003104908600E4980310860704759
:103B200070B513464D1E0126AE40344600220AE011
:103B300005462540002D01D0012500E00025960016
:103B40009D514000521C8A42F2DB70BD00000453BC
:103B5000BFFF000000E100E080E200E001468802D3
:103B6000704701460A46C817800D801880127047BA
:103B70007FB50446A005800D00F0CFFE054600226B
:103B8000314B00F0D5FE039102902046FFF7E9FF8C
:103B9000054600F0C2FE01910090039B029A00F0DE
:103BA00011FE04B070BD0246501870470246501A0C
:103BB0007047F8B504460F462046394601F03EF9F5
:103BC000054601229202002300F0C5F9F8BDF8B5C0
:103BD00007460C4638460121890201F02FF90546B7
:103BE0002246E31700F0B7F9F8BDF0B51FB486B070
:103BF00014461D460698FEF7EAF9FEF776FB059097
:103C0000FEF777FB0490FEF7DDF9FEF7D6F904988E
:103C1000FFF7A4FF07460598FFF7A0FF394601907C
:103C2000FFF7D5FF0646FFF7A3FF0391029020465A
:103C30002946039B029A00F07BFE0646119B109AD0
:103C400000F0C0FD0BB0F0BD0000503F0F20A449B4
:103C50000968012282401143A14A1160704770B582
:103C6000034600240E200C22072130E001258D4060
:103C70001D40002D15D09A4D2D6801268640B54374
:103C8000974E356035462D68012696403543944E53
:103C9000356035462D68012686403543904E3560A7
:103CA00014E08F4D2D6801268640B5438C4E35605B
:103CB00035462D6801269640B543894E3560354618
:103CC0002D68012686403543854E3560491E002902
:103CD000CCDA834D2D6801269640B543804E356081
:103CE00070BD10B500200C210F227D4B1B680124F4
:103CF0009440A3437A4C236023461C6801238B40E5
:103D00009C43774B1C6000BF00E0401C3228FCDB6A
:103D100010BD30B505460C466D066D0EFFF7E1FF90
:103D20002846FFF79CFF2046FFF799FFFFF78EFF1D
:103D300030BD10B56BA000F047F941210620FFF718
:103D4000E8FF002400E0641C6B488442FBDB012197
:103D50000620FFF7DEFF002400E0641C6648844272
:103D6000FBDB10BD70B500240E220D2300205C4D3E
:103D70002D6801269640B543594E3560072118E05D
:103D8000574D2D68012696403543554E35605325D5
:103D90002D062D6801269E403540DD408D400543AF
:103DA000E8B24F4D2D6801269640B5434C4E356024
:103DB000491E0029E4DA70BD30B504466406640E7D
:103DC00080200443FFF78DFF2046FFF748FFFFF7F1
:103DD000C9FF0546FFF73AFF284630BD30B52D250F
:103DE0002846FFF7E9FF04022E252846FFF7E4FFE7
:103DF0000443204630BD30B52F252846FFF7DCFFB1
:103E0000040230252846FFF7D7FF0443204630BD83
:103E100030B531252846FFF7CFFF0402322528466A
:103E2000FFF7CAFF0443204630BD30B5332528468E
:103E3000FFF7C2FF040234252846FFF7BDFF044305
:103E4000204630BD30B535252846FFF7B5FF0402C2
:103E500036252846FFF7B0FF0443204630BD30B575
:103E600037252846FFF7A8FF040238252846FFF724
:103E7000A3FF0443204630BD70B500260025284628
:103E8000FFF79AFF0446EA2C07D11CA000F09CF82B
:103E900021461FA000F098F806E021A000F094F859
:103EA000214626A000F090F870BD10B50446FFF73B
:103EB00095FF00B22080FFF79EFF00B26080FFF701
:103EC000A7FF00B2A080FFF7B0FF00B2E080FFF7CD
:103ED000B9FF00B22081FFF7C2FF00B2608110BDC0
:103EE00000000453696E697469616C697A696E6770
:103EF00020494D550A00000050C300004D7920496B
:103F00004D5520697320616C69766521212100007F
:103F1000206279746520726561643A2025780A0010
:103F20004D7920494D55206973206E6F7420776F4D
:103F3000726B696E67203A28200000006279746510
:103F40002072657475726E656420776173202564D4
:103F50000A000000704770B500252C46AD1A9C4140
:103F600012DA00252C462D1A8C4102DA00F005FEEB
:103F700070BD002440428C41214600F0FEFD00242B
:103F800040428C41214619E000252C462D1A8C41D7
:103F90000ADA002452429C41234600F0EEFD002440
:103FA00040428C41214670BD002452429C41404217
:103FB000234600248C41214600F0DFFD00245242BC
:103FC0009C41234670BD00000FB4054910B503AAFB
:103FD000029800F0DFFE10BC08BC04B018470000D7
:103FE000240000200FB41CB5074B06AA7B44694689
:103FF0000090059800F09FFE0020694600F0AEFE9C
:104000001CBC08BC04B018476D0D000070B5044618
:1040100085690068C10601D5302600E02026C0076A
:1040200007D070BD62683046A1689047206A401C86
:1040300020626D1EF6D570BD70B5044685690078A6
:10404000C00707D170BD6268A16820209047206A30
:10405000401C20626D1EF6D570BD70B50C4605463D
:10406000012A05D02878800600D5EA69002302E0FD
:10407000012305E05B1C934202D2E05C0028F9D1E9
:10408000A869E618C01AA861286AC01828622846DC
:10409000FFF7BCFF04E06A682078A968641C9047B9
:1040A000B442F8D32846FFF7C7FF70BDF7B5002527
:1040B00075291068009914A611D0C046C046002882
:1040C00002DA404211A608E0009909688A0701D582
:1040D0000FA602E0490704D50EA6012501E0C0465F
:1040E000C046009F0024243704E000F067FE303112
:1040F0003955641C0028F8D12B46324621460098D9
:1041000000F0BCFDFEBD0000000000002D0000001E
:104110002B0000002000000070B504460D4621462B
:104120001068C046C0462188090502D50F4A7A4466
:1041300002E00E4A7A440E3223460021243305E081
:1041400006070009360F965D5E54491C0028F7D11A
:1041500020780023000705D5702D03D0002901D059
:1041600002231132204600F089FD70BDFA0D0000D7
:10417000F3B50446002081B020622046E1688847FC
:1041800000287DD0252802D06268A16883E0454FD1
:1041900000257F442046E16888472028064608DB42
:1041A000312E06D2B81920380078002801D00543F6
:1041B000F0E7A80701D5042085430020E061074609
:1041C000A0612A2E0AD0304600F05EFE002827D0DB
:1041D000B8000019303E0090866119E00298BA00DC
:1041E000121902C8916102902046E1688847012FA8
:1041F000064617D1E06900281FDA202085431CE01D
:1042000000980A21806948430099801930388861F4
:104210002046E1688847064600F036FE0028EFD1C8
:10422000012F0AD02E2E08D12046E1688847064685
:10423000202005437F1C022FC3DBA069002803DA7E
:104240004042A06101200543E80701D010208543CA
:10425000002E24D030464138192803D80120C0024E
:1042600005432036204625603146029A1546FBF765
:1042700045FF00280CD0012807D0ED1DE80800E01C
:104280000DE0C0000830029077E72D1D029574E71D
:1042900062683046A1689047206A401C6CE7206A3B
:1042A000FEBD0000BE0D0000F8B5042A2CD3830724
:1042B00012D00B78491C0370401C521E83070BD090
:1042C0000B78491C0370401C521E830704D00B78E6
:1042D000491C0370401C521E8B079B0F05D0C91A46
:1042E000DF002023DE1B08C90AE0FBF731FFF8BD21
:1042F0001D4608C9FD401C46B4402C4310C0121F87
:10430000042AF5D2F308C91A521EF0D40B78491CBE
:104310000370401C521EEAD40B78491C0370401CE9
:10432000012AE4D409780170F8BD01E004C0091F36
:104330000429FBD28B0701D50280801CC90700D05D
:104340000270704700290BD0C30702D00270401CD6
:10435000491E022904D3830702D50280801C891ECE
:10436000E3E70022EEE70022DFE7002203098B42A9
:104370002CD3030A8B4211D300239C464EE0034604
:104380000B433CD4002243088B4231D303098B42B8
:104390001CD3030A8B4201D394463FE0C3098B42EE
:1043A00001D3CB01C01A524183098B4201D38B0147
:1043B000C01A524143098B4201D34B01C01A5241EA
:1043C00003098B4201D30B01C01A5241C3088B422F
:1043D00001D3CB00C01A524183088B4201D38B001A
:1043E000C01A524143088B4201D34B00C01A5241BC
:1043F000411A00D201465241104670475DE0CA0F93
:1044000000D04942031000D34042534000229C4652
:1044100003098B422DD3030A8B4212D3FC2289015C
:1044200012BA030A8B420CD3890192118B4208D332
:10443000890192118B4204D389013AD0921100E094
:104440008909C3098B4201D3CB01C01A52418309A8
:104450008B4201D38B01C01A524143098B4201D3D5
:104460004B01C01A524103098B4201D30B01C01A00
:104470005241C3088B4201D3CB00C01A524183087A
:104480008B4201D38B00C01A5241D9D243088B42D0
:1044900001D34B00C01A5241411A00D20146634673
:1044A00052415B10104601D34042002B00D54942D7
:1044B000704763465B1000D3404201B50020C04600
:1044C000C04602BD7047704770470000F0B50C460B
:1044D000871A9C410D46861A9D4103D2C01BA141FB
:1044E000D21963410D0D1F0DC94EEC1BAE435CD0BC
:1044F0007F057F0D0026002F51D02D05AC46A94326
:10450000DD020123ED0A1B051D4320231B1B24D4C0
:104510001746E740381871412F46E740CC199D40B7
:104520002818314661410C0D27D161449A4013D5BA
:104530000023401C594152000ED140084000012286
:104540004B005205D34207D305204007C14201D595
:10455000B04900E0B0493046F0BD6B00002A00D001
:1045600001229A181F23203C1B1B01D5002302E0C7
:10457000E540281871410C0DD7D0012424050919F4
:10458000C407CD0740084908E40F28436144002CC4
:10459000D5D00024401C61419A40D0D1CDE76A05B6
:1045A000520DD9D1C90FC907D5E79C4D4E0000283F
:1045B00001D0012400E0002434195F00002A01D05A
:1045C000012600E00026BE19954FAC420CD8AE4241
:1045D0000AD8B44206D001256D05EC42BCD0104685
:1045E0001946F0BD9942FCD000203946F0BDF0B527
:1045F0001FB40C460F46811A9F412546861A9D41DD
:1046000006D20125ED076F40401ABC4152187B418C
:10461000210D1E0D8D1BAC467D4D8D437ED0750545
:104620006D0D7CD00D05AE46AC431B031B0B794DC5
:1046300052429D41202366469B1B14D31746F740E8
:10464000381800260090744160462F460741E4194F
:1046500000989D402818664116D4714671189A40FA
:1046600025D5012320E093182A466A415200002BE9
:1046700000D0521C1E23203E9B1B002B61DD3541C8
:10468000EE1728186641E8D5001876415B1C9A4061
:1046900000D3401C4B05F3181524E34010D3002B26
:1046A00052D071467118D30FC01802D3491C05B0FF
:1046B000F0BD0123DB079A42F9D140084000F6E73C
:1046C00001225205B21801D1002853D00123CC0A8F
:1046D000DB029943891E002A08D1020C03D0020C88
:1046E0000004103902E00246002020390023550B57
:1046F00005D112020823550B01D152010D23550C8F
:1047000001D112011B1DD50C01D192009B1C150D6E
:1047100001D152005B1C2025EE1A01E02CE022E0C2
:104720000546F54015439840CA1AE1076918130574
:10473000C918002ABBDA032040070818C10FC907AF
:104740000FE071466118B2E7F107400808437110A5
:1047500071444A000CD001235B059A42A7D2C90FCD
:10476000C9070020A3E74905490D26D1002001E033
:104770000028F4D100219AE7284D6600002801D0D6
:10478000012100E0002171185F00002A01D00126FC
:1047900000E00026BE19224FA94210D8AE420ED822
:1047A000B14208D001256D05E94206D01946A8029C
:1047B000414010467BE79C4201D0214677E700202C
:1047C000394674E710B50C465C4005D50124E40772
:1047D0006340FFF70CFF10BDFFF778FE10BD30B44B
:1047E0000C465C4004D50124E407634030BC6DE610
:1047F00030BCFCE670B50124E40761400D465D4025
:1048000002D4FFF763FE70BD6340FFF7F0FE70BD9A
:10481000FF0700000000F0FF0000F07F0000E0FF55
:104820000000F87F30B50346CA02400D1043164D14
:10483000164C0A1502D02043002A06DBAA1A002AC9
:1048400012DDD040FF2A0BDC30BD5205520D01D1E4
:1048500040004008AA1A07D4D0404042FF2A01DD98
:10486000002030BD0028FCDD4A00002B01D00120D3
:1048700000E00020101801225205D042F0D8C817DD
:10488000C043604030BD00001E04000000000080F6
:104890000346CA02400D10B510430A1504D0012486
:1048A000E4072043002A05DB0A4CA21A04D4D040B6
:1048B000FF2A00DD002010BD4A00002B01D001209E
:1048C00000E00020101801225205D042F2D8C8178B
:1048D000C04310BD1E0400001F22030C02D10F2292
:1048E000000402D0030E03D004E00020014670470C
:1048F0000002083A030F01D10001121F830F01D1FA
:104900008000921E002801DB4000521E1205511843
:104910004205C012411810467047C10FC90700D0A8
:104920004042012292071143D6E701218907D3E7CC
:10493000F0B58B4C0F09254689B0BD437BD01D09CE
:104940002646AE43FAD00E465E402740F60F3E4361
:10495000254071D024012142FBD0FF24AD19A404CD
:104960002D1B039501252D05DB02DB0AC9022B4314
:10497000C90A29431E010901040F130F0501214330
:104980001701880B820391432D098C46A90B1E4306
:104990008A039543B30B9A0396433F09BA0B9403DA
:1049A000A74302962E467E430497B6464E19D71962
:1049B0000C460196544305977E43371B7646BF1B32
:1049C0003601B646BE0B361900967646BC0437193A
:1049D000009C01D3641C00946400002F01D00126C8
:1049E0003443029E049F754366467E4304967600D8
:1049F00034196E0034190094029C019E1C19664300
:104A0000751BAE46069465464519059C05956C4395
:104A1000594375460891691A0191049E0146514314
:104A2000A41B0491611A009C0791E10605D061095D
:104A30000122114302E072E06EE06109089D002747
:104A40002C0A2D066918049D7C412A0A2D06691836
:104A5000019D6241AC0DAD026D185441079A910D54
:104A6000920255196141029A644658435443069B89
:104A7000059A5A43121A131B9A0E9B015B187A412E
:104A8000010B0005C3185141220A200644195A415E
:104A90009A4200D2491C01204002814203D31523CF
:104AA0000226F64302E014230326F6432020C51A0B
:104AB000A9401746AF40DA400A4320460399D84040
:104AC0000914731819055118039A3843D207514035
:104AD000AC4009D00122944006D30022401C514131
:104AE000002C01D1400840001E4A934212D30122FB
:104AF00003989206904207DB0520400709181A48E0
:104B00000143C012414004E0032040070818C10FD0
:104B1000C907002009B0F0BD0020F107FAE7051829
:104B20000C464C4111486D42A04115D394181A46C9
:104B30005A410E48644290410ED301204A0040057C
:104B4000824209D35A00824206D35940C90F084A0B
:104B5000C90700201143DDE700200649DAE700001D
:104B60000000FF07FE070000FFFFFF7F0000E0FFDF
:104B70000000F07F0000F87F7047FEB50546104644
:104B80000C46184373D0AE468C460020AD1A014641
:104B90009C4167D36646002701243D46B61A9D41D5
:104BA00002D313463A462124654676462F04360C36
:104BB0003E432D0CB61A9D4104D3150C1B042B4308
:104BC00012041034654676462F06360A3E432D0AF7
:104BD000B61A9D4104D3150E1B022B431202083452
:104BE000654676462F0736093E432D09B61A9D4184
:104BF00004D3150F1B012B431201241D6546764675
:104C0000AF07B6083E43AD08B61A9D4104D3950FD1
:104C10009B002B439200A41C65467646EF0776085E
:104C20003E436D08B61A9D411AD392185B41641C2D
:104C300016E00018764665464941B71A9D41019134
:104C4000009009D36046B11A98418E468446009878
:104C500001990025401C6941DD0752082A435B0881
:104C6000641EE6D57246634603B0F0BDFFE7002040
:104C70000146C046C0462A462346F5E7FFB504462E
:104C80000D4681B0243000902168880604D510229A
:104C9000E0699143216000E00120A84201DD471B4B
:104CA00000E000270498A1697A191018081AA06179
:104CB0002078C00602D42046FFF7A8F9002608E0B5
:104CC00003986268A168805D9047206A401C761C4A
:104CD000206204988642F3DB2078C0060AD520467D
:104CE000FFF794F906E06268A16830209047206AD7
:104CF000401C206238467F1E0028F4DC07E0009844
:104D00006268A168405D9047206A401C2062284686
:104D10006D1E0028F3DC2046FFF78EF92078000690
:104D200002D5022005B0F0BD0120FBE701694A1C55
:104D300002610878704700B58FB00291002105919B
:104D40000549019379440391114604906846FFF7A1
:104D50000FFA0FB000BD0000E5FFFFFF0A681070FA
:104D6000521C0A60704710B54369002B02D0C04640
:104D7000C04601E0FFF771F9012010BD127801462D
:104D800024310A7000224A700122ECE711680022E7
:104D9000D243E8E7084B70B50D467B44FFF7CBFFE5
:104DA00004462846FCF789F8002802D00020C043BA
:104DB00070BD204670BD0000F3C0FFFF01468008B3
:104DC000081A02091018020A1018020C1018C0085C
:104DD000820012185200891A01E0401C0A390A297F
:104DE000FBD27047754600F025F8AE4605006946CF
:104DF0005346C008C000854618B020B5FCF730F80F
:104E000060BC00274908B6460026C0C5C0C5C0C55D
:104E1000C0C5C0C5C0C5C0C5C0C5403D49008D4660
:104E2000704710B50446C046C0462046FBF78AF9D5
:104E300010BD000000487047C4050020F8B582B2DC
:104E40008BB204140D1410465843002126465E43CD
:104E5000371436048019794116466E4337143604E8
:104E60008019794126466E438919F8BD30B47446DD
:104E7000641E2578641CAB4204D3635D5B00E318B9
:104E800030BC18471D46F8E730380A2801D2012007
:104E9000704700207047000022038803A1030D0122
:104EA000B503B20171014202C701CA038B00290197
:104EB0004B026D0075019F00210385039C030B01CC
:104EC000AC03AD016C013902BF01B70388002201B8
:104ED0003C026A006A019A001F0000001F000000E7
:104EE0001D00000002000000020000006B046D04C1
:104EF0006F0471047404760478047A045B045D041E
:104F00005F0461046404660468046A046C046E044B
:104F10007004720473047504770479045C045E04FD
:104F20006004620463046504670469043031323349
:104F300034353637383941424344454640305800CD
:104F400030313233343536373839616263646566FF
:104F5000403078000400000800000000000000025B
:104F6000000100001000000041583A202533642061
:104F70002533642C2041593A20253364202533649D
:104F80002C20415A3A20253364202533642C2047B5
:104F9000583A20253364202533642C2047593A2081
:104FA000253364202533642C20475A3A2025336466
:104FB000202533640A00000023646566696E65205D
:104FC00048465F434F415253452025750A23646587
:104FD00066696E652048465F46494E452025750A3C
:104FE00023646566696E65205243324D5F434F41CD
:104FF0005253452025750A23646566696E65205203
:1050000043324D5F46494E452025750A2364656647
:10501000696E65205243324D5F53555045524649A3
:105020004E452025750A23646566696E65204946EC
:105030005F434F415253452025750A2364656669D5
:105040006E652049465F46494E452025750A000099
:105050005061636B6574206E756D2025642E205041
:1050600061636B657420636F6E74656E7473203159
:105070002D333A20256420256420256420636F6148
:105080007273653A202564096D69643A20256409C4
:1050900066696E653A2025640A000000BC50000075
:1050A00000000020CC000000C40000008851000077
:1050B000CC00002064110000E000000002000000AD
:1050C0000000000000160F18151116000000000067
:1050D00000000000000000000000000000000000D0
:1050E000000000510000005100000000000000001E
:1050F00000000000000000000410254057605740E9
:1051000025100400F4010000F4010000F401000087
:10511000F4010000F4010000F4010000F4010000BB
:10512000F4010000F4010000F401000000000000A0
:10513000000000000000000000000000000000006F
:1051400000000000000000001000004214000042B7
:10515000180000421C0000422000004224000042CF
:10516000280000422C00004230000042340000427F
:10517000380000423C00004240000042440000422F
:08518000480000424C0000420F
:0400000500000000F7
:00000001FF
